S01500005350495F746573745F6164635F332E733337BB
S1130000008000207D010000A9010000A90100007A
S1130010A9010000A9010000A9010000A901000034
S1130020A9010000A9010000A9010000A901000024
S1130030A9010000A9010000A9010000A901000014
S1130040A9010000A9010000A9010000A901000004
S1130050A9010000A9010000A9010000A9010000F4
S113006041200000A9010000A9010000CD290000E1
S1130070A9010000A9010000A9010000A9010000D4
S1130080A9010000A9010000A9010000A9010000C4
S1130090A9010000A9010000A9010000A9010000B4
S11300A0A9010000A90100002D250000A9010000FC
S11300B0A9010000E12C0000A9010000A901000031
S11300C0A9010000A901000010B5054C237833B93B
S11300D0044B13B10448AFF300800123237010BD17
S11300E0F001002000000000786E000008B5034B0A
S11300F01BB103490348AFF3008008BD00000000B2
S1130100F4010020786E0000154B002B08BF134B40
S11301109D46A3F5803A00218B460F461348144AA6
S1130120121A04F009F80F4B002B00D098470E4B1D
S1130130002B00D098470020002104000D000D483A
S1130140002802D00C48AFF3008003F0D1FF200058
S1130150290002F053FA03F0C1FE00BF00000800BA
S1130160008000200000000000000000F0010020DA
S11301707C040020000000000000000006488047C6
S11301800649074A074B9A42BEBF51F8040B42F88E
S1130190040BF8E7FFF7B8FF89020000846E000043
S11301A000000020F0010020FEE700BF80B582B00F
S11301B000AF00F025F878600A4BD3F808311B0A29
S11301C0C3F308033B603B6801337A68B2FBF3F383
S11301D07B60054A7B6813607B6818460837BD4618
S11301E080BD00BF00400E400800002080B400AF76
S11301F0024B1846BD465DF8047B704700F0490287
S113020080B483B000AF164BD3F8943003F00703E7
S1130210032B08D0042B02D0022B08D00BE0114B87
S11302201B687B600BE04FF400437B6007E00E4BE0
S11302301B687B6003E00D4B1B687B6000BF084BB1
S1130240D3F800311B0A03F01F0301337A68B2FBB1
S1130250F3F318460C37BD465DF8047B704700BFC6
S113026000400E4004000020000000200C0000208C
S113027080B400AF034B1B681846BD465DF8047B91
S1130280704700BF0000002080B400AF124BD3F8C9
S11302908830114A43F47003C2F888300F4B5B6D09
S11302A00E4A43F4005353650C4B1B6C0B4A23F06A
S11302B0030313640A4B1B68094A23F00103136008
S11302C0084B1B68074A23F08053136000BFBD46E8
S11302D05DF8047B704700BF00ED00E000300E4085
S11302E074300E4060300E4080B400AF4FF40043D1
S11302F01846BD465DF8047B704780B400AF4FF4E8
S11303007A731846BD465DF8047B704780B400AF2D
S1130310034B1B681846BD465DF8047B704700BF5D
S11303200400002080B487B000AFF860B9607A6040
S1130330FB6803F10473DA00BB6813449B007B6120
S11303407B697A681A6000BF1C37BD465DF8047B80
S1130350704780B485B000AF786039607B6803F182
S11303600473DA003B6813449B00FB60FB681B6862
S113037018461437BD465DF8047B704780B483B0DB
S113038000AF786001227B6802FA03F318460C3749
S1130390BD465DF8047B704780B584B000AF7860DB
S11303A00123FB607B68124A934204D80023FB605C
S11303B00023BB6008E07B680E4A934202D8012305
S11303C0BB6001E00223BB60FA6810210A48FFF712
S11303D0A9FF094BD3F8003123F08072BB681B06D8
S11303E005491343C1F8003100BF1037BD4680BD35
S11303F00048E8010090D00300400E4080B483B070
S113040000AF054B1B687B607B6818460C37BD4604
S11304105DF8047B704700BF1000002080B582B0F7
S113042000AFFFF7EDFE7860064BD3F800311B0AEE
S113043003F01F0301337A6802FB03F318460837FD
S1130440BD4680BD00400E4080B582B000AF0D486F
S113045000F0B2FA0346FB70FB78072B05D0092B9A
S113046007D1FFF7CDFE786006E0FFF7C7FF78609D
S113047002E000237B6000BF7B6818460837BD4656
S113048080BD00BF06000C0080B584B000AF78606A
S11304907B68002B1CD11B4800F08EFA0346FB72CC
S11304A000BFFB7A013B072B23D801A252F823F0AB
S11304B0D5040000F3040000F3040000E30400008A
S11304C0F3040000F3040000DB040000EB0400006C
S11304D0002312E00023FB600EE0FFF78FFFF860BB
S11304E00AE0FFF7C5FEF86006E0FFF797FFF86043
S11304F002E00023FB6000BFFB6818461037BD46CE
S113050080BD00BF98002E0080B485B000AF786035
S113051039601A4B1B6C002B14BF01230023FB72A0
S1130520164B41F671321A64144B5B6803F0407346
S1130530FB607B68124A934202D80023FB6005E00B
S11305407B68104A934201D80123FB60FB681B06B9
S1130550FB600A4B5B6823F040720849FB68134355
S11305604B60FB7A002B02D0044B00221A6400BFBC
S11305701437BD465DF8047B704700BF00000E4091
S113058080BA8C01005A620280B500AFFFF72EFEDC
S1130590034600211846FFF7B7FF00BF80BD80B5B2
S11305A082B000AF7860396039687868FFF7ACFFD3
S11305B000BF0837BD4680BD80B487B000AF786007
S11305C00F237B617B6803333B617B69FB60FA68C3
S11305D03B69934228BF1346BB60BB681B07BB60E3
S11305E0BB6818461C37BD465DF8047B70470000A5
S11305F080B400AF044B5B6A03F030031846BD4679
S11306005DF8047B704700BF00400E4080B483B0A7
S113061000AF7860064B5B6A23F0300204497B68C4
S113062013434B6200BF0C37BD465DF8047B704733
S113063000400E4090B585B000AF78600023BB60E9
S11306407B68334A934206D0324A934203D0324AFB
S1130650934200D000E000BF786800F0ADF9034693
S1130660FB607B682A4A93420DD02A4A934211D0F8
S1130670294A934200D014E0284BD3F8803003F089
S11306800703FB600DE0254BD3F8843003F0070328
S1130690FB6006E0214BD3F8883003F00703FB60CE
S11306A000BFFB68042B2ED801A252F823F000BF30
S11306B001070000C5060000CD060000DD060000AD
S11306C0D5060000FFF710FEB8601CE0FFF71EFE21
S11306D0B86018E0FFF711FEB86014E0FFF766FD9C
S11306E004460E4BD3F800311B0E03F00103013313
S11306F01846FFF743FE0346B4FBF3F3BB6002E086
S11307000023BB6000BFBB6818461437BD4690BDCC
S113071003001C000500200002001A0000400E40E7
S113072080B483B000AF78600A4BD3F8443103F04F
S11307300103002B08D100BF064BD3F840217B688E
S11307401340002BF8D100E000BF0C37BD465DF824
S1130750047B704700400E4080B586B000AF7860DF
S11307600B46FB7000233B617B681B0A03F00F03FD
S1130770013B092B44D801A252F823F0A50700003D
S1130780B10700000108000001080000AB070000E9
S1130790B7070000C107000001080000CB070000F4
S11307A0D7070000184B7B6118E0184B7B6115E0FC
S11307B0174B7B6112E0174B7B6101233B610DE01A
S11307C0154B7B6110233B6108E0144B7B614FF4B4
S11307D080333B6102E0124B7B6100BF7B681B0BE3
S11307E003F01F03FB603B69002B02D03869FFF75D
S11307F097FFFB781A46F9687869FFF793FD00E0E4
S113080000BF1837BD4680BD00400E40B0400E40CA
S1130810C0400E40E0400E40E8400E40F0400E4024
S113082050410E4080B584B000AF78607B6803F41B
S11308307813B3F5602F00F0A580B3F5602F16D8B8
S1130840B3F5802F31D0B3F5802F05D8002B28D0F5
S1130850B3F5003F3CD09EE0B3F5202F47D0B3F56D
S1130860402F00F08B80B3F5002F2DD093E0B3F52B
S1130870D01F4BD0B3F5D01F09D8B3F5A01F4FD06C
S1130880B3F5B01F63D0B3F5901F44D083E0B3F544
S1130890001F6ED0B3F5381F78D0B3F5E01F51D0E8
S11308A079E0FFF7ADFCF86078E0FFF7A9FCF860A9
S11308B03D4BD3F80C311B0AC3F308030133FA6828
S11308C0B2FBF3F3FB6069E0FFF79AFCF86065E0C4
S11308D0FFF796FCF860344BD3F808311B0AC3F3D6
S11308E008030133FA68B2FBF3F3FB6056E0FFF749
S11308F087FCF8602C4BD3F814311B0A03F01F0358
S11309000133FA68B2FBF3F3FB6047E02748FFF7D3
S113091091FEF86042E02648FFF78CFEF8603DE067
S11309202248FFF787FEF8601F4BD3F8203103F00D
S11309300F031846FFF722FD0246FB68B3FBF2F3F0
S1130940FB602BE01B48FFF775FEF86026E01948B2
S1130950FFF770FEF860144BD3F8283103F003035B
S11309601846FFF70BFD0246FB68B3FBF2F3FB608E
S113097014E00F48FFF75EFEF8600FE0FFF764FD38
S1130980F8600BE0FFF73AFDF86007E00020FFF79E
S11309907BFDF86002E00023FB6000BFFB681846A3
S11309A01037BD4680BD00BF00400E4002001A0053
S11309B00500200003001C0080B485B000AF7860FF
S11309C00123FB737B6803F00F03BB60BB68013B2F
S11309D0072B00F2AD8001A252F823F0FD090000BC
S11309E02F0A00005F0A0000310B0000A50A000076
S11309F0D50A0000310B0000F50A0000514BD3F872
S1130A00943003F00703032B07D0042B02D0022BEE
S1130A1006D008E00223FB7308E00323FB7305E020
S1130A200423FB7302E00523FB7300BF83E0454B03
S1130A30D3F8803003F00703022B06D0042B07D031
S1130A40012B08D10323FB7308E00223FB7305E0A9
S1130A500A23FB7302E00123FB7300BF6BE0394BF5
S1130A60D3F8843003F00703013B032B16D801A20B
S1130A7052F823F0850A00008B0A0000970A000050
S1130A80910A00000323FB730BE00223FB7308E0CD
S1130A900A23FB7305E00623FB7302E00123FB73C7
S1130AA000BF48E0274BD3F8883003F00703022B3C
S1130AB006D0042B07D0012B08D10323FB7308E0D5
S1130AC00223FB7305E00A23FB7302E00123FB739B
S1130AD000BF30E01B4B1B6F03F00103002B05D05C
S1130AE0012B00D027E00923FB7302E00723FB73EB
S1130AF000BF20E0134BD3F85C3103F03003102B1C
S1130B000CD0102B02D8002B05D014E0202B08D0D9
S1130B10302B09D00FE00123FB7308E00723FB739C
S1130B2005E00423FB7302E00823FB7300BF02E02B
S1130B300023FB7300BFFB7B18461437BD465DF8EA
S1130B40047B704700400E4080B588B000AF7860E9
S1130B500B46FB700323FB610323FB7600233B61FD
S1130B607B6803F00F03FB60FB68013B072B00F27B
S1130B70038101A252F823F0990B0000350C000008
S1130B80510C0000790D0000430C0000E90C00003A
S1130B90790D0000070D0000FB78023B082B00F2E2
S1130BA0ED8001A252F823F0CD0B0000D70B00001A
S1130BB0E10B0000F10B00007D0D00007D0D000035
S1130BC07D0D00007D0D00007D0D00000423FB6100
S1130BD00023FB7614E00323FB610123FB760FE083
S1130BE00223FB610223FB766848FFF7D5FB07E08D
S1130BF00123FB610323FB766448FFF7CDFB00BFB1
S1130C00FB7E01220121184600F0CEF8FFF7BCFC60
S1130C105F4AFB6953675F48FFF704FE03461846C3
S1130C20FFF7BAFBFFF7C2FAB8600021B868FFF714
S1130C30B6FCA8E03B69002B01D03B6900E0564BB1
S1130C403B613B69002B01D03B6900E0534B3B61A6
S1130C503B69002B01D03B6900E0514B3B61FB78C1
S1130C60013B092B00F28C8001A252F823F000BF53
S1130C70990C00009F0C0000AF0C0000810D0000D7
S1130C80810D0000BF0C0000810D0000810D0000EB
S1130C90810D0000DB0C000000237B6120E00122B9
S1130CA00121002000F080F802237B6118E001227A
S1130CB00121012000F078F801237B6110E0FFF7A7
S1130CC075FA03461846FFF767FB012200213548F1
S1130CD0FFF728FB03237B6102E004237B6100BF51
S1130CE03B697A691A604EE0FB78072B02D0092B26
S1130CF004D048E0264B00221A6703E0244B01226B
S1130D001A6700BF3FE0FB78013B072B3AD801A2EA
S1130D1052F823F0350D0000850D0000850D00000C
S1130D204B0D0000850D0000850D00003B0D0000FB
S1130D305B0D000000237B6112E0012201210420ED
S1130D4000F032F801237B610AE001220121022034
S1130D5000F02AF802237B6102E003237B6100BFD9
S1130D600B4BD3F85C3123F030027B691B0108493B
S1130D701343C1F85C3106E000BF04E000BF02E0A9
S1130D8000BF00E000BF2037BD4680BD0148E80138
S1130D9000400E400005080080400E4088400E4090
S1130DA084400E40B0400E4080B588B000AF03468A
S1130DB0FB710B46BB7113467B71FB79042B00F26C
S1130DC0A58001A252F823F0250E0000130E0000A6
S1130DD0EF0D0000DD0D0000010E000001237B611A
S1130DE002233B610123FB610023BB6125E0042353
S1130DF07B6108233B610323FB610223BB611CE08D
S1130E0010237B6120233B610523FB610423BB6129
S1130E1013E040237B6180233B610723FB610623AE
S1130E20BB610AE04FF480737B614FF400733B6154
S1130E300923FB610823BB6100BFBB79002B59D098
S1130E400023FB73FB79022B0FD1FFF7D1FB034681
S1130E50002B0AD10123FB732E4B5B6A03F00103C1
S1130E60012B02D10120FFF7D1FB2A4A7B691366CB
S1130E7000BFB9692848FFF76CFA0346002BF8D085
S1130E807B79002B43D000BFF9692348FFF761FA4F
S1130E900346002BF8D0FB79022B38D1FB7B002BC7
S1130EA035D01C4B5B6A03F00103012B05D10122F1
S1130EB02021022000F036F903E00021022000F096
S1130EC0E7F8022000F02AF8B8600122002102208D
S1130ED0FFF76AFFB968022000F05AF80D4A7B69EF
S1130EE0136600BFF9690C48FFF733FA0346002B79
S1130EF0F8D00CE0074A3B69136600BFB96906489D
S1130F00FFF727FA0346002BF8D100E000BF203793
S1130F10BD4680BD00400E4090400E4080B485B078
S1130F2000AF0346FB71FB79013B032B23D801A2DD
S1130F3052F823F0450F0000690F0000510F000024
S1130F405D0F0000114B1B6AC3F30803FB6015E03F
S1130F500E4B1B6903F07F03FB600FE00B4B9B6997
S1130F6003F07F03FB6009E0084BD3F89C30C3F324
S1130F700A03FB6002E00023FB6000BFFB68184625
S1130F801437BD465DF8047B704700BF00400E4037
S1130F9080B584B000AF03463960FB71FB79013B37
S1130FA0032B6AD801A252F823F000BFBD0F000042
S1130FB03F100000EB0F0000151000003B68C3F366
S1130FC008033B6000BF1A212E48FFF7C2F903460D
S1130FD0002BF8D12C4B1B6A23F4FF7323F001037D
S1130FE029493A6813430B6248E03B6803F07F03E6
S1130FF03B6000BF18212348FFF7ABF90346002BE1
S1131000F8D1214B1B6923F07F021F493B6813432E
S11310100B6133E03B6803F07F033B6000BF1921A1
S11310201848FFF796F90346002BF8D1164B9B6935
S113103023F07F0214493B6813438B611EE0124B7B
S1131040D3F89030104B5B6A23F030030E4A43F020
S1131050100353623B68DB0903F00F031846FFF7E4
S1131060ABFAF860084B1A6B084B13403A681A4302
S11310700549FB6813430B6300E000BF00BF103752
S1131080BD4680BD40410E4000400E4000F8FF0FB9
S113109080B584B000AF03460A46FB711346BB71AA
S11310A0FFF7A6FA0346002B03D14FF44003FB607D
S11310B015E0BB79202B04D0302B0AD0002B04D0B0
S11310C00BE04FF40003FB6009E04FF44003FB60C6
S11310D005E04FF44003FB6001E0104BFB6000BFF0
S11310E00F4BD3F89020FB681340FA689A42F7D16B
S11310F0FB6803F48003002B0AD0094BD3F8A0301B
S113110003F48063002B14BF01230023DBB200E04F
S1131110012318461037BD4680BD00BFFF03E10719
S113112000400E4080B582B000AF0346FB710B4611
S1131130BB7113467B71FB79022B16D1BB79002B53
S113114007D00C4B4FF48062C3F8A820094ABB793E
S113115053667B79002B07D0BA79FB791146184680
S1131160FFF796FF034601E000BF01231846083746
S1131170BD4680BD00400E4080B483B000AFEFF3A5
S113118010833B603B687B6072B67B6818460C3703
S1131190BD465DF8047B704780B483B000AF7860CF
S11311A07B68002B00D162B600BF0C37BD465DF8EA
S11311B0047B704780B500AFFEF7F8FF00BF80BD29
S11311C080B400AF044B0022C3F8802100BFBD46A9
S11311D05DF8047B704700BF00400E4080B400AF50
S11311E0044B45F60E02C3F8802100BFBD465DF8EE
S11311F0047B704700400E4080B584B000AF0346C6
S1131200FB71FB79002B0CD12D4BD3F890302D4A78
S113121013601120FFF7D0FB03461A462A4B1A70BD
S11312204AE0FB79012B47D1254BD3F8803103F0F9
S11312300103FB60FFF7D2FF0023BB60214B1B6857
S113124003F00103BA681343BB601E4B1B6803F031
S11312501003BA681343BB601A4B1B6803F04003C6
S1131260BA681343BB60174B1B6803F00403BA68E6
S11312701343BB60134B1B6803F48073BA681343B6
S1131280BB600F4ABB6813660F4B1B78052B05D058
S11312900D4B1B7819461120FFF756FC094B1B68B0
S11312A003F00103002B02D1054B02221A66FB68EE
S11312B0002B01D0FFF784FF00BF1037BD4680BD6F
S11312C000400E40140200201802002080B584B0B3
S11312D000AF0346FB71FB79002B12D00E4BDB6C85
S11312E00E4A13600C4BDB6C23F47F43FB60FB68FA
S11312F043F4EE43FB60084AFB68D36400F060F8F3
S113130005E0054A054B1B68D36400F059F800BF9B
S11313101037BD4680BD00BF00300E401C020020C7
S113132080B400AF0E4B1B78012B03D00C4B1B7801
S1131330022B0FD10B4B1B6C03F00303012B06D1C3
S113134000BF094B1B6803F48033002BF9D0044B16
S113135003221A7000BFBD465DF8047B704700BFCE
S11313600C02002000300E407C300E4080B582B06C
S113137000AF0346FB71FB79002B02D00020FFF77E
S11313803BFF0E4B1B690D4A43F00403136101201C
S1131390FFF79CFFFFF7C4FF30BF0020FFF796FF65
S11313A0FB79002B03D00120FFF726FF01E0FFF7B4
S11313B001FF00BF0837BD4680BD00BF00ED00E05F
S11313C080B48BB000AF01237B627B6A1B053B6258
S11313D0344BDB6C1B0A03F00F03FB61324B1B889D
S11313E003F12802304B1B882833D90F0B445B10C0
S11313F013441946FB695A1C13469B001344B1FB62
S1131400F3F3013BBB61BB697B6107233B613A6931
S11314107B69934228BF1346BB61BB691B06BB6152
S1131420204BDB6C23F0EE62B9693B6A0B431D4928
S11314301343CB641D4BB3F90030002B2CDB1B4B47
S1131440B3F90030FB81FB8903F12802FB892833BF
S1131450D90F0B445B1013441946FB6901335A003E
S1131460FB6901335B081344B1FBF3F3BB60BB6856
S11314707B6007233B603A687B68934228BF13462E
S1131480BB60BB681B01BB60064B1B6D23F0700285
S11314900449BB6813430B6500BF2C37BD465DF898
S11314A0047B704700300E400E0200201002002022
S11314B080B485B000AF786039607B6803F1C063A5
S11314C0FB60FB683A681A6000BF1437BD465DF8DC
S11314D0047B704780B485B000AF786039607B6866
S11314E003F18063FB60FB683A681A6000BF14373D
S11314F0BD465DF8047B704780B582B000AF0346FB
S11315003960FB71FB79002B0DD0FB79012B0AD0DC
S1131510FB79022B07D0FB79032B04D0FB79042B36
S113152001D0FB79052BFA7913465B0013441B01A8
S11315300C3303F1804303F5204301213A6801FA97
S113154002F211461846FFF7C5FF00BF0837BD4633
S113155080BD80B582B000AF03463960FB71FB7972
S1131560002B0DD0FB79012B0AD0FB79022B07D07D
S1131570FB79032B04D0FB79042B01D0FB79052BD9
S1131580FA7913465B0013441B010C3303F18043C7
S113159003F5204301213A6801FA02F21146184684
S11315A0FFF786FF00BF0837BD4680BD80B584B015
S11315B000AFB9607B600346FB731346BB73FB7BD0
S11315C0002B0DD0FB7B012B0AD0FB7B022B07D019
S11315D0FB7B032B04D0FB7B042B01D0FB7B052B73
S11315E0BB7B002B0DD07B68002B05D0FB7BB9683F
S11315F01846FFF7AEFF04E0FB7BB9681846FFF717
S11316007BFFBB68072B20D82D49FA7B13465B0070
S113161013441B010B4404331A68BB689B000F215D
S113162001FA03F3DB431340B97BBA68920001FA71
S113163002F211462248FA7B194313465B00134415
S11316401B0103440433196025E01D49FA7B13464A
S11316505B0013441B010B4408331A68BB6803F195
S11316608043083B9B000F2101FA03F3DB4302EAAA
S11316700301BA7BBB6803F18043083B9B0002FA79
S113168003F30F48FA7B194313465B0013441B0111
S1131690034408331960BB7B002B0DD17B68002BFE
S11316A005D0FB7BB9681846FFF753FF04E0FB7BCA
S11316B0B9681846FFF720FF00BF1037BD4680BD4C
S11316C000A0004080B487B000AFF860B9607A60D1
S11316D0FB68104A934207D1BB68012B04D87B688E
S11316E01B0C1B04002B00BFBB68002B02D0012B7A
S11316F004D00AE0FB6810337B6103E0FB68143319
S11317007B6100BF7B697A681A601C37BD465DF84F
S1131710047B70470060044080B485B000AF7860FB
S113172039600023FB603B681B7883F00103DBB264
S1131730002B08D07B689B6803F00103002B02D0C8
S11317407B6802225A603B685B78002B03D0FB68FD
S113175043F48053FB603B689B78002B03D0FB6809
S113176043F40073FB603B68DB78002B03D0FB6819
S113177043F48073FB603B681B79002B03D0FB6848
S113178043F04003FB603B685B79002B03D0FB68AC
S113179043F08003FB603B689B799B001A46FB681F
S11317A01343FB603B68DB791B011A46FB68134358
S11317B0FB603B681B7A1A46FB681343FB607B683B
S11317C0FA681A603B681B78002B08D07B689B681A
S11317D003F00103002B02D17B6801225A6000BF91
S11317E01437BD465DF8047B7047000080B487B0B1
S11317F000AFF860B9607A60FB68104A934207D181
S1131800BB68012B04D87B6823F0FF03002B00BFC7
S1131810BB68002B02D0012B04D00AE0FB6818330C
S11318207B6103E0FB681C337B6100BF7B697A68E2
S11318301A601C37BD465DF8047B704700600440A5
S113184080B485B000AF7860194B5B69DBB29B0054
S1131850DBB203F03C03FB73154B1B699B0903F0DC
S11318600303DAB2FB7B1343FB737B68FA7B9A7046
S11318700F4B1B69DBB203F03F03DAB27B685A708B
S11318800B4B9B691B09DBB21B01FB73084BDB6928
S11318901B0903F00F03DAB2FB7B1343FB737B6872
S11318A0FA7B1A7000BF1437BD465DF8047B70479D
S11318B0D0FF0FE080B586B000AFF860B9607A6001
S11318C0FB70BB68002B03D12448FEF7ABFFB86064
S11318D0FB78202B0CD0202B02DC002B05D03AE027
S11318E0402B08D0602B09D035E010237B6108E041
S11318F008237B6105E006237B6102E004237B610E
S113190000BFBB685A017B69796801FB03F35B087C
S113191013443B617B697A6802FB03F33A69B2FBC7
S1131920F3F33B613B69203B3B613B69DB003B617B
S11319303A690B4B13403B61FB681B6823F0600260
S1131940FB681A60FB681A68FB781A43FB681A6024
S1131950FB683A695A611837BD4680BD40410500AD
S1131960F8FF7F0080B586B000AFF860B9607A6098
S1131970BB68002B03D10A48FEF754FFB860BB686C
S11319805A1E7B685B00B2FBF3F37B617B691B022D
S11319907B61FB687A695A6100BF1837BD4680BD18
S11319A04041050080B485B000AF78600B46FB7001
S11319B07B680D4A934202D07B680C4A934200BF75
S11319C0FB78DB43FB60FB6803F00503FB60FB680B
S11319D05A007B68DA60FA787B68DA6000BF1437F3
S11319E0BD465DF8047B70470000014000040140DF
S11319F080B582B000AF786039607B68294A934231
S1131A0002D07B68284A934200BF786800F0C4F88B
S1131A103B689B7C002B05D07B681B6843F08042AD
S1131A207B681A603B68DB7C002B07D03B681B7D1E
S1131A3063F07F03DBB21A467B689A653B685B7B85
S1131A401A463B681B8A13433A68D2891A437B6857
S1131A505A603B6859683B689A683B681B7B7868A6
S1131A60FFF728FF3B689B7D1B0703F0E0423B68C0
S1131A70DB7D1B0503F4E0031A437B681A663B68AD
S1131A805B7D002B05D07B681B6843F480327B6848
S1131A901A603B681B781A467B68DA6000BF083717
S1131AA0BD4680BD000001400004014080B582B005
S1131AB000AF786039607B68354A934202D07B6816
S1131AC0344A934200BF786800F066F87B681A686D
S1131AD03B681B8A43F001039BB219463B689B7B1E
S1131AE0002B02D04FF4806300E000230B431A4321
S1131AF07B681A607B681B683A68127D002A02D0F2
S1131B004FF0005200E000221A437B681A603B68E1
S1131B109B7C002B07D03B68DB7C63F07F03DBB24C
S1131B201A467B689A653B681B7B43F480527B684A
S1131B305A603B6859683B689B681A467868FFF7A7
S1131B4011FF3B685B7B002B02D07B681022DA60BC
S1131B503B689B7D1B0703F0E0423B68DB7D1B0574
S1131B6003F4E0031A437B681A663B685B7D002B31
S1131B7005D07B681B6843F480327B681A603B683D
S1131B801B781A467B68DA6000BF0837BD4680BD03
S1131B90000001400004014080B483B000AF7860CD
S1131BA07B681F4A934202D07B681E4A934200BF5F
S1131BB07B6840F6AA62DA607B6800221A607B6860
S1131BC041F205025A607B6800229A607B68002219
S1131BD05A617B680022DA647B68134A9A647B68E2
S1131BE000225A677B6800229A677B680022DA67C2
S1131BF07B680B4A934202D17B6800221A657B689A
S1131C0000229A657B68074A934202D17B680022CE
S1131C10DA6500BF0C37BD465DF8047B704700BF32
S1131C200000014000040140F9FF010080B483B0CA
S1131C3000AF786000BF7B681B6903F08003002B52
S1131C40F9D07B68DB69DBB218460C37BD465DF81A
S1131C50047B704780B483B000AF78600B46FB70A0
S1131C6000BF7B681B6903F04003002BF9D0FA78AE
S1131C707B685A6300BF7B681B6903F02003002B59
S1131C80F9D07B68DB69DBB218460C37BD465DF8DA
S1131C90047B704780B483B000AF78600B46FB7060
S1131CA000BF7B681B6903F04003002BF9D0FA786E
S1131CB07B685A6300BF0C37BD465DF8047B7047F0
S1131CC080B582B000AF47233B7100237B710023B2
S1131CD0BB7100233B7000237B700023BB700B4B54
S1131CE01B783A46391D032001F09CFA7B784F2B70
S1131CF006D1BB781B09DBB20D2B01D1012300E017
S1131D00002318460837BD4680BD00BF20020020CE
S1131D1080B58AB000AF002387F82430002387F809
S1131D202530002387F826303D4A07F12003126846
S1131D30114619800233120C1A7011233B770023C9
S1131D407B770023BB7712233B7600237B7600232B
S1131D50BB7613233B7500237B750023BB75314B86
S1131D601B7807F1240207F12001032001F05AFA3D
S1131D702C4B1B7807F1240207F11C01032001F00E
S1131D8051FA284B1B7807F1240207F118010320AC
S1131D9001F048FA234B1B7807F1240207F11401E0
S1131DA0032001F03FFA204A07F11003126811469C
S1131DB019800233120C1A701A4B1B7807F1240293
S1131DC007F11001032001F02DFA184A07F10C0362
S1131DD01268114619800233120C1A70114B1B78C9
S1131DE007F1240207F10C01032001F01BFA002380
S1131DF0BB600F4A3B1D1268114619800233120C56
S1131E001A70084B1B7807F12402391D032001F0D6
S1131E1009FA00F0EFF800BF2837BD4680BD00BFC7
S1131E20906A000020020020946A0000986A000072
S1131E309C6A00000000000090B58FB000AF07F16D
S1131E40080300221A605A602B4A3B4692E80300BA
S1131E5083E8030000237B63284B1B7807F1080207
S1131E603946082001F032FABB7B87F833303B7BDC
S1131E701A067B7B1B041A44BB7B1B021344FA7BAC
S1131E8013447B6318A4D4E90034C7E90A34786B9B
S1131E9001F0C8FB4FF00002194B01F087FA03462A
S1131EA00C4618462146D7E90A2301F05FFD034694
S1131EB00C46C7E908340EA4D4E90034C7E9063453
S1131EC0D7E90623D7E9080101F026FC03460C46AE
S1131ED0C7E90434D7E90434184621463C37BD46E3
S1131EE090BD00BFAFF30080000000405555054091
S1131EF0ABAAAAAAAAAA1A3EA06A0000200200203D
S1131F000000F03F0000000090B587B000AF002350
S1131F103B7300237B730023BB73334A07F108032D
S1131F201268114619800233120C1A702F4B1B7859
S1131F3007F10C0207F10801032001F073F97B7B20
S1131F40FB753B7BBB752A4A3B1D12681146198001
S1131F500233120C1A70254B1B7807F10C02391D41
S1131F60032001F05FF9FFF767FF03460C461846AC
S1131F70214601F0E3FD03463B61386901F074FB3F
S1131F8015A3D3E9002301F0F1FC03460C461846DF
S1131F90214613A3D3E9002301F006FA03460C46B5
S1131FA01846214601F0CAFD03463B6110233B72EB
S1131FB0FB7D7B72BB7DBB720C4B1B7807F10C0263
S1131FC007F10801032001F02DF93B6918461C377D
S1131FD0BD4690BDAFF3008021020EA14ACD3E3F25
S1131FE06666666666127140A86A000020020020D8
S1131FF0AC6A000080B584B000AF0023FB600D4BD9
S11320001B68BB600C4B1B7807F10C0207F108013D
S1132010042001F007F9094B1B687B60064B1B7811
S113202007F10C02391D042001F0FCF800BF103741
S1132030BD4680BDB06A000020020020B46A0000E2
S113204080B586B000AF2E4B1B6EFB602C4BDB6E55
S1132050FA681340FB60FB68002B00DAFEE70023FC
S11320607B6101233B6144E0FA683B691340002B28
S113207039D0234A3B6993667B691B01214A134487
S1132080BB60BB681B68002B2DD0BB689B685A1CC7
S1132090BB689A60BB681B68BA689168BA68526882
S11320A0786998470346002B0CBF01230023FB717A
S11320B0BB685B7B012B16D1FB79002B13D0124A32
S11320C07B695B01134403F1080213796FF3410345
S11320D013710D4A7B695B01134403F118021379F0
S11320E06FF3410313717B6901337B613B695B00CF
S11320F03B617B69072BB7D900BF1837BD4680BD4C
S113210000200E4024020020A402002080B483B0EA
S113211000AF0346FB71FB7903F01F02074997F9EF
S113212007305B09012000FA02F241F8232000BFC6
S11321300C37BD465DF8047B704700BF00E100E04A
S113214080B483B000AF0346FB71FB7903F01F0238
S1132150074997F907305B09012000FA02F220339E
S113216041F8232000BF0C37BD465DF8047B70475F
S113217000E100E080B483B000AF0346FB71FB795B
S113218003F01F02074997F907305B09012000FAA1
S113219002F2603341F8232000BF0C37BD465DF8DE
S11321A0047B704700E100E080B400AF044BDB6CBB
S11321B01B0EDBB21846BD465DF8047B704700BFBA
S11321C0B081E00F80B487B000AFF860B9607A6086
S11321D0FB6803F10473DA00BB6813449B007B6162
S11321E07B697A681A6000BF1C37BD465DF8047BC2
S11321F0704780B485B000AF786039607B6803F1C4
S1132200C063FB60FB683A681A6000BF1437BD46C0
S11322105DF8047B704780B485B000AF78603960A6
S11322207B6803F18063FB60FB683A681A6000BF57
S11322301437BD465DF8047B704780B582B000AFAB
S113224003463960FB71FB79002B0DD0FB79012B20
S11322500AD0FB79022B07D0FB79032B04D0FB793E
S1132260042B01D0FB79052BFA7913465B00134448
S11322701B010C3303F1804303F5204301213A6829
S113228001FA02F211461846FFF7C5FF00BF0837EE
S1132290BD4680BD80B582B000AF03463960FB7196
S11322A0FB79002B0DD0FB79012B0AD0FB79022B93
S11322B007D0FB79032B04D0FB79042B01D0FB79E5
S11322C0052BFA7913465B0013441B010C3303F10D
S11322D0804303F5204301213A6801FA02F21146D2
S11322E01846FFF786FF00BF0837BD4680BD0000D3
S11322F080B586B000AF4FF050133B610023FB6004
S1132300FFF752FF0346FB723B461846FFF798FA65
S1132310FB7A8E2B22D8204BD3F8B0307B601E4A38
S11323207B6843F00403C2F8B03000237B610EE005
S11323301A483A69FB6842EA03017A6913465B006A
S113234013441B01034419607B6901337B617B697E
S1132350052BEDD9104A7B68C2F8B030FB7A8F2B7D
S113236007D80D4BDB6A23F07F030B4A43F02003AD
S1132370D3627B78012B05D1094B1B68084A43F0D3
S11323800403136000220D210648FFF71BFF00BF62
S11323901837BD4680BD00BF00400E4000A000407D
S11323A064310E4054300E4080B483B000AF786086
S11323B039607B683A689A6200BF0C37BD465DF8A5
S11323C0047B704780B483B000AF786039607B6869
S11323D0DA6A3B681A437B68DA6200BF0C37BD4691
S11323E05DF8047B70470000B0B586B000AF0121F2
S11323F02B48FEF7B1F901212A48FEF7ADF9012176
S11324002948FEF7A9F9294B3C461D460FCD0FC4B8
S113241095E8030084E803004FF440733B820123F2
S1132420BB7300237B753B4619462148FFF73EFBEF
S11324301F4B0B225A671E4B1E4A9A670123042224
S113244009210220FFF7B2F8012304220A21022005
S1132450FFF7ACF80123042206210220FFF7A6F8B7
S11324600023012207210220FFF7A0F80123042200
S113247008210220FFF79AF80D4BDB680C4A43F45D
S11324800063D3600A4BDB68094A43F48063D3607A
S113249005210748FFF786FA00BF1837BD46B0BDCF
S11324A0002508000032040040410500B86A00001D
S11324B0000401400B0B000B80B582B000AF7860C4
S11324C07B68032B2ED801A252F823F0DD240000F0
S11324D0EF24000001250000132500000A2102203A
S11324E0FFF7ABFE0B210220FFF7A7FE1AE00A213B
S11324F00220FFF7CFFE0B210220FFF79EFE11E022
S11325000A210220FFF799FE0B210220FFF7C2FEE9
S113251008E00A210220FFF7BDFE0B210220FFF78D
S1132520B9FE00BF00BF0837BD4680BD80B500AF0F
S113253001210C48FFF738FF0B4B1B680E2B05D805
S1132540094B1B680133084A136008E0074B01225A
S11325501A60054B00221A601A20FFF7F1FD00BF34
S113256080BD00BF00600440A4030020A803002035
S113257080B584B000AF01211C48FEF7EDF80221BC
S11325801B48FEF7E1FA01211A48FEF7E5F818485E
S1132590FEF748F9F8603B4600221A605A601A7246
S11325A001233B700123BB700023BB7100233B72EA
S11325B0012200211048FFF719F9FA6800210E489A
S11325C0FFF780F83B4619460B48FFF7A5F80121B1
S11325D00948FFF7F7FE1A20FFF7CCFD1A20FFF792
S11325E095FD00BF1037BD4680BD00BF0005080043
S11325F002001A00600614000060044090B593B015
S113260000AFFFF775FEFFF7EFFE00F013FA49483D
S113261002F0C8FAFFF7ACFF474B00221A60002310
S113262004220A210220FEF7C1FF002304220B2109
S11326300220FEF7BBFF0023042206210520FEF73B
S1132640B5FFFFF73DFB034687F8473097F847305F
S1132650002B0BD00123042206210520FEF7A6FF40
S1132660364802F02BFAFFF753FB02E0344802F03D
S113267025FA314B1B68012B58D10020FFF71CFFB2
S1132680FFF746FBFFF7D8FBC7E90E010120FFF770
S113269013FFFFF73DFBFFF7CFFBC7E90C01022057
S11326A0FFF70AFFFFF734FBFFF7C6FBC7E90A0190
S11326B0FFF72AFC7862D7E90E34C7E90034D7E97A
S11326C00C34C7E90234D7E90A34C7E904347B6A15
S11326D0BB611C4B1B68FB611A4B1B6819461A48EB
S11326E002F0ECF9D7E90E23184802F0E7F9D7E92C
S11326F00C23174802F0E2F9D7E90A23154802F03F
S1132700DDF9786A00F0B0FF03460C461A4623460A
S1132710114802F0D3F90B4B1B680133094A1360CB
S1132720054B00221A601A20FFF7F0FC0120FEF787
S11327301DFE9EE7D06A0000A8030020E06A0000A6
S1132740046B000014000020246B0000386B0000B0
S1132750486B0000586B0000686B000080B483B0C5
S113276000AF7860002318460C37BD465DF8047B43
S1132770704780B483B000AF7860FEE780B483B064
S113278000AF786039603B684FF400525A60002310
S113279018460C37BD465DF8047B704780B483B09F
S11327A000AF7860012318460C37BD465DF8047B02
S11327B0704780B485B000AFF860B9607A600023D8
S11327C018461437BD465DF8047B704780B586B063
S11327D000AFF860B9607A6000237B610FE000F01D
S11327E097F938613B69B3F1FF3F0ED0BB685A1CBF
S11327F0BA603A69D2B21A707B6901337B617B6833
S11328005A1E7A60002BEAD100E000BF7B69002BDE
S113281002DC4FF0FF3300E07B6918461837BD46F1
S113282080BD000090B585B000AF7860184B1B6880
S1132830002B02D1164B174A1A60154B1B68FB601C
S1132840134B1A687B681344EFF30882144622463C
S1132850934212D9104B1B689B68184601F052FB37
S113286004460E4802F0A7FA03461A460B492046CE
S113287000F016F8012001F031FB054B1A687B6863
S11328801344034A1360FB6818461437BD4690BDD1
S1132890AC0300208004002018000020846B00009A
S11328A080B586B000AFF860B9607A6000237B61C0
S11328B009E0BB685A1CBA601B78184600F068F936
S11328C07B6901337B617A697B689A42F1DB7B68BF
S11328D018461837BD4680BD80B483B000AF0346A8
S11328E0FB71FB7903F01F02074997F907305B0975
S11328F0012000FA02F241F8232000BF0C37BD4644
S11329005DF8047B704700BF00E100E080B483B051
S113291000AF0346FB71FB7903F01F02074997F9E7
S113292007305B09012000FA02F2603341F82320EA
S113293000BF0C37BD465DF8047B704700E100E042
S113294080B483B000AF786039607B683A689A6479
S113295000BF0C37BD465DF8047B704780B483B07C
S113296000AF786039607B68DA6C3B68DB431A40FF
S11329707B68DA6400BF0C37BD465DF8047B7047A2
S113298080B483B000AF786039607B68DA6C3B68F0
S11329901A437B68DA6400BF0C37BD465DF8047BDC
S11329A07047000080B500AF04210248FFF7D6FF4E
S11329B000BF80BD0000014080B500AF0421024883
S11329C0FFF7DEFF00BF80BD0000014098B500AFF7
S11329D0144B1B6903F08003002B20D0124B1B689F
S11329E0072B1ADC114B1C680E48FFF71FF903462E
S11329F01A460F4B1A550D4B1B6801330B4A1360D3
S1132A00094B1B680133084A1360084B1B68082BE9
S1132A1005D1064B00221A6001E0FFF7C3FF00BF97
S1132A2098BD00BF00000140B8030020B40300209B
S1132A30BC030020B0B588B000AF01212D48FDF7DC
S1132A408BFE01212C48FDF787FE0123042200217F
S1132A500020FEF7ABFD0023012201210020FEF738
S1132A60A5FD264BFB61264B3C1D1D460FCD0FC417
S1132A7095E8030084E803000123042205210020D3
S1132A80FEF794FD01211F48FDF766FE00233B710C
S1132A903B1D1946F869FEF7ABFFFB6903225A6731
S1132AA0FB699B6F23F4F85323F01F03FA699367C0
S1132AB004211248FFF744FF0B20FFF727FF0421EE
S1132AC00E48FFF75DFF0B20FFF706FF0521F869AD
S1132AD0FEF768FF0C4B1B68986800230222002154
S1132AE002F078F8094B01221A7000BF2037BD4666
S1132AF0B0BD00BF404105000025080000000140B2
S1132B00A06B00000022040018000020C503002070
S1132B1080B582B000AF4FF0FF337B60184B1B7859
S1132B2083F00103DBB2002B01D0FFF783FFFEF734
S1132B3023FB3860134B1B68002B18DD124B1B68FA
S1132B40124AD35CDBB27B600F4B1B6801330E4A25
S1132B5013600D4B1B68082B02D10B4B00221A602B
S1132B60084B1B68013B074A1360FFF725FF3868D1
S1132B70FEF712FB7B6818460837BD4680BD00BFD0
S1132B80C5030020B8030020B0030020BC030020CC
S1132B9080B582B000AF0346FB710F4B1B7883F006
S1132BA00103DBB2002B01D0FFF744FF0B4B1B7872
S1132BB0002B06D0FB790A2B03D10D210848FFF71F
S1132BC069F8FB7919460648FFF764F8FB7918465B
S1132BD00837BD4680BD00BFC5030020C4030020E4
S1132BE00000014080B483B000AF7860064A7B687F
S1132BF004331B01134404331B6818460C37BD46C9
S1132C005DF8047B704700BF0020044080B483B0AB
S1132C1000AF78603960074A7B6804331B011344B2
S1132C2004333A681A6000BF0C37BD465DF8047B74
S1132C30704700BF0020044080B400AF034B9B6882
S1132C401846BD465DF8047B704700BF0020044071
S1132C5080B483B000AF7860044A7B68136200BF1D
S1132C600C37BD465DF8047B704700BF002004406C
S1132C7080B483B000AF7860064B5A6A7B68DB434C
S1132C80044913404B6200BF0C37BD465DF8047B1A
S1132C90704700BF0020044080B483B000AF786068
S1132CA0054B5A6A04497B6813434B6200BF0C37D7
S1132CB0BD465DF8047B70470020044080B483B0B7
S1132CC000AF064B5B6A7B60044B9A697B681340D8
S1132CD018460C37BD465DF8047B7047002004405D
S1132CE080B586B000AFFEF747FA3861FFF7E6FF1C
S1132CF0F860FB6823F005031846FFF7A9FFFB689B
S1132D0003F00403002B30D01B4B01221A70FFF791
S1132D1093FF78610420FFF7ABFF184B1B687A69B7
S1132D20D31ABB60B86800F02DF800F093F9786905
S1132D3000F0C2F9FFF780FF7861104B1B687A69D5
S1132D40D31ABB600120FFF74DFF02460B4B1B68F3
S1132D50D31A7B600A4B1B78002B03D0BA687B68BC
S1132D609A42D7D8044B00221A703869FEF714FA35
S1132D7000BF1837BD4680BD6C04002068040020E5
S1132D806D040020F0B587B000AF786000237B614C
S1132D9056E1AF497A6913469B001344DB000B44A8
S1132DA01D3300221A70AA497A6913469B00134402
S1132DB0DB000B441C331B78002B00F03E81A4493C
S1132DC07A6913469B001344DB000B44D3E90034B7
S1132DD07A6811464FF00002A24208BF99421AD203
S1132DE09B497A6913469B001344DB000B44D3E9E7
S1132DF000567B684FF0000429463246C91A62EB3C
S1132E000402934C786903469B000344DB0023448B
S1132E10C3E9001211E18E497A6913469B001344F9
S1132E20DB000B441F331B78002B0AD188497A69D5
S1132E3013469B001344DB000B441C3300221A701E
S1132E40E6E07B6819464FF00002814C786903463E
S1132E509B000344DB002344D3E900560B4614468D
S1132E605B1B64EB0604C7E9023479497A691346AB
S1132E709B001344DB000B440833D3E90045744939
S1132E807A6913469B001344DB000B440833D3E9EF
S1132E900023D7E9020100F0A1FEA41A65EB0305A3
S1132EA021462A466A4C786903469B000344DB00AA
S1132EB02344C3E9001266497A6913469B0013440C
S1132EC0DB000B4410331B68002B50DD60497A692A
S1132ED013469B001344DB000B44143319685C480D
S1132EE07A6913469B001344DB00034410331B68C8
S1132EF0194457487A6913469B001344DB00034482
S1132F001433196052497A6913469B001344DB0059
S1132F100B4414331B68F32B7AD94D497A69134651
S1132F209B001344DB000B44D3E90034591C44F1E7
S1132F300002474C786903469B000344DB002344AA
S1132F40C3E9001242497A6913469B001344DB002B
S1132F500B4414331B68A3F1F4013D487A6913460A
S1132F609B001344DB0003441433196050E03849D8
S1132F707A6913469B001344DB000B44143319682D
S1132F8033487A6913469B001344DB00034410332F
S1132F901B68C91A2E487A6913469B001344DB0048
S1132FA00344143319602A497A6913469B00134475
S1132FB0DB000B4414331B68F32B29D924497A69A9
S1132FC013469B001344DB000B44D3E9003413F194
S1132FD0FF3144F1FF321E4C786903469B000344E1
S1132FE0DB002344C3E9001219497A6913469B00A4
S1132FF01344DB000B4414331B68A3F1F40114489D
S11330007A6913469B001344DB00034414331960AC
S11330100F497A6913469B001344DB000B441833B1
S11330201B68002B09D00A497A6913469B00134494
S1133030DB000B441D3301221A707B6901337B6171
S11330407B69032B7FF7A5AE00BF1C37BD46F0BDDF
S1133050C803002090B583B000AF00237B6022E05A
S113306014497A6813469B001344DB000B441D3358
S11330701B78002B14D00F497A6813469B00134425
S1133080DB000B4418331C6878680A497A681346D5
S11330909B001344DB000B4420331B681946A047F4
S11330A07B6801337B607B68032BD9DD00BF0C3761
S11330B0BD4690BDC803002090B58BB000AF7860CA
S11330C04FF0FF334FF0FF34C7E9063400237B622F
S11330D027E031497A6A13469B001344DB000B4412
S11330E01C331B78002B19D02B497A6A13469B009A
S11330F01344DB000B44D3E90012D7E90634A2429F
S113310008BF99420AD224497A6A13469B001344A1
S1133110DB000B44D3E90034C7E906347B6A01338E
S11331207B627B6A032BD4DD1C4B00221A70D7E927
S11331300634B4F1FF3F08BFB3F1FF3F27D0D7E90E
S11331400634C7E904346FF06403FB60FB68194676
S11331504FF00002D7E90434A24208BF994201D2D9
S11331600B461446C7E906340D4A7B6813600420F5
S1133170FFF76EFDBA697B68134419460120FFF717
S113318045FD064B01221A700420FFF785FD00BFA0
S11331902C37BD4690BD00BFC80300206D0400203D
S11331A06804002080B485B000AF786039607B6823
S11331B003F10473DA003B6813449B00FB60FB6873
S11331C01B6818461437BD465DF8047B704780B50C
S11331D082B000AF03463960FB71FB79002B0DD040
S11331E0FB79012B0AD0FB79022B07D0FB79032B47
S11331F004D0FB79042B01D0FB79052BFA79134613
S11332005B0013441B011C3303F1804303F520438B
S113321039681846FFF7C6FF034618460837BD4607
S113322080BD000090B589B000AFF860B9607A60E5
S11332303B603B68002B04D10223FB610923BB6183
S113324003E00223FB610A23BB61FB69D8B2B969BD
S113325000230422FEF7AAF900237B6118E07B69AE
S1133260BA68134419787B697A68D4181648FEF74B
S1133270F1FC034623707B697A6813441B78FB7462
S11332807B69BA6813441B78BB747B6901337B6127
S11332907A69FB689A42E2DB0B4BDB680A4A43F427
S11332A00063D360084BDB68074A43F48063D36050
S11332B0FB69D8B2B96901230422FEF777F900BF8C
S11332C02437BD4690BD00BF0004014090B58BB0CB
S11332D000AFF860B9607A603B603B68002B04D1B2
S11332E002237B6209233B6203E002237B620A23FD
S11332F03B627B6AD8B2396A00230422FEF756F98E
S11333000023FB612EE0FB69BA6813441B78442B4D
S11333100FD107210220FFF75AFF0346BB6105E0E6
S113332007210220FFF753FF0346BB61BB69012B52
S1133330F6D0FB69BA6813441978FB697A68D41823
S11333401648FEF787FC03462370FB697A6813442A
S11333501B78FB75FB69BA6813441B78BB75FB6962
S11333600133FB61FA69FB689A42CCDB0B4BDB68E7
S11333700A4A43F40063D360084BDB68074A43F40A
S11333808063D3607B6AD8B2396A01230422FEF7D2
S11333900DF900BF2C37BD4690BD00BF00040140AD
S11333A081F0004102E000BF83F0004330B54FEAF2
S11333B041044FEA430594EA050F08BF90EA020F5F
S11333C01FBF54EA000C55EA020C7FEA645C7FEAF2
S11333D0655C00F0E2804FEA5454D4EB5555B8BF15
S11333E06D420CDD2C4480EA020281EA030382EA86
S11333F0000083EA010180EA020281EA0303362D18
S113340088BF30BD11F0004F4FEA01314FF4801CEA
S11334104CEA113102D0404261EB410113F0004FFC
S11334204FEA03334CEA133302D0524263EB4303B3
S113343094EA050F00F0A780A4F10104D5F1200E51
S11334400DDB02FA0EFC22FA05F2801841F10001AC
S113345003FA0EF2801843FA05F359410EE0A5F180
S113346020050EF1200E012A03FA0EFC28BF4CF0B1
S1133470020C43FA05F3C01851EBE37101F0004567
S113348007D54FF0000EDCF1000C7EEB00006EEB74
S11334900101B1F5801F1BD3B1F5001F0CD34908FE
S11334A05FEA30004FEA3C0C04F101044FEA445255
S11334B012F5800F80F09A80BCF1004F08BF5FEADC
S11334C0500C50F1000041EB045141EA050130BDBC
S11334D05FEA4C0C404141EB010111F4801FA4F15F
S11334E00104E9D191F0000F04BF01460020B1FAB4
S11334F081F308BF2033A3F10B03B3F120020CDAEC
S11335000C3208DD02F1140CC2F10C0201FA0CF0C9
S113351021FA02F10CE002F11402D8BFC2F1200C2E
S113352001FA02F120FA0CFCDCBF41EA0C019040E4
S1133530E41AA2BF01EB0451294330BD6FEA04042D
S11335401F3C1CDA0C340EDC04F11404C4F1200218
S113355020FA04F001FA02F340EA030021FA04F32A
S113356045EA030130BDC4F10C04C4F1200220FA81
S113357002F001FA04F340EA0300294630BD21FABF
S113358004F0294630BD94F0000F83F4801306BF85
S113359081F480110134013D4EE77FEA645C18BF79
S11335A07FEA655C29D094EA050F08BF90EA020F10
S11335B005D054EA000C04BF1946104630BD91EA08
S11335C0030F1EBF0021002030BD5FEA545C05D10B
S11335D04000494128BF41F0004130BD14F580044A
S11335E03CBF01F5801130BD01F0004545F0FE41BE
S11335F041F470014FF0000030BD7FEA645C1ABFF3
S1133600194610467FEA655C1CBF0B46024650EA29
S1133610013406BF52EA033591EA030F41F4002155
S113362030BD00BF90F0000F04BF0021704730B5DB
S11336304FF4806404F132044FF000054FF00001B0
S113364050E700BF90F0000F04BF0021704730B571
S11336504FF4806404F1320410F0004548BF404246
S11336604FF000013EE700BF42004FEAE2014FEA9B
S113367031014FEA02701FBF12F07F4393F07F4F76
S113368081F06051704732F07F4208BF704793F079
S11336907F4F04BF41F40021704730B54FF460748C
S11336A001F0004521F000411CE700BF50EA01028F
S11336B008BF704730B54FF000050AE050EA010238
S11336C008BF704730B511F0004502D5404261EBA8
S11336D041014FF4806404F132045FEA915C3FF4E9
S11336E0D8AE4FF003025FEADC0C18BF03325FEA86
S11336F0DC0C18BF033202EBDC02C2F1200300FA37
S113370003FC20FA02F001FA03FE40EA0E0021FA5B
S113371002F11444BDE600BF70B54FF0FF0C4CF449
S1133720E06C1CEA11541DBF1CEA135594EA0C0FFB
S113373095EA0C0F00F0DEF82C4481EA030621EA36
S11337404C5123EA4C5350EA013518BF52EA033571
S113375041F4801143F4801338D0A0FB02CE4FF023
S11337600005E1FB02E506F00042E0FB03E54FF053
S11337700006E1FB03569CF0000F18BF4EF0010E4B
S1133780A4F1FF04B6F5007F64F5407404D25FEA47
S11337904E0E6D4146EB060642EAC62141EA5551FA
S11337A04FEAC52040EA5E504FEACE2EB4F1FD0C3C
S11337B088BFBCF5E06F1ED8BEF1004F08BF5FEABA
S11337C0500E50F1000041EB045170BD06F000466C
S11337D046EA010140EA020081EA0301B4EB5C0419
S11337E0C2BFD4EB0C0541EA045170BD41F4801111
S11337F04FF0000E013C00F3AB8014F1360FDEBF36
S1133800002001F0004170BDC4F10004203C35DA11
S11338100C341BDC04F11404C4F1200500FA05F394
S113382020FA04F001FA05F240EA020001F0004235
S113383021F0004110EBD37021FA04F642EB0601AB
S11338405EEA430E08BF20EAD37070BDC4F10C04D5
S1133850C4F1200500FA04F320FA05F001FA04F299
S113386040EA020001F0004110EBD37041F1000185
S11338705EEA430E08BF20EAD37070BDC4F1200590
S113388000FA05F24EEA020E20FA04F301FA05F2F8
S113389043EA020321FA04F001F0004121FA04F2A0
S11338A020EA020000EBD3705EEA430E08BF20EA70
S11338B0D37070BD94F0000F0FD101F000464000AA
S11338C041EB010111F4801F08BF013CF7D041EA2C
S11338D0060195F0000F18BF704703F00046520030
S11338E043EB030313F4801F08BF013DF7D043EA01
S11338F00603704794EA0C0F0CEA135518BF95EAB7
S11339000C0F0CD050EA410618BF52EA4306D1D13D
S113391081EA030101F000414FF0000070BD50EA5C
S1133920410606BF1046194652EA430619D094EAE6
S11339300C0F02D150EA013613D195EA0C0F05D1D0
S113394052EA03361CBF104619460AD181EA030124
S113395001F0004141F0FE4141F470014FF00000DC
S113396070BD41F0FE4141F4780170BD70B54FF077
S1133970FF0C4CF4E06C1CEA11541DBF1CEA1355F7
S113398094EA0C0F95EA0C0F00F0A7F8A4EB0504D9
S113399081EA030E52EA03354FEA013100F08880D0
S11339A04FEA03334FF0805545EA131343EA126399
S11339B04FEA022245EA111545EA10654FEA00264E
S11339C00EF000419D4208BF964244F1FD0404F507
S11339D0407402D25B084FEA3202B61A65EB030563
S11339E05B084FEA32024FF480104FF4002CB6EB20
S11339F0020E75EB030E22BFB61A754640EA0C00A0
S1133A005B084FEA3202B6EB020E75EB030E22BFDF
S1133A10B61A754640EA5C005B084FEA3202B6EB20
S1133A20020E75EB030E22BFB61A754640EA9C00DF
S1133A305B084FEA3202B6EB020E75EB030E22BFAF
S1133A40B61A754640EADC0055EA060E18D04FEA6D
S1133A50051545EA16754FEA06164FEAC30343EA0D
S1133A6052734FEAC2025FEA1C1CC0D111F4801FDA
S1133A700BD141EA00014FF000004FF0004CB6E7D3
S1133A8011F4801F04BF01430020B4F1FD0C88BF72
S1133A90BCF5E06F3FF6AFAEB5EB030C04BFB6EB7D
S1133AA0020C5FEA500C50F1000041EB045170BD70
S1133AB00EF0004E4EEA113114EB5C04C2BFD4EB9D
S1133AC00C0541EA045170BD41F480114FF0000E21
S1133AD0013C90E645EA060E8DE60CEA135594EA9D
S1133AE00C0F08BF95EA0C0F3FF43BAF94EA0C0FA0
S1133AF00AD150EA01347FF434AF95EA0C0F7FF415
S1133B0025AF104619462CE795EA0C0F06D152EA68
S1133B1003353FF4FDAE1046194622E750EA41064C
S1133B2018BF52EA43067FF4C5AE50EA41047FF45D
S1133B300DAF52EA43057FF4EBAE12E74FEA4102C0
S1133B40B2F1E04324BFB3F5001CDCF1FE5C0DD9F7
S1133B5001F0004C4FEAC0024CEA5070B2F1004F41
S1133B6040EB830008BF20F00100704711F0804F44
S1133B7021D113F13872BCBF01F00040704741F409
S1133B8080114FEA5252C2F11802C2F1200C10FA0D
S1133B900CF320FA02F018BF40F001004FEAC123F1
S1133BA04FEAD32303FA0CFC40EA0C0023FA02F395
S1133BB04FEA4303CCE77FEA625307D150EA01336B
S1133BC01EBF4FF0FE4040F44000704701F000403B
S1133BD040F0FE4040F40000704700BF53B94AB9BA
S1133BE0002908BF00281CBF4FF0FF314FF0FF3001
S1133BF000F072B9ADF1080C6DE904CE00F006F8DE
S1133C00DDF804E0DDE9022304B070472DE9F04754
S1133C10089E04468846002B4BD18A42154667D934
S1133C20B2FA82F24AB1C2F1200701FA02F320FA91
S1133C3007F7954047EA030894404FEA154E230CD2
S1133C40B8FBFEF71FFA85FC0EFB178843EA08430E
S1133C5007FB0CF1994209D9EB1807F1FF3080F00A
S1133C601B81994240F21881023F2B445B1AA4B293
S1133C70B3FBFEF00EFB103344EA034400FB0CFCE0
S1133C80A44509D92C1900F1FF3380F00781A4451C
S1133C9040F2048102382C4440EA0740A4EB0C04AF
S1133CA000271EB1D4400023C6E900433946BDE8CD
S1133CB0F0878B4209D9002E00F0EB800027C6E97B
S1133CC0000138463946BDE8F087B3FA83F7002F80
S1133CD047D18B4202D3824200F2FA80841A61EB0C
S1133CE0030301209846002EE0D0C6E90048DDE732
S1133CF002B9FFDEB2FA82F2002A40F08F80491B3B
S1133D004FEA154E1FFA85F80127B1FBFEFC230C80
S1133D100EFB1C1143EA014308FB0CF1994207D93D
S1133D20EB180CF1FF3002D2994200F2CD808446A8
S1133D30591AA3B2B1FBFEF00EFB101443EA04447B
S1133D4008FB00F8A04507D92C1900F1FF3302D273
S1133D50A04500F2B6801846A4EB080440EA0C40E3
S1133D609FE7C7F1200CBB4022FA0CFE4EEA030E7B
S1133D7001FA07F420FA0CF521FA0CF34FEA1E4875
S1133D802543B3FBF8F92C0C08FB19331FFA8EFA00
S1133D9044EA034309FB0AF49C4202FA07F200FADC
S1133DA007F10BD91EEB030309F1FF3080F0878084
S1133DB09C4240F28480A9F1020973441B1BADB2FA
S1133DC0B3FBF8F008FB103345EA034400FB0AFA9E
S1133DD0A24508D91EEB040400F1FF336BD2A245BF
S1133DE069D90238744440EA0940A0FB0289A4EB73
S1133DF00A044C45C2464B4654D351D0002E69D0D8
S1133E00B1EB0A0564EB030404FA0CFCFD40FC402E
S1133E104CEA0505C6E90054002747E7C2F1200330
S1133E2020FA03F7954001FA02F021FA03F34FEA6E
S1133E30154E3843010CB3FBFEF71FFA85F80EFB51
S1133E40173341EA034107FB08F38B4204FA02F4F7
S1133E5007D9691807F1FF3C2FD28B422DD9023FB5
S1133E602944CB1A81B2B3FBFEF00EFB103341EAB6
S1133E70034100FB08F38B4207D9691800F1FF3CAA
S1133E8017D28B4215D902382944C91A40EA074788
S1133E903BE73746304609E70746E7E61846FBE6C0
S1133EA04145ABD2B8EB020A69EB0E020138134666
S1133EB0A4E76046E9E7184695E76746D1E78146F7
S1133EC07CE702382C4447E7ACF1020C2B442FE783
S1133ED0384608E73746E9E6704700BF08B5074BA0
S1133EE0044613B10021AFF30080054B1868836AC0
S1133EF003B198472046FEF73CFC00BF00000000D9
S1133F00186C000070B5114E3568044625B1AB69D4
S1133F1013B9284600F062F80D4B9C4206D16C6838
S1133F20B4F90C3063B1B4F90E0070BD094B9C4276
S1133F3001D1AC68F4E7084B9C4208BFEC68EFE79A
S1133F40336809221A604FF0FF30EEE718000020B2
S1133F50D86B0000F86B0000B86B0000002310B5AC
S1133F600446C0E90033836081814366C281C0E9AD
S1133F7004338361194608225C3000F0DDF8054BF8
S1133F806362054BA362054BE362054B2462236322
S1133F9010BD00BF314D0000534D00008B4D00009B
S1133FA0AF4D0000014900F085B800BF315D00004D
S1133FB070B54A1E682555430E4605F1740100F09C
S1133FC0C3F8044640B10021C0E900160C30A060DB
S1133FD005F1680200F0B0F8204670BD836910B5A1
S1133FE0044633BBC0E912330365124B124A1B6803
S1133FF08262984204BF0123836100F01FF860606D
S1134000204600F01BF8A060204600F017F80022BC
S1134010E06004216068FFF7A1FF01220921A06884
S1134020FFF79CFF02221221E068FFF797FF0123AC
S1134030A36110BD186C0000A53F0000F8B51B4B30
S11340401E68B369074613B93046FFF7C7FF483601
S1134050D6E90134013B03D5336833B13668F7E759
S1134060B4F90C506DB16834F4E704213846FFF715
S11340709FFF30600028F1D10C233B6004462046AA
S1134080F8BD0B4B6566C4E90055A560C4E903356A
S1134090C4E905550822294604F15C0000F04CF8F7
S11340A0C4E90D55C4E91255E9E700BF186C0000D6
S11340B00100FFFF2DE9F8438046894600F14804DA
S11340C0002614B93046BDE8F883D4E90175013FF0
S11340D001D52468F5E7AB89012B07D9B5F90E3072
S11340E0013303D029464046C84706436835EEE706
S11340F070B50D4E0D4CA41BA4100025A54209D18A
S11341000B4E0C4C02F0B8FCA41BA4100025A542D5
S113411005D170BD56F8253098470135EEE756F8BD
S1134120253098470135F2E7E8010020E801002036
S1134130E8010020EC01002002440346934200D130
S1134140704703F8011BF9E770B5CD1C25F0030592
S113415008350C2D38BF0C25002D064601DBA9427D
S113416003D90C233360002070BD01F0F4FE214A12
S11341701468214691B9204C23681BB9304600F0DD
S113418019FD20602946304600F014FD431C24D15B
S11341900C233360304601F0DFFEE4E70B685B1B61
S11341A018D40B2B0FD90B60CD50CC18304601F02E
S11341B0D3FE04F10B00231D20F00700C31AD3D053
S11341C05A42E250D0E78C424B6816BF63601360DA
S11341D00C46EBE70C464968CCE7C41C24F0030406
S11341E0A04205D0211A304600F0E4FC0130CFD0C3
S11341F02560DBE770040020740400202DE9F047FB
S113420088B0002B149F109EDDE9121A1D4627F07A
S11342102007BBBF03F100431D4600232D23144692
S1134220B8BF1446462F0B7004D0452F00D1013679
S1134230022300E0032307AA049206AACDE902A2FE
S1134240CDE9003622462B4600F02EFF472F80464C
S113425002D1119BDB0726D5462F08EB060911D1A5
S113426098F80030302B0AD100220023204629463A
S113427002F092FB18B9C6F10106CAF80060DAF838
S113428000309944002200232046294602F084FB92
S113429038B93022079B4B4505D2591C07911A7037
S11342A0F8E7CDF81C90079B159AA3EB080340464A
S11342B0136008B0BDE8F087F7B500290446BABF1B
S11342C049422D232B23092904F8022B437020DDB6
S11342D00DF107031F460A2691FBF6F506FB15119F
S11342E03031092D03F8011C03F1FF32294609DCA2
S11342F03031023B02F8011CBB42224604D3101A9F
S113430003B0F0BD1346E7E713F8012B04F8012BC3
S1134310F2E7302319448370021DC170EFE70000F7
S11343202DE9F04F91B00C46DDF8688016461F4623
S1134330054601F027FD03680893184600F03BFD8D
S113434000230E93D8F800300990073323F00703B5
S113435003F1080294F818A0D4F800B0C8F80020BB
S1134360D3E90023C4E91223D4E9128929F00043D4
S11343700B93CDF828804FF0FF32A94BDDE90A01F9
S113438002F03CFB70BB4FF0FF32A54BDDE90A01A4
S113439002F016FB30BB002200234046494602F0DF
S11343A005FB10B12D2384F843309E4A9E4BBAF18D
S11343B0470F8CBF90469846032323612BF00403D8
S11343C023604FF00009009733460FAA2146284680
S11343D000F0ECF9013040F090804FF0FF3011B064
S11343E0BDE8F08F42464B464046494602F006FB84
S11343F010B18E4A8E4BDAE76368591C4BF4806225
S11344000EA90DA840D1062363600DF13303CDE955
S113441001234FF0000C63682260CDE9030A009386
S113442042464B46CDE9051C2846FFF7E7FE0AF055
S1134430DF03472B804609D10D9BD81C02DB626841
S1134440934247DDAAF1020A5FFA8AFABAF1650FCC
S11344500D9924D80139524604F150000D91FFF70B
S11344602BFF0E9A1318012A8146236102DC22686D
S1134470D10701D5013323619DF83330002BA2D03D
S11344802D2384F843309EE7BAF1670F00F078815A
S1134490BAF1470FB9D1002BB7D10123B4E7BAF170
S11344A0660F19D1002963680CDD216113B92268F4
S11344B0D20702D501330B4423610D9BA3654FF052
S11344C00009D9E713B92268D00701D50233F3E70D
S11344D00123F1E74FF0670ADDE90D32934205DB72
S11344E022682361D107E8D50133E5E7002BD4BF67
S11344F0C3F1020301231344DEE723685A0507D4FA
S11345002369424631462846B84701302BD164E737
S1134510BAF1650F40F2DD8000220023D4E91201D4
S113452002F03AFA002833D00123424A31462846A1
S1134530B84701303FF451AFDDE90D239A4202DB65
S11345402368D8070FD5DDE9082331462846B84744
S113455001303FF442AF4FF0000804F11A090E9BFA
S1134560013B434509DC23689B0700F10481E068B3
S11345700F9B9842B8BF184631E701234A4631469B
S11345802846B84701303FF428AF08F10108E6E7B0
S11345900D9B002B2BDC0123264A31462846B847C5
S11345A001303FF41AAF0D9B23B90E9B13B9236856
S11345B0D907D8D5DDE9082331462846B847013064
S11345C03FF40BAF4FF0000904F11A0A0D9B5B4254
S11345D04B4501DC0E9B94E70123524631462846A5
S11345E0B84701303FF4F9AE09F10109EEE70E9A3C
S11345F0A36D9A42A8BF1A46002A914607DD1346C6
S1134600314642462846B84701303FF4E6AE04F14D
S11346101A034FF0000B29EAE9790A9316E000BF68
S1134620FFFFEF7F206C00001C6C0000286C000072
S1134630246C00002C6C000001230A9A31462846A1
S1134640B84701303FF4C9AE0BF1010BD4F858A0C0
S1134650AAEB09035B45EFDCDDE90D239A42D04464
S113466015DB2368DA0712D40E9B0D99A3EB0A021B
S1134670A3EB010A9245A8BF9246BAF1000F0EDCE3
S11346804FF000082AEAEA7A04F11A0919E0DDE990
S1134690082331462846B8470130E5D19DE6534604
S11346A0424631462846B8470130E9D195E6012310
S11346B04A4631462846B84701303FF48EAE08F1E9
S11346C00108DDE90D239B1AA3EB0A034345EEDC45
S11346D049E70E9A012A01DCDB073AD50123424659
S11346E031462846B84701303FF477AEDDE9082368
S11346F031462846B847013008F101083FF46DAE51
S11347000E9B002203F1FF3AD4E91201002302F0C8
S113471043F9C8B95346424631462846B8470130A2
S11347200ED15AE60123524631462846B847013095
S11347303FF453AE08F101080E9B013B4345F1DC05
S11347404B4604F15002DDE64FF0000804F11A0A6A
S1134750F2E70123DFE701234A4631462846B847FA
S113476001303FF43AAE08F10108E3680F9A9B1A4E
S11347704345F0DCFBE64FF0000804F11909F4E7C7
S1134780002B3FF48AAE4FF0000CCDE9051C0DF16F
S113479033012260CDE9030ACDE9012100934246A9
S11347A04B462846FFF72AFD804645E62DE9F047AB
S11347B091461F468A680B69DDF820809342B8BF92
S11347C01346C9F8003091F8432006460C4612B14E
S11347D00133C9F800302368990642BFD9F8003084
S11347E00233C9F80030256815F0060507D104F135
S11347F0190AE368D9F800209B1AAB4228DC94F824
S113480043302268003318BF012392062DD404F1EB
S1134810430239463046C047013020D02368E5685A
S1134820D9F8002003F00603042B08BFAD1AA368CF
S113483022690CBF25EAE57500259342C4BF9B1A83
S1134840ED184FF000091A344D451AD1002008E044
S11348500123524639463046C047013003D14FF058
S1134860FF30BDE8F0870135C3E7E1185A1C30205A
S113487081F84300224494F8451082F8431002332F
S1134880C5E70123224639463046C0470130E6D009
S113489009F10109D8E700002DE9F04301F1430CC7
S11348A00C46097E85B06E291746064698460C9A32
S11348B000F0B38022D8632936D00AD8002900F04A
S11348C0B980582900F0838004F1420584F842102D
S11348D032E0642901D06929F6D1206813680506FD
S11348E003F104012AD51B681160002B03DA2D2281
S11348F05B4284F843206F480A2239E0732900F0B0
S11349009D8008D86F2920D07029DDD1236843F019
S11349102003236003E0752917D07829D4D17823A4
S113492084F84530644855E01368191D1B6811600C
S113493004F1420584F8423001238CE01B681160C5
S113494010F0400F18BF1BB2CFE713682568181D7D
S11349501060280601D51B6802E06806FBD51B8899
S113496054486F2914BF0A220822002184F84310F6
S11349706568A560002DC0F29580216821F00401CE
S11349802160002B3DD1002D40F08E806546082A21
S11349900BD12368DB0708D5236962689A42DEBF1E
S11349A0302305F8013C05F1FF35ACEB0503236129
S11349B0CDF800803B4603AA21463046FFF7F6FEB9
S11349C001304DD14FF0FF3005B0BDE8F0833948D8
S11349D084F84510136821681D1D1B6815600A06BC
S11349E00BD5CA0744BF41F0200121601BB92268DE
S11349F022F0200222601022B7E74D0648BF9BB286
S1134A00EFE76546B3FBF2F102FB1133C35C05F833
S1134A10013D0B460029F5D1B9E7136825686169A2
S1134A20181D106028061B6801D5196002E06A068B
S1134A30FBD51980002323616546B9E71368191D66
S1134A4011601D6862680021284601F029FA08B146
S1134A50401B606063682361002384F84330A7E748
S1134A6023692A4639463046C0470130AAD0236814
S1134A709B0713D4E068039B9842B8BF1846A3E78A
S1134A8001234A4639463046C04701309AD00135A1
S1134A90E368039A9B1AAB42F2DCEBE7002504F1CE
S1134AA01909F5E7002BACD1037884F8423004F1FE
S1134AB042056CE72E6C00003F6C00000FB40A4BFB
S1134AC013B51C6824B1A36913B92046FFF786FA0D
S1134AD005AB049AA1680193204601F09FFD02B042
S1134AE0BDE8104004B070471800002070B50E46B1
S1134AF0054618B183690BB9FFF770FAAB69AC6866
S1134B0013B92846FFF76AFA234B9C4217D16C6805
S1134B10A3891B071DD52369DBB1013EA36816F8E1
S1134B20011F013BA360E9B9002B2EDA22460A21BA
S1134B30284600F049F9013011D00A2011E0174B42
S1134B409C4201D1AC68E3E7154B9C4208BFEC687A
S1134B50DEE72146284600F09BF90028DDD04FF01F
S1134B60FF3070BD002B04DAA2699A4206DC0A29E0
S1134B7004D023685A1C22601970CFE722462846C5
S1134B8000F022F90130C9D1E9E723680A205A1C50
S1134B9022601870E5E700BFD86B0000F86B0000D6
S1134BA0B86B0000024B01461868FFF79FBF00BFB7
S1134BB01800002038B5064C00230546084623603B
S1134BC0FDF730FE431C02D1236803B12B6038BDCE
S1134BD0780400202DE9F7431D46514B1E68044616
S1134BE00F46904626B1B36913B93046FFF7F6F97C
S1134BF04C4B9C4252D17468B8F1020F06D0B8F104
S1134C00010F00F28980002DC0F2868021463046D3
S1134C1001F08EF8616B41B104F14403994202D072
S1134C20304601F083FC002363630023A3616360C7
S1134C30A3891B0603D52169304601F077FCA389BB
S1134C4023F44A6323F00303B8F1020FA3815DD078
S1134C5001AB6A462146304601F0B4F8A3891843F3
S1134C60A0812DBB009D284601F010F907460028BD
S1134C704ED1DDF80090A9453CD14FF0FF30A38917
S1134C8043F00203A3810023A36004F147032360DC
S1134C9023610123636103B0BDE8F083224B9C428E
S1134CA001D1B468A8E7214B9C4208BFF468A3E78C
S1134CB0002FD8D0B36913B93046FFF78FF9B8F194
S1134CC0010F08BFA389276004BF43F00103A38138
S1134CD0A38913F00800C4E904751BD013F0010084
S1134CE018BF6D424FF000031DBFA360A5611846B5
S1134CF0A560D0E7484601F0C9F807460028BCD0B3
S1134D00A38943F08003A3814D46D3E70020B6E78F
S1134D10A946F5E7A060BEE74FF0FF30BBE700BF50
S1134D2018000020D86B0000F86B0000B86B00007E
S1134D3010B50C46B1F90E1001F084FD0028ABBF8C
S1134D40636DA3891B1823F48053ACBF6365A381EF
S1134D5010BD2DE9F0411F468B89DB0505460C4645
S1134D60164605D502230022B1F90E1001F018F8F9
S1134D70A389B4F90E1023F48053A38132463B4631
S1134D802846BDE8F04100F071B810B50C46B1F901
S1134D900E1001F005F8431CA38915BF606523F4C8
S1134DA0805343F48053A38118BFA38110BDB1F98C
S1134DB00E1000F0DBB8034613F8012B002AFBD1D8
S1134DC0181A013870470000F8B50E461446054617
S1134DD018B183690BB9FFF701F9214B9C422AD121
S1134DE06C68A369A360A3891A072ED5236963B3EA
S1134DF023692068C01A6369F6B28342374604DC2B
S1134E002146284600F094FF28BBA368013BA36019
S1134E1023685A1C22601E7063690130834204D0E7
S1134E20A389DB0719D50A2E17D12146284600F09D
S1134E307FFF90B10FE00B4B9C4201D1AC68D0E7EF
S1134E40094B9C4208BFEC68CBE72146284600F09A
S1134E501FF80028CCD04FF0FF373846F8BD00BF0C
S1134E60D86B0000F86B0000B86B000038B5074C35
S1134E70054608461146002222601A46FDF710FD39
S1134E80431C02D1236803B12B6038BD7804002091
S1134E90324B70B51D6806460C4625B1AB6913B993
S1134EA02846FFF79BF82E4B9C420FD16C68B4F94F
S1134EB00C309AB215072CD4D00611D409223260D2
S1134EC043F04003A3814FF0FF303EE0254B9C426A
S1134ED001D1AC68EBE7244B9C4208BFEC68E6E7E1
S1134EE0510712D5616B41B104F14403994202D0D8
S1134EF0304601F01BFB00236363A38923F02403E2
S1134F00A3810023636023692360A38943F008031A
S1134F10A38123694BB9A38903F42073B3F5007FFC
S1134F2003D02146304600F071FFA28912F001033C
S1134F300CD00023A36063695B42A361236953B966
S1134F40B4F90C3013F08000BAD170BD920758BF89
S1134F506369A360F2E70020F7E700BF18000020B0
S1134F60D86B0000F86B0000B86B000038B5064C35
S1134F700023054608462360FDF7F0FB431C02D1DD
S1134F80236803B12B6038BD780400202DE9F74F66
S1134F9003690C69A3428046C0F28280013C01F19E
S1134FA014074FEA840C00F1140657F8245056F8FD
S1134FB0240006EB0C03013507EB0C090193B0FB4D
S1134FC0F5F595B34FF0000A3846B646D34650F887
S1134FD0042B93B205FB03A34FEA134A9BB2ABEB3A
S1134FE00303120CDEF800B005FB02A213FA8BF3E4
S1134FF04FEA124A1FFA82FBDEF80020CBEB124282
S113500002EB23429BB243EA024381454FEA224B1F
S11350104EF8043BDBD256F80C3033B9019B043B09
S11350209E421A4630D3C8F81040404601F0AAF90F
S1135030002825DB013530464FF0000C57F8042BCF
S1135040D0F800E093B2ACEB0303120C13FA8EF326
S1135050C2EB1E4202EB23429BB243EA0243B94530
S11350604FEA224C40F8043BE8D256F8242006EBE1
S113507084032AB9043B9E421A460BD3C8F8104055
S1135080284603B0BDE8F08F1268043B002ACAD159
S1135090013CC5E71268043B002AEFD1013CEAE772
S11350A00020EEE7000000002DE9F04F456A97B0BC
S11350B016461F460446DDF88C80CDE902673DB9EB
S11350C0102000F0E3FE6062C0E901550560C56090
S11350D0636A196851B15A684A60012393408B602E
S11350E0204600F06EFF636A00221A603B1EBBBFBD
S11350F023F00043039300230122ACBFC8F800301F
S1135100C8F80020B24BDDF80C8033EA08031BD149
S1135110229A42F20F731360029B23B9C8F313005F
S1135120002800F04F85249B53B9AA4B21E0AA4BD9
S113513005930833249A1360059817B0BDE8F08FDF
S1135140A44B05930333F5E7DDE90267002200234E
S11351503046394601F020FC824660B1229A012390
S11351601360249B002B00F02A859C4B249A136027
S1135170013B0593E0E714AB019315AB0093324672
S11351803B46204601F075F9C8F30A558346002DC5
S11351907CD0C7F3130343F07F59B04649F4401958
S11351A0A5F2FF35CDF84CA000228D4B4046494670
S11351B0FEF7FAF880A3D3E90023FEF7ADFA80A343
S11351C0D3E90023FEF7F2F8064628460F46FEF719
S11351D039FA7DA3D3E90023FEF79EFA02460B4673
S11351E030463946FEF7E2F806460F4601F01CFC4D
S11351F00022824600233046394601F0D7FB48B1ED
S11352005046FEF71FFA32463B4601F0C5FB08B98B
S11352100AF1FF3ABAF1160F59D8724901EBCA01E3
S1135220DDE90223D1E9000101F0DEFB002850D0C2
S11352300AF1FF3A00231293149B5D1BB5F1010898
S113524049BFC5F10103002308934FF0000858BF7C
S11352500893BAF1000F3EDB0023D044CDF834A00C
S11352600993209B092B00F29080052BC4BF043BBB
S11352702093209BA3F10203CCBF00250125032B1F
S113528000F28F80DFE803F07D7F3171DDE9145394
S11352901D4405F23240202813DDC0F14000029B7A
S11352A008FA00F805F2124023FA00F048EA000078
S11352B0FEF7B8F901238046A1F1F879013D139373
S11352C072E7029BC0F1200003FA00F0F0E701232B
S11352D0B1E71290B0E7089BA3EB0A030893CAF165
S11352E00003099300230D93BBE701230C93219B37
S11352F0002B59DD06939946666A002272600422E7
S113530002F114009842716870D9204600F025FE1D
S1135310636A30601B680593B9F10E0F00F2EB80ED
S1135320002D00F0E8809DED027BBAF1000F8DEDB9
S1135330107B79DD2B4A0AF00F0302EBC30393EDD4
S1135340007B4FEA2A16F0068DED0A7B6AD5264BC0
S1135350DDE91001D3E90823FEF708FBCDE90201DA
S113536006F00F060325204F51E001230C93219BE7
S1135370534403F1010906934B46012BB8BF0123A3
S1135380BAE70023B2E70023F0E7012500232093C6
S11353900C954FF0FF330693994600221223219275
S11353A0AAE701230C93F4E70123069399461A46CE
S11353B0F5E700BFAFF3008061436F63A787D23F77
S11353C0B3C8608B288AC63FFB799F501344D33FF0
S11353D00000F07F596C0000506C00002D6C000040
S11353E00000F83F886C0000606C000001317160BF
S11353F0520085E7F10708D5DDE90A01D7E9002362
S1135400FEF78AF9CDE90A01013576100837002E36
S1135410F0D1DDE90A23DDE90201FEF7A7FACDE9BF
S113542002011AE002259EE700F0A080CAF10006FE
S11354309F4BA04F06F00F0203EBC203D3E90023F6
S1135440DDE91001FEF768F9CDE902013611002308
S11354500225002E7FD1002BE1D1129B002B00F0FE
S11354608780DDE902670022934B3046394601F01C
S11354709DFA00287CD0B9F1000F79D0069B002B4F
S113548035DD0AF1FF330A93394600228B4B30464F
S1135490FEF742F9CDE90201069F01352846FEF7E1
S11354A0D1F8DDE90223FEF737F90022844BFDF73A
S11354B07DFF0546A1F15076002F5DD10022814B7E
S11354C0DDE90201FDF770FF2A463346CDE902010A
S11354D001F08AFA002840F088822A4606F1004347
S11354E0DDE9020101F062FA002840F07C82DDE986
S11354F01023CDE90223159B002BC0F25081BAF191
S11355000E0F00F34C816A4B03EBCA0393ED007B4F
S1135510219B002B8DED067B80F2D880B9F1000F22
S113552000F3D48040F05E820022664B51EC170BEE
S1135530FEF7F2F8DDE9022301F04CFA4F464E463D
S1135540002840F03482059B059A5D1C31231370BA
S11355500AF1010A2FE2F20705D5D7E90023FEF785
S1135560DBF8013501237610083772E7022574E76A
S1135570CDF828A04F4691E74D4B03EBC70353E901
S113558002010C9B002B47D002460B4600204E49DB
S1135590FEF7ECF92A463346FDF706FFCDE90E0186
S11355A0059DDDE9020101F03FFA0646FEF74AF8DF
S11355B002460B46DDE90201FDF7F6FE303605F83A
S11355C0016BDDE90E23CDE9020101F0EFF90028BA
S11355D063D1DDE9022300203749FDF7E5FEDDE96B
S11355E00E2301F0E3F9002840F0B780059BEB1A85
S11355F09F427FF77CAF0022304BDDE90E01FEF7BE
S11356008BF80022CDE90E012C4BDDE90201FEF7F7
S113561083F8CDE90201C4E733462A46FEF77CF855
S1135620059BCDE90E01DD191E46DDE9020101F0FD
S1135630FBF90746FEF706F8303702460B46DDE96C
S11356400201FDF7B1FE06F8017BAE42CDE902018D
S11356504FF0000226D11C4BDDE90E01FDF7A6FE3A
S113566002460B46DDE9020101F0BEF9002874D1BF
S1135670DDE90E2300201449FDF796FE02460B4691
S1135680DDE9020101F092F900283FF430AF15F88A
S1135690013C302B05F1FF3202D0DDF828A04AE0AE
S11356A01546F4E7054BFEF737F8CDE90201BCE7F0
S11356B0886C0000606C00000000F03F0000244093
S11356C000001C40000014400000E03FDDE90267D8
S11356D0059DDDE9062330463946FEF747F901F01A
S11356E0A3F98046FDF7AEFFDDE90623FEF714F8C3
S11356F002460B463046394608F13006FDF754FEA3
S113570005F8016B059EAE1BB14502460B4639D127
S1135710FDF74CFEDDE9062306460F4601F064F969
S1135720C8B9DDE906233046394601F035F910B130
S113573018F0010F0FD15946204600F042FC002317
S1135740229A2B700AF101031360249B002B3FF46F
S1135750F3AC1D60F0E4CDF828A015F8012C392A2B
S113576005F1FF3308D1059A9A4209D10A9B013306
S11357700A933023137013461A7801321A708CE797
S11357801D46EAE700229B4BFDF7C6FF00220023DB
S113579006460F4601F000F900289AD0CBE70C9A90
S11357A0002A00F08B80209A012A6EDC139A002ACA
S11357B067D003F23343DDE90857089A01211A44FC
S11357C020460892984400F09CFC0646002D0CDD0F
S11357D0B8F1000F09DD4545089A2B46A8BF43469A
S11357E0D21A0892ED1AA8EB0308099BEBB10C9BA3
S11357F0002B67D08FB131463A46204600F020FD99
S11358005A4601460646204600F084FC59460A9052
S1135810204600F0D6FB0A9B9B46099BDA1B04D06A
S11358205946204600F00CFD83460121204600F035
S113583068FC0D9B0746002B00F0CB811A460146FD
S1135840204600F0FDFC209B012B074640DC029B18
S1135850002B39D1039BC3F31303002B36D1039BD5
S113586023F000431B0D1B052BB1089B0133089348
S113587008F10108012309930D9B002B2AD1012073
S113588030E0149BC3F1360395E7099B09F1FF3718
S1135890BB42BFBF099B0997FA1A0D9BBBBF9B185C
S11358A00D93DF1B0027B9F1000FB5BF089B089DBE
S11358B0A3EB09054B46B8BF00237EE7DDE9085793
S11358C00C9E83E7099AABE70023D4E7029BD2E757
S11358D0002309933B6907EB8303186900F0C3FBBA
S11358E0C0F12000404410F01F0047D0C0F1200355
S11358F0042B3BDD089BC0F11C00034408930544C2
S11359008044089B002B05DD59461A46204600F0CA
S1135910E5FC8346B8F1000F05DD394642462046D2
S113592000F0DCFC0746129B53B33946584600F09E
S113593029FD002824DA002359460A22204600F0D3
S113594057FB0C9B0AF1FF3A8346002B00F0488179
S1135950002331460A22204600F04AFB069B002B16
S113596006464FDC209B022B4CDD11E0C9D0089A7F
S11359701C331A4408921D449844C2E70346F6E7D0
S1135980B9F1000F38DC209B022B35DDCDF81890DF
S1135990069B63B939460522204600F029FB0146DF
S11359A00746584600F0EEFC00283FF7CCAD219B9B
S11359B0059D6FEA030A4FF000093946204600F0BE
S11359C000FB002E3FF4B7AEB9F1000F05D0B1458E
S11359D003D04946204600F0F4FA3146204600F050
S11359E0F0FAA8E600273E46E1E7DDF828A03E46A7
S11359F0A9E500BF000024400C9BCDF81890002BB3
S1135A0000F0F580002D05DD31462A46204600F0E1
S1135A1065FC0646099B002B4CD07168204600F0BB
S1135A209CFA326902320546920006F10C010C30F0
S1135A3000F086FA01222946204600F04FFC059B1F
S1135A400893029B03F00103B146099306463946C5
S1135A505846FFF79BFA4946054600F13008584678
S1135A6000F090FC324602903946204600F0A4FC37
S1135A70C368024603BB01460A90584600F082FC04
S1135A800A9A0346114620460A9300F09AFA0A9BA2
S1135A90A3B9209A92B9099A82B9B8F1390F29D0D9
S1135AA0029B002B01DD05F13108089B5D1C83F886
S1135AB0008082E73046C2E70123E3E7029A002A26
S1135AC004DB24D1209A12BB099A02BB002BECDD23
S1135AD059460122204600F001FC3946834600F075
S1135AE051FC002803DCE0D118F0010FDDD0B8F13F
S1135AF0390FD8D1089B089A5D1C3923137015F807
S1135B00013C392B05F1FF324ED0013353E0089AA2
S1135B10002B02F1010506DDB8F1390FEAD008F1D6
S1135B200108089BC3E7059B069A05F8018CEB1A4C
S1135B30934221D0594600230A22204600F058FA05
S1135B40B14583464FF000034FF00A024946204610
S1135B5005D100F04DFA81460646089577E700F036
S1135B6047FA3146814600230A22204600F040FAD3
S1135B700646F2E74FF0000959460122204600F09C
S1135B80ADFB3946834600F0FDFB0028B7DC02D1AB
S1135B9018F0010FB3D115F8013C302B05F1FF3299
S1135BA07FF40BAF1546F6E7059B934205D1059AA2
S1135BB00AF1010A31231370FFE615469FE7174BDC
S1135BC0FFF7D7BA249B002B7FF4B1AA144BFFF73D
S1135BD0D0BA209B012B7FF73AAE0D9B09934EE67A
S1135BE0069B002B03DC209B022B3FF7D1AE059DC7
S1135BF039465846FFF7CAF900F1300805F8018B19
S1135C00059B069AEB1A9A42B4DD594600230A22F0
S1135C10204600F0EDF98346EAE700BF2C6C000053
S1135C20506C00008A892DE9F041054610070C46A6
S1135C3058D44B68002B05DC0B6C002B02DC0020D5
S1135C40BDE8F081E66A002EF9D0002312F48052F8
S1135C502F68216A2B6032D0606DA3895A0705D55D
S1135C606368C01A636B0BB1236CC01A002302462D
S1135C70E66A216A2846B047431CA38906D12968ED
S1135C801D2948D8294ACA40D60744D50022626053
S1135C90D9042269226004D5421C01D12B6803B9BE
S1135CA06065616B2F600029C9D004F144039942F7
S1135CB002D0284600F03AFC00206063C0E70123CC
S1135CC02846B047411CC8D12B68002BC5D01D2BDA
S1135CD001D0162B01D12F60B1E7A38943F0400313
S1135CE0A381ADE70F69002FA9D093070E6808BF01
