:10000000008000207D010000A9010000A90100007E
:10001000A9010000A9010000A9010000A901000038
:10002000A9010000A9010000A9010000A901000028
:10003000A9010000A9010000A9010000A901000018
:10004000A9010000A9010000A9010000A901000008
:10005000A9010000A9010000A9010000A9010000F8
:1000600071140000A9010000791900009D1D000015
:10007000A9010000A9010000A9010000A9010000D8
:10008000A9010000A9010000A9010000A9010000C8
:10009000A9010000A9010000A9010000A9010000B8
:1000A000A9010000A9010000A9010000A9010000A8
:1000B000A9010000B1200000A9010000A901000071
:1000C000A9010000A901000010B5054C237833B93F
:1000D000044B13B10448AFF300800123237010BD1B
:1000E000F001002000000000B861000008B5034BDB
:1000F0001BB103490348AFF3008008BD00000000B6
:10010000F4010020B8610000154B002B08BF134B11
:100110009D46A3F5803A00218B460F461348144AAA
:10012000121A03F0D1F90F4B002B00D098470E4B59
:10013000002B00D098470020002104000D000D483E
:10014000002802D00C48AFF3008003F099F920009A
:10015000290001F075FC03F089F800BF00000800D9
:10016000008000200000000000000000F0010020DE
:1001700064040020000000000000000006488047E2
:100180000649074A074B9A42BEBF51F8040B42F892
:10019000040BF8E7FFF7B8FF75020000C461000028
:1001A00000000020EC010020FEE700BF80B582B017
:1001B00000AF00F01BF878600A4BD3F808311B0A37
:1001C000C3F308033B603B6801337A68B2FBF3F387
:1001D0007B60054A7B6813607B6818460837BD461C
:1001E00080BD00BF00400E400800002080B483B0F6
:1001F00000AF164BD3F8943003F00703032B08D05D
:10020000042B02D0022B08D00BE0114B1B687B6043
:100210000BE04FF400437B6007E00E4B1B687B60F4
:1002200003E00D4B1B687B6000BF084BD3F8003127
:100230001B0A03F01F0301337A68B2FBF3F318467D
:100240000C37BD465DF8047B704700BF00400E4090
:1002500004000020000000200C00002080B400AF4B
:10026000034B1B681846BD465DF8047B704700BF12
:100270000000002080B400AF124BD3F88830114A40
:1002800043F47003C2F888300F4B5B6D0E4A43F4A1
:10029000005353650C4B1B6C0B4A23F00303136490
:1002A0000A4B1B68094A23F001031360084B1B68C3
:1002B000074A23F08053136000BFBD465DF8047BFE
:1002C000704700BF00ED00E000300E4074300E407B
:1002D00060300E4080B400AF4FF400431846BD4676
:1002E0005DF8047B704780B400AF4FF47A73184612
:1002F000BD465DF8047B704780B400AF034B1B68BC
:100300001846BD465DF8047B704700BF040000201E
:1003100080B487B000AFF860B9607A60FB6803F121
:100320000473DA00BB6813449B007B617B697A68C5
:100330001A6000BF1C37BD465DF8047B704780B46F
:1003400083B000AF786001227B6802FA03F318469D
:100350000C37BD465DF8047B7047000080B483B065
:1003600000AF054B1B687B607B6818460C37BD46A9
:100370005DF8047B704700BF1000002080B582B09C
:1003800000AFFFF733FF7860064BD3F800311B0A4C
:1003900003F01F0301337A6802FB03F318460837A2
:1003A000BD4680BD00400E4080B582B000AF0D4814
:1003B00000F01CFA0346FB70FB78072B05D0092BD5
:1003C00007D1FFF713FF786006E0FFF7C7FF7860FB
:1003D00002E000237B6000BF7B6818460837BD46FB
:1003E00080BD00BF06000C0080B584B000AF78600F
:1003F0007B68002B1CD11B4800F0F8F90346FB7208
:1004000000BFFB7A013B072B23D801A252F823F04F
:1004100035040000530400005304000043040000AE
:1004200053040000530400003B0400004B04000090
:10043000002312E00023FB600EE0FFF78FFFF8605F
:100440000AE0FFF70BFFF86006E0FFF797FFF860A0
:1004500002E00023FB6000BFFB6818461037BD4672
:1004600080BD00BF98002E0090B585B000AF7860C9
:100470000023BB607B68334A934206D0324A9342E2
:1004800003D0324A934200D000E000BF786800F009
:10049000ADF90346FB607B682A4A93420DD02A4A95
:1004A000934211D0294A934200D014E0284BD3F84C
:1004B000803003F00703FB600DE0254BD3F8843058
:1004C00003F00703FB6006E0214BD3F8883003F00C
:1004D0000703FB6000BFFB68042B2ED801A252F873
:1004E00023F000BF35050000F904000001050000FD
:1004F0001105000009050000FFF7ECFEB8601CE0E4
:10050000FFF7FAFEB86018E0FFF7EDFEB86014E000
:10051000FFF74CFE04460E4BD3F800311B0E03F0E0
:10052000010301331846FFF70AFF0346B4FBF3F358
:10053000BB6002E00023BB6000BFBB6818461437F5
:10054000BD4690BD03001C000500200002001A00FB
:1005500000400E4080B483B000AF78600A4BD3F8FF
:10056000443103F00103002B08D100BF064BD3F840
:1005700040217B681340002BF8D100E000BF0C370E
:10058000BD465DF8047B704700400E4080B586B0E4
:1005900000AF78600B46FB7000233B617B681B0A51
:1005A00003F00F03013B092B44D801A252F823F0BA
:1005B000D9050000E50500003506000035060000FD
:1005C000DF050000EB050000F50500003506000022
:1005D000FF0500000B060000184B7B6118E0184B6C
:1005E0007B6115E0174B7B6112E0174B7B610123A8
:1005F0003B610DE0154B7B6110233B6108E0144B20
:100600007B614FF480333B6102E0124B7B6100BFA2
:100610007B681B0B03F01F03FB603B69002B02D0C0
:100620003869FFF797FFFB781A46F9687869FFF792
:100630006FFE00E000BF1837BD4680BD00400E4091
:10064000B0400E40C0400E40E0400E40E8400E403A
:10065000F0400E4050410E4080B584B000AF78604D
:100660007B6803F47813B3F5602F00F0A580B3F531
:10067000602F16D8B3F5802F31D0B3F5802F05D871
:10068000002B28D0B3F5003F3CD09EE0B3F5202FDF
:1006900047D0B3F5402F00F08B80B3F5002F2DD05D
:1006A00093E0B3F5D01F4BD0B3F5D01F09D8B3F505
:1006B000A01F4FD0B3F5B01F63D0B3F5901F44D047
:1006C00083E0B3F5001F6ED0B3F5381F78D0B3F5D3
:1006D000E01F51D079E0FFF789FDF86078E0FFF77F
:1006E00085FDF8603D4BD3F80C311B0AC3F30803BA
:1006F0000133FA68B2FBF3F3FB6069E0FFF776FDC4
:10070000F86065E0FFF772FDF860344BD3F808310C
:100710001B0AC3F308030133FA68B2FBF3F3FB606F
:1007200056E0FFF763FDF8602C4BD3F814311B0A39
:1007300003F01F030133FA68B2FBF3F3FB6047E0F9
:100740002748FFF791FEF86042E02648FFF78CFE4D
:10075000F8603DE02248FFF787FEF8601F4BD3F8B2
:10076000203103F00F031846FFF7E9FD0246FB684E
:10077000B3FBF2F3FB602BE01B48FFF775FEF8605C
:1007800026E01948FFF770FEF860144BD3F82831C3
:1007900003F003031846FFF7D2FD0246FB68B3FBE4
:1007A000F2F3FB6014E00F48FFF75EFEF8600FE025
:1007B000FFF7FAFDF8600BE0FFF7D0FDF86007E007
:1007C0000020FFF711FEF86002E00023FB6000BF8D
:1007D000FB6818461037BD4680BD00BF00400E4084
:1007E00002001A000500200003001C0080B485B040
:1007F00000AF78600123FB737B6803F00F03BB60DD
:10080000BB68013B072B00F2AD8001A252F823F038
:10081000310800006308000093080000650900002B
:10082000D908000009090000650900002909000035
:10083000514BD3F8943003F00703032B07D0042B5C
:1008400002D0022B06D008E00223FB7308E003234A
:10085000FB7305E00423FB7302E00523FB7300BF79
:1008600083E0454BD3F8803003F00703022B06D01A
:10087000042B07D0012B08D10323FB7308E00223CC
:10088000FB7305E00A23FB7302E00123FB7300BF47
:100890006BE0394BD3F8843003F00703013B032BA3
:1008A00016D801A252F823F0B9080000BF080000D2
:1008B000CB080000C50800000323FB730BE00223F4
:1008C000FB7308E00A23FB7305E00623FB7302E0D9
:1008D0000123FB7300BF48E0274BD3F8883003F0B7
:1008E0000703022B06D0042B07D0012B08D10323CA
:1008F000FB7308E00223FB7305E00A23FB7302E0AD
:100900000123FB7300BF30E01B4B1B6F03F001039F
:10091000002B05D0012B00D027E00923FB7302E058
:100920000723FB7300BF20E0134BD3F85C3103F0C7
:100930003003102B0CD0102B02D8002B05D014E064
:10094000202B08D0302B09D00FE00123FB7308E0E7
:100950000723FB7305E00423FB7302E00823FB730A
:1009600000BF02E00023FB7300BFFB7B1846143777
:10097000BD465DF8047B704700400E4080B483B0F4
:1009800000AFEFF310833B603B687B6072B67B681F
:1009900018460C37BD465DF8047B704780B483B0C1
:1009A00000AF78607B68002B00D162B600BF0C37C7
:1009B000BD465DF8047B704780B485B000AF7860B9
:1009C00039607B6803F1C063FB60FB683A681A60BA
:1009D00000BF1437BD465DF8047B704780B485B016
:1009E00000AF786039607B6803F18063FB60FB686F
:1009F0003A681A6000BF1437BD465DF8047B704743
:100A000080B582B000AF03463960FB71FB79002BE3
:100A10000DD0FB79012B0AD0FB79022B07D0FB7993
:100A2000032B04D0FB79042B01D0FB79052BFA7939
:100A300013465B0013441B010C3303F1804303F5A1
:100A4000204301213A6801FA02F211461846FFF7E5
:100A5000C5FF00BF0837BD4680BD80B582B000AF7E
:100A600003463960FB71FB79002B0DD0FB79012B1C
:100A70000AD0FB79022B07D0FB79032B04D0FB793A
:100A8000042B01D0FB79052BFA7913465B00134444
:100A90001B010C3303F1804303F5204301213A6825
:100AA00001FA02F211461846FFF786FF00BF083729
:100AB000BD4680BD80B584B000AFB9607B600346A1
:100AC000FB731346BB73FB7B002B0DD0FB7B012B11
:100AD0000AD0FB7B022B07D0FB7B032B04D0FB7BD4
:100AE000042B01D0FB7B052BBB7B002B0DD07B683F
:100AF000002B05D0FB7BB9681846FFF7AEFF04E07A
:100B0000FB7BB9681846FFF77BFFBB68072B20D833
:100B10002D49FA7B13465B0013441B010B4404333D
:100B20001A68BB689B000F2101FA03F3DB431340F3
:100B3000B97BBA68920001FA02F211462248FA7BA8
:100B4000194313465B0013441B010344043319602B
:100B500025E01D49FA7B13465B0013441B010B443F
:100B600008331A68BB6803F18043083B9B000F21E0
:100B700001FA03F3DB4302EA0301BA7BBB6803F12A
:100B80008043083B9B0002FA03F30F48FA7B1943AA
:100B900013465B0013441B01034408331960BB7BFD
:100BA000002B0DD17B68002B05D0FB7BB968184664
:100BB000FFF753FF04E0FB7BB9681846FFF720FFFF
:100BC00000BF1037BD4680BD00A0004080B485B096
:100BD00000AF7860194B5B69DBB29B00DBB203F0BE
:100BE0003C03FB73154B1B699B0903F00303DAB24B
:100BF000FB7B1343FB737B68FA7B9A700F4B1B697B
:100C0000DBB203F03F03DAB27B685A700B4B9B698F
:100C10001B09DBB21B01FB73084BDB691B0903F0EB
:100C20000F03DAB2FB7B1343FB737B68FA7B1A700A
:100C300000BF1437BD465DF8047B7047D0FF0FE05E
:100C400080B483B000AF78607B68094A934203D0D8
:100C50007B68084A934201D1012300E0002303F09E
:100C60000103DBB218460C37BD465DF8047B7047C4
:100C7000008001400084014080B584B000AF7860FE
:100C800039607868FFF7DCFF0023FB603B681B7866
:100C900083F00103DBB2002B02D07B6802225A6092
:100CA0007B6800225A623B689B781A063B68DB78B7
:100CB0001B041A433B689B799B021A433B68DB7910
:100CC0001B0213433A68127A13433A685278002A97
:100CD00001D0402200E0002213433A68527A002AF1
:100CE00001D0802200E0002213433A68927A002A61
:100CF00001D0202200E0002213433A68D27A002A71
:100D000001D0102200E0002213433A68127B002A2F
:100D100001D0082200E000221343FB603B681B79EE
:100D2000002B02D04FF4005200E000223B685B79B8
:100D3000002B02D04FF0805300E000231343FA68E9
:100D40001343FB607B68FA681A603B681B78002BD2
:100D500002D07B6801225A6000BF1037BD4680BDBB
:100D600080B586B000AFF860B9607A60FB70BB6890
:100D7000002B03D12448FFF76FFCB860FB78202BD1
:100D80000CD0202B02DC002B05D03AE0402B08D001
:100D9000602B09D035E010237B6108E008237B61DC
:100DA00005E006237B6102E004237B6100BFBB6892
:100DB0005A017B69796801FB03F35B0813443B61CB
:100DC0007B697A6802FB03F33A69B2FBF3F33B6198
:100DD0003B69203B3B613B69DB003B613A690B4B64
:100DE00013403B61FB681B6823F06002FB681A60DC
:100DF000FB681A68FB781A43FB681A60FB683A695B
:100E00005A611837BD4680BD40410500F8FF7F009C
:100E100080B586B000AFF860B9607A60BB68002B1F
:100E200003D10A48FFF718FCB860BB685A1E7B68FC
:100E30005B00B2FBF3F37B617B691B027B61FB68A8
:100E40007A695A6100BF1837BD4680BD4041050030
:100E500080B485B000AF78600B46FB707B680D4AAC
:100E6000934202D07B680C4A934200BFFB78DB437D
:100E7000FB60FB6803F00503FB60FB685A007B68BE
:100E8000DA60FA787B68DA6000BF1437BD465DF837
:100E9000047B7047000001400004014080B582B02F
:100EA00000AF786039607B68294A934202D07B6842
:100EB000284A934200BF786800F0C4F83B689B7CE6
:100EC000002B05D07B681B6843F080427B681A606A
:100ED0003B68DB7C002B07D03B681B7D63F07F0306
:100EE000DBB21A467B689A653B685B7B1A463B68B7
:100EF0001B8A13433A68D2891A437B685A603B685D
:100F000059683B689A683B681B7B7868FFF728FF45
:100F10003B689B7D1B0703F0E0423B68DB7D1B05C4
:100F200003F4E0031A437B681A663B685B7D002B81
:100F300005D07B681B6843F480327B681A603B688D
:100F40001B781A467B68DA6000BF0837BD4680BD53
:100F5000000001400004014080B582B000AF78601D
:100F600039607B68354A934202D07B68344A9342A9
:100F700000BF786800F066F87B681A683B681B8AD7
:100F800043F001039BB219463B689B7B002B02D0C8
:100F90004FF4806300E000230B431A437B681A6020
:100FA0007B681B683A68127D002A02D04FF000521D
:100FB00000E000221A437B681A603B689B7C002B90
:100FC00007D03B68DB7C63F07F03DBB21A467B68AB
:100FD0009A653B681B7B43F480527B685A603B6890
:100FE00059683B689B681A467868FFF711FF3B68B1
:100FF0005B7B002B02D07B681022DA603B689B7D14
:101000001B0703F0E0423B68DB7D1B0503F4E003B4
:101010001A437B681A663B685B7D002B05D07B68B2
:101020001B6843F480327B681A603B681B781A4661
:101030007B68DA6000BF0837BD4680BD0000014014
:101040000004014080B483B000AF78607B681F4A21
:10105000934202D07B681E4A934200BF7B6840F6F1
:10106000AA62DA607B6800221A607B6841F205029E
:101070005A607B6800229A607B6800225A617B6814
:101080000022DA647B68134A9A647B6800225A67FC
:101090007B6800229A677B680022DA677B680B4ACC
:1010A000934202D17B6800221A657B6800229A6510
:1010B0007B68074A934202D17B680022DA6500BF51
:1010C0000C37BD465DF8047B704700BF000001404F
:1010D00000040140F9FF010080B483B000AF7860E4
:1010E00000BF7B681B6903F08003002BF9D07B688D
:1010F000DB69DBB218460C37BD465DF8047B7047F0
:1011000080B483B000AF78600B46FB7000BF7B6893
:101110001B6903F04003002BF9D0FA787B685A630F
:1011200000BF7B681B6903F02003002BF9D07B68AC
:10113000DB69DBB218460C37BD465DF8047B7047AF
:1011400080B483B000AF78600B46FB7000BF7B6853
:101150001B6903F04003002BF9D0FA787B685A63CF
:1011600000BF0C37BD465DF8047B704780B582B088
:1011700000AF47233B7100237B710023BB71002329
:101180003B7000237B700023BB703A463B1D194621
:10119000032001F02FFA7B784F2B06D1BB781B0977
:1011A000DBB20D2B01D1012300E0002318460837E4
:1011B000BD4680BD80B58CB000AF002387F82C30D1
:1011C000002387F82D30002387F82E30474A07F197
:1011D00028031268114619800233120C1A70112369
:1011E00087F82430002387F82530002387F826303D
:1011F000122387F82030002387F82130002387F856
:10120000223013233B7700237B770023BB7707F142
:101210002C0207F128031946032001F0EBF907F12E
:101220002C0207F124031946032001F0E3F907F12A
:101230002C0207F120031946032001F0DBF907F126
:101240002C0207F11C031946032001F0D3F9284AA8
:1012500007F118031268114619800233120C1A7034
:1012600007F12C0207F118031946032001F0C2F917
:10127000204A07F114031268114619800233120C38
:101280001A7007F12C0207F114031946032001F02C
:10129000B1F900233B61184A07F10C0312681146AB
:1012A00019800233120C1A7007F12C0207F10C039B
:1012B0001946032001F09EF9104B1B68BB6007F133
:1012C000100207F108031946042001F093F90C4BB2
:1012D0001B687B6007F110023B1D1946042001F0DA
:1012E00089F900BF3037BD4680BD00BF205E0000D9
:1012F000245E0000285E00002C5E0000305E0000CE
:10130000345E000080B58AB000AF07F10803002208
:101310001A605A601E4A3B4692E8030083E80300C5
:1013200000237B6207F108023B461946082001F0C2
:10133000A5F9BB7B87F823303B7B1A067B7B1B041C
:101340001A44BB7B1B021344FA7B13447B62114B90
:10135000FB617B6A07EE903AF8EE677AB7EE007AA7
:1013600077EE876A97ED077AC6EE877AC7ED067A39
:10137000094B7B6197ED067AD7ED057A67EE277A00
:10138000C7ED047A3B6918462837BD4680BD00BFCB
:10139000385E0000AAAA2A405555D530000000004A
:1013A00090B587B000AF00233B7300237B7300230D
:1013B000BB732D4A07F108031268114619800233E6
:1013C000120C1A7007F10C0207F1080319460320EA
:1013D00001F010F97B7BFB753B7BBB75234A3B1D02
:1013E0001268114619800233120C1A7007F10C02B0
:1013F0003B1D1946032001F0FDF8FFF783FF38611C
:10140000386901F0F9FA14A3D3E9002301F076FC5E
:1014100003460C461846214611A3D3E9002301F0E8
:101420008BF903460C461846214601F04FFD034652
:101430003B6110233B72FB7D7B72BB7DBB7207F16E
:101440000C0207F108031946032001F0D3F83B69A9
:1014500018461C37BD4690BD21020EA14ACD3E3F25
:101460006666666666127140405E0000445E00007B
:1014700080B586B000AF2E4B1B6EFB602C4BDB6E35
:10148000FA681340FB60FB68002B00DAFEE70023DC
:101490007B6101233B6144E0FA683B691340002B08
:1014A00039D0234A3B6993667B691B01214A134467
:1014B000BB60BB681B68002B2DD0BB689B685A1CA7
:1014C000BB689A60BB681B68BA689168BA68526862
:1014D000786998470346002B0CBF01230023FB715A
:1014E000BB685B7B012B16D1FB79002B13D0124A12
:1014F0007B695B01134403F1080213796FF3410325
:1015000013710D4A7B695B01134403F118021379CF
:101510006FF3410313717B6901337B613B695B00AE
:101520003B617B69072BB7D900BF1837BD4680BD2B
:1015300000200E400C0200208C02002080B483B0FA
:1015400000AF0346FB71FB7903F01F02074997F9CF
:1015500007305B09012000FA02F241F8232000BFA6
:101560000C37BD465DF8047B704700BF00E100E02A
:1015700080B400AF044BDB6C1B0EDBB21846BD46DB
:101580005DF8047B704700BFB081E00F80B487B086
:1015900000AFF860B9607A60FB6803F10473DA00A9
:1015A000BB6813449B007B617B697A681A6000BF4B
:1015B0001C37BD465DF8047B704780B485B000AF32
:1015C000786039607B6803F1C063FB60FB683A6850
:1015D0001A6000BF1437BD465DF8047B704780B4C5
:1015E00085B000AF786039607B6803F18063FB6091
:1015F000FB683A681A6000BF1437BD465DF8047B8B
:10160000704780B582B000AF03463960FB71FB794B
:10161000002B0DD0FB79012B0AD0FB79022B07D0D0
:10162000FB79032B04D0FB79042B01D0FB79052B2C
:10163000FA7913465B0013441B010C3303F180431A
:1016400003F5204301213A6801FA02F211461846D7
:10165000FFF7C5FF00BF0837BD4680BD80B582B02B
:1016600000AF03463960FB71FB79002B0DD0FB798D
:10167000012B0AD0FB79022B07D0FB79032B04D076
:10168000FB79042B01D0FB79052BFA7913465B001B
:1016900013441B010C3303F1804303F52043012164
:1016A0003A6801FA02F211461846FFF786FF00BFBA
:1016B0000837BD4680BD000080B483B000AF03464C
:1016C0003960FB71FB79002B0DD0FB79012B0AD01F
:1016D000FB79022B07D0FB79032B04D0FB79042B79
:1016E00001D0FB79052B01223B6802FA03F308497C
:1016F000FA79184613465B0013441B010B44183358
:10170000186000BF0C37BD465DF8047B704700BF12
:1017100000A0004080B586B000AF4FF050133B6191
:101720000023FB60FFF724FF0346FB723B4618468D
:10173000FFF74CFAFB7A8E2B22D8204BD3F8B0302F
:101740007B601E4A7B6843F00403C2F8B03000237C
:101750007B610EE01A483A69FB6842EA03017A6944
:1017600013465B0013441B01034419607B6901337A
:101770007B617B69052BEDD9104A7B68C2F8B030DC
:10178000FB7A8F2B07D80D4BDB6A23F07F030B4AC4
:1017900043F02003D3627B78012B05D1094B1B68F2
:1017A000084A43F00403136000220D210648FFF7A6
:1017B000EDFE00BF1837BD4680BD00BF00400E40A3
:1017C00000A0004064310E4054300E4080B483B01D
:1017D00000AF78604FF6FF7318460C37BD465DF8D2
:1017E000047B704780B483B000AF786039607B6859
:1017F0003A685A6100BF0C37BD465DF8047B7047FC
:1018000080B483B000AF786039607B689A693B68C8
:101810001A437B689A6100BF0C37BD465DF8047BB4
:10182000704780B582B000AF786039607868FFF7A4
:10183000CDFF7B683A68DA6100BF0837BD4680BDDE
:10184000B0B586B000AF01212848FEF79FFE012108
:101850002748FEF79BFE01212648FEF797FE264B00
:101860003C461D460FCD0FC495E8030084E80300F5
:101870004FF440733B820123BB7300237B753B46CF
:1018800019461E48FFF768FB1C4B0B225A671B4B7F
:101890001B4A9A670123042209210220FFF70AF953
:1018A0000123042206210220FFF704F9002301226C
:1018B00007210220FFF7FEF801230422082102205D
:1018C000FFF7F8F80D4BDB680C4A43F40063D36074
:1018D0000A4BDB68094A43F48063D360052107485B
:1018E000FFF7B6FA00BF1837BD46B0BD00250800A7
:1018F0000032040040410500485E00000004014041
:101900000B0B000B80B582B000AF78607B68032BB7
:101910002ED801A252F823F0291900003B1900002B
:101920004D1900005F1900000A210220FFF769FE2F
:101930000B210220FFF765FE1AE00A210220FFF7C3
:101940008DFE0B210220FFF75CFE11E00A21022030
:10195000FFF757FE0B210220FFF780FE08E00A2167
:101960000220FFF77BFE0B210220FFF777FE00BF6E
:1019700000BF0837BD4680BD90B583B000AF0121E0
:101980001648FFF72FFF164B1B8841F28732934210
:1019900006D8134B1B8801339AB2114B1A8018E0FA
:1019A00006210520FFF788FEFFF704FC0C4B002200
:1019B0001A80FFF7A7FC78600A4802F047FA7868B7
:1019C00001F01AF803460C461A462346064802F070
:1019D0003DFA00BF0C37BD4690BD00BF00800140FE
:1019E0008C030020605E0000645E000080B584B05F
:1019F00000AF01211048FEF7C9FD42F210710F48F7
:101A0000FFF70FFF3B4600221A605A609A601A7374
:101A100001233B7001237B7001210848FFF7F0FE92
:101A20000A20FFF78BFD3B4619460448FFF724F9CF
:101A300000BF1037BD4680BD000204000080014099
:101A400090B589B000AFFFF765FEFFF7F9FE00F033
:101A5000D9F9314802F06EFAFFF7C8FF00230422DB
:101A60000A210220FFF726F8002304220B2102207E
:101A7000FFF720F80023042206210520FFF71AF8BB
:101A8000FFF774FB0346FB77FB7F002B40D001235D
:101A9000042206210520FFF70DF8204802F0D6F9B0
:101AA000FFF788FB0020FFF72DFFFFF72BFC786185
:101AB000786900F0A1FF03460C461A4623461848F1
:101AC00002F0C4F90120FFF71DFFFFF71BFC38618E
:101AD000386900F091FF03460C461A462346114828
:101AE00002F0B4F90220FFF70DFFFFF70BFCF860DE
:101AF000F86800F081FF03460C461A4623460A4860
:101B000002F0A4F9FFF74CFCB86000237B6001E011
:101B10000123BB61FEE700BF705E0000805E000035
:101B20009C5E0000A85E0000B45E000080B483B03C
:101B300000AF7860002318460C37BD465DF8047B83
:101B4000704780B483B000AF7860FEE780B483B0A4
:101B500000AF786039603B684FF400525A60002350
:101B600018460C37BD465DF8047B704780B483B0DF
:101B700000AF7860012318460C37BD465DF8047B42
:101B8000704780B485B000AFF860B9607A60002318
:101B900018461437BD465DF8047B704780B586B0A3
:101BA00000AFF860B9607A6000237B610FE000F05D
:101BB00097F938613B69B3F1FF3F0ED0BB685A1CFF
:101BC000BA603A69D2B21A707B6901337B617B6873
:101BD0005A1E7A60002BEAD100E000BF7B69002B1F
:101BE00002DC4FF0FF3300E07B6918461837BD4632
:101BF00080BD000090B585B000AF7860184B1B68C1
:101C0000002B02D1164B174A1A60154B1B68FB605C
:101C1000134B1A687B681344EFF30882144622467C
:101C2000934212D9104B1B689B68184601F032FB97
:101C300004460E4802F087FA03461A460B4920462E
:101C400000F016F8012001F011FB054B1A687B68C3
:101C50001344034A1360FB6818461437BD4690BD11
:101C6000900300206804002014000020C05E0000E3
:101C700080B586B000AFF860B9607A6000237B6100
:101C800009E0BB685A1CBA601B78184600F068F976
:101C90007B6901337B617A697B689A42F1DB7B68FF
:101CA00018461837BD4680BD80B483B000AF0346E8
:101CB000FB71FB7903F01F02074997F907305B09B5
:101CC000012000FA02F241F8232000BF0C37BD4684
:101CD0005DF8047B704700BF00E100E080B483B092
:101CE00000AF0346FB71FB7903F01F02074997F928
:101CF00007305B09012000FA02F2603341F823202B
:101D000000BF0C37BD465DF8047B704700E100E082
:101D100080B483B000AF786039607B683A689A64B9
:101D200000BF0C37BD465DF8047B704780B483B0BC
:101D300000AF786039607B68DA6C3B68DB431A403F
:101D40007B68DA6400BF0C37BD465DF8047B7047E2
:101D500080B483B000AF786039607B68DA6C3B6830
:101D60001A437B68DA6400BF0C37BD465DF8047B1C
:101D70007047000080B500AF04210248FFF7D6FF8E
:101D800000BF80BD0000014080B500AF04210248C3
:101D9000FFF7DEFF00BF80BD0000014098B500AF37
:101DA000144B1B6903F08003002B20D0124B1B68DF
:101DB000072B1ADC114B1C680E48FFF78DF9034600
:101DC0001A460F4B1A550D4B1B6801330B4A136013
:101DD000094B1B680133084A1360084B1B68082B2A
:101DE00005D1064B00221A6001E0FFF7C3FF00BFD8
:101DF00098BD00BF000001409C0300209803002014
:101E0000A0030020B0B588B000AF01212D48FEF737
:101E1000BDFB01212C48FEF7B9FB01230422002160
:101E20000020FEF747FE0023012201210020FEF7DB
:101E300041FE264BFB61264B3C1D1D460FCD0FC4BA
:101E400095E8030084E80300012304220521002013
:101E5000FEF730FE01211F48FEF798FB00233B717F
:101E60003B1D1946F869FFF719F8FB6903225A6709
:101E7000FB699B6F23F4F85323F01F03FA69936700
:101E800004211248FFF744FF0B20FFF727FF04212E
:101E90000E48FFF75DFF0B20FFF706FF0521F869ED
:101EA000FEF7D6FF0C4B1B68986800230222002126
:101EB00002F058F8094B01221A7000BF2037BD46C6
:101EC000B0BD00BF404105000025080000000140F2
:101ED000DC5E00000022040014000020A9030020A2
:101EE00080B582B000AF4FF0FF337B60184B1B789A
:101EF00083F00103DBB2002B01D0FFF783FFFEF775
:101F00003DFD3860134B1B68002B18DD124B1B681E
:101F1000124AD35CDBB27B600F4B1B6801330E4A65
:101F200013600D4B1B68082B02D10B4B00221A606B
:101F3000084B1B68013B074A1360FFF725FF386811
:101F4000FEF72CFD7B6818460837BD4680BD00BFF4
:101F5000A90300209C03002094030020A00300207C
:101F600080B582B000AF0346FB710F4B1B7883F046
:101F70000103DBB2002B01D0FFF744FF0B4B1B78B2
:101F8000002B06D0FB790A2B03D10D210848FFF75F
:101F9000D7F8FB7919460648FFF7D2F8FB791846BF
:101FA0000837BD4680BD00BFA9030020A80300205C
:101FB0000000014080B483B000AF7860064A7B68BF
:101FC00004331B01134404331B6818460C37BD4609
:101FD0005DF8047B704700BF0020044080B483B0EC
:101FE00000AF78603960074A7B6804331B011344F3
:101FF00004333A681A6000BF0C37BD465DF8047BB5
:10200000704700BF0020044080B400AF034B9B68C2
:102010001846BD465DF8047B704700BF00200440B1
:1020200080B483B000AF7860044A7B68136200BF5D
:102030000C37BD465DF8047B704700BF00200440AC
:1020400080B483B000AF7860064B5A6A7B68DB438C
:10205000044913404B6200BF0C37BD465DF8047B5A
:10206000704700BF0020044080B483B000AF7860A8
:10207000054B5A6A04497B6813434B6200BF0C3717
:10208000BD465DF8047B70470020044080B483B0F7
:1020900000AF064B5B6A7B60044B9A697B68134018
:1020A00018460C37BD465DF8047B7047002004409D
:1020B00080B586B000AFFEF761FC3861FFF7E6FF40
:1020C000F860FB6823F005031846FFF7A9FFFB68DB
:1020D00003F00403002B30D01B4B01221A70FFF7D2
:1020E00093FF78610420FFF7ABFF184B1B687A69F8
:1020F000D31ABB60B86800F02DF800F093F9786946
:1021000000F0C2F9FFF780FF7861104B1B687A6915
:10211000D31ABB600120FFF74DFF02460B4B1B6833
:10212000D31A7B600A4B1B78002B03D0BA687B68FC
:102130009A42D7D8044B00221A703869FEF72EFC59
:1021400000BF1837BD4680BD540400205004002055
:1021500055040020F0B587B000AF786000237B61A4
:1021600056E1AF497A6913469B001344DB000B44E8
:102170001D3300221A70AA497A6913469B00134442
:10218000DB000B441C331B78002B00F03E81A4497C
:102190007A6913469B001344DB000B44D3E90034F7
:1021A0007A6811464FF00002A24208BF99421AD243
:1021B0009B497A6913469B001344DB000B44D3E927
:1021C00000567B684FF0000429463246C91A62EB7C
:1021D0000402934C786903469B000344DB002344CC
:1021E000C3E9001211E18E497A6913469B0013443A
:1021F000DB000B441F331B78002B0AD188497A6916
:1022000013469B001344DB000B441C3300221A705E
:10221000E6E07B6819464FF00002814C786903467E
:102220009B000344DB002344D3E900560B461446CD
:102230005B1B64EB0604C7E9023479497A691346EB
:102240009B001344DB000B440833D3E90045744979
:102250007A6913469B001344DB000B440833D3E92F
:102260000023D7E9020100F081FEA41A65EB030503
:1022700021462A466A4C786903469B000344DB00EA
:102280002344C3E9001266497A6913469B0013444C
:10229000DB000B4410331B68002B50DD60497A696A
:1022A00013469B001344DB000B44143319685C484D
:1022B0007A6913469B001344DB00034410331B6808
:1022C000194457487A6913469B001344DB000344C2
:1022D0001433196052497A6913469B001344DB009A
:1022E0000B4414331B68F32B7AD94D497A69134692
:1022F0009B001344DB000B44D3E90034591C44F128
:102300000002474C786903469B000344DB002344EA
:10231000C3E9001242497A6913469B001344DB006B
:102320000B4414331B68A3F1F4013D487A6913464A
:102330009B001344DB0003441433196050E0384918
:102340007A6913469B001344DB000B44143319686D
:1023500033487A6913469B001344DB00034410336F
:102360001B68C91A2E487A6913469B001344DB0088
:102370000344143319602A497A6913469B001344B5
:10238000DB000B4414331B68F32B29D924497A69E9
:1023900013469B001344DB000B44D3E9003413F1D4
:1023A000FF3144F1FF321E4C786903469B00034421
:1023B000DB002344C3E9001219497A6913469B00E4
:1023C0001344DB000B4414331B68A3F1F4011448DD
:1023D0007A6913469B001344DB00034414331960ED
:1023E0000F497A6913469B001344DB000B441833F2
:1023F0001B68002B09D00A497A6913469B001344D5
:10240000DB000B441D3301221A707B6901337B61B1
:102410007B69032B7FF7A5AE00BF1C37BD46F0BD1F
:10242000B003002090B583B000AF00237B6022E0B2
:1024300014497A6813469B001344DB000B441D3398
:102440001B78002B14D00F497A6813469B00134465
:10245000DB000B4418331C6878680A497A68134615
:102460009B001344DB000B4420331B681946A04734
:102470007B6801337B607B68032BD9DD00BF0C37A1
:10248000BD4690BDB003002090B58BB000AF786022
:102490004FF0FF334FF0FF34C7E9063400237B626F
:1024A00027E031497A6A13469B001344DB000B4452
:1024B0001C331B78002B19D02B497A6A13469B00DA
:1024C0001344DB000B44D3E90012D7E90634A242DF
:1024D00008BF99420AD224497A6A13469B001344E2
:1024E000DB000B44D3E90034C7E906347B6A0133CF
:1024F0007B627B6A032BD4DD1C4B00221A70D7E968
:102500000634B4F1FF3F08BFB3F1FF3F27D0D7E94E
:102510000634C7E904346FF06403FB60FB681946B6
:102520004FF00002D7E90434A24208BF994201D219
:102530000B461446C7E906340D4A7B681360042035
:10254000FFF76EFDBA697B68134419460120FFF757
:1025500045FD064B01221A700420FFF785FD00BFE0
:102560002C37BD4690BD00BFB003002055040020AD
:102570005004002080B485B000AF786039607B687B
:1025800003F10473DA003B6813449B00FB60FB68B3
:102590001B6818461437BD465DF8047B704780B54C
:1025A00082B000AF03463960FB71FB79002B0DD080
:1025B000FB79012B0AD0FB79022B07D0FB79032B87
:1025C00004D0FB79042B01D0FB79052BFA79134653
:1025D0005B0013441B011C3303F1804303F52043CC
:1025E00039681846FFF7C6FF034618460837BD4648
:1025F00080BD000090B587B000AFF860B9607A6028
:102600000023042209210220FEF754FA00237B61F3
:1026100018E07B69BA68134419787B697A68D41822
:102620001548FEF76DFD034623707B697A681344F5
:102630001B78FB747B69BA6813441B78BB747B6995
:1026400001337B617A69FB689A42E2DB0A4BDB6803
:10265000094A43F40063D360074BDB68064A43F43E
:102660008063D3600123042209210220FEF722FAAD
:1026700000BF1C37BD4690BD0004014090B589B035
:1026800000AFF860B9607A600023042209210220BB
:10269000FEF710FA0023FB612EE0FB69BA681344D1
:1026A0001B78442B0FD107210220FFF778FF034648
:1026B000BB6105E007210220FFF771FF0346BB6104
:1026C000BB69012BF6D0FB69BA6813441978FB6922
:1026D0007A68D4181548FEF713FD03462370FB698A
:1026E0007A6813441B78FB75FB69BA6813441B783E
:1026F000BB75FB690133FB61FA69FB689A42CCDB6D
:102700000A4BDB68094A43F40063D360074BDB687C
:10271000064A43F48063D360012304220921022086
:10272000FEF7C8F900BF2437BD4690BD0004014044
:1027300081F0004102E000BF83F0004330B54FEA72
:1027400041044FEA430594EA050F08BF90EA020FDF
:102750001FBF54EA000C55EA020C7FEA645C7FEA72
:10276000655C00F0E2804FEA5454D4EB5555B8BF95
:102770006D420CDD2C4480EA020281EA030382EA06
:10278000000083EA010180EA020281EA0303362D98
:1027900088BF30BD11F0004F4FEA01314FF4801C6B
:1027A0004CEA113102D0404261EB410113F0004F7D
:1027B0004FEA03334CEA133302D0524263EB430334
:1027C00094EA050F00F0A780A4F10104D5F1200ED2
:1027D0000DDB02FA0EFC22FA05F2801841F100012D
:1027E00003FA0EF2801843FA05F359410EE0A5F101
:1027F00020050EF1200E012A03FA0EFC28BF4CF032
:10280000020C43FA05F3C01851EBE37101F00045E7
:1028100007D54FF0000EDCF1000C7EEB00006EEBF4
:102820000101B1F5801F1BD3B1F5001F0CD349087E
:102830005FEA30004FEA3C0C04F101044FEA4452D5
:1028400012F5800F80F09A80BCF1004F08BF5FEA5C
:10285000500C50F1000041EB045141EA050130BD3C
:102860005FEA4C0C404141EB010111F4801FA4F1DF
:102870000104E9D191F0000F04BF01460020B1FA34
:1028800081F308BF2033A3F10B03B3F120020CDA6C
:102890000C3208DD02F1140CC2F10C0201FA0CF04A
:1028A00021FA02F10CE002F11402D8BFC2F1200CAF
:1028B00001FA02F120FA0CFCDCBF41EA0C01904065
:1028C000E41AA2BF01EB0451294330BD6FEA0404AE
:1028D0001F3C1CDA0C340EDC04F11404C4F1200299
:1028E00020FA04F001FA02F340EA030021FA04F3AB
:1028F00045EA030130BDC4F10C04C4F1200220FA02
:1029000002F001FA04F340EA0300294630BD21FA3F
:1029100004F0294630BD94F0000F83F4801306BF05
:1029200081F480110134013D4EE77FEA645C18BFF9
:102930007FEA655C29D094EA050F08BF90EA020F90
:1029400005D054EA000C04BF1946104630BD91EA88
:10295000030F1EBF0021002030BD5FEA545C05D18B
:102960004000494128BF41F0004130BD14F58004CA
:102970003CBF01F5801130BD01F0004545F0FE413E
:1029800041F470014FF0000030BD7FEA645C1ABF73
:10299000194610467FEA655C1CBF0B46024650EAAA
:1029A000013406BF52EA033591EA030F41F40021D6
:1029B00030BD00BF90F0000F04BF0021704730B55C
:1029C0004FF4806404F132044FF000054FF0000131
:1029D00050E700BF90F0000F04BF0021704730B5F2
:1029E0004FF4806404F1320410F0004548BF4042C7
:1029F0004FF000013EE700BF42004FEAE2014FEA1C
:102A000031014FEA02701FBF12F07F4393F07F4FF6
:102A100081F06051704732F07F4208BF704793F0F9
:102A20007F4F04BF41F40021704730B54FF460740C
:102A300001F0004521F000411CE700BF50EA01020F
:102A400008BF704730B54FF000050AE050EA0102B8
:102A500008BF704730B511F0004502D5404261EB28
:102A600041014FF4806404F132045FEA915C3FF469
:102A7000D8AE4FF003025FEADC0C18BF03325FEA06
:102A8000DC0C18BF033202EBDC02C2F1200300FAB7
:102A900003FC20FA02F001FA03FE40EA0E0021FADC
:102AA00002F11444BDE600BF70B54FF0FF0C4CF4CA
:102AB000E06C1CEA11541DBF1CEA135594EA0C0F7C
:102AC00095EA0C0F00F0DEF82C4481EA030621EAB7
:102AD0004C5123EA4C5350EA013518BF52EA0335F2
:102AE00041F4801143F4801338D0A0FB02CE4FF0A4
:102AF0000005E1FB02E506F00042E0FB03E54FF0D4
:102B00000006E1FB03569CF0000F18BF4EF0010ECB
:102B1000A4F1FF04B6F5007F64F5407404D25FEAC7
:102B20004E0E6D4146EB060642EAC62141EA55517A
:102B30004FEAC52040EA5E504FEACE2EB4F1FD0CBC
:102B400088BFBCF5E06F1ED8BEF1004F08BF5FEA3A
:102B5000500E50F1000041EB045170BD06F00046EC
:102B600046EA010140EA020081EA0301B4EB5C0499
:102B7000C2BFD4EB0C0541EA045170BD41F4801191
:102B80004FF0000E013C00F3AB8014F1360FDEBFB6
:102B9000002001F0004170BDC4F10004203C35DA92
:102BA0000C341BDC04F11404C4F1200500FA05F315
:102BB00020FA04F001FA05F240EA020001F00042B6
:102BC00021F0004110EBD37021FA04F642EB06012C
:102BD0005EEA430E08BF20EAD37070BDC4F10C0456
:102BE000C4F1200500FA04F320FA05F001FA04F21A
:102BF00040EA020001F0004110EBD37041F1000106
:102C00005EEA430E08BF20EAD37070BDC4F1200510
:102C100000FA05F24EEA020E20FA04F301FA05F278
:102C200043EA020321FA04F001F0004121FA04F220
:102C300020EA020000EBD3705EEA430E08BF20EAF0
:102C4000D37070BD94F0000F0FD101F0004640002A
:102C500041EB010111F4801F08BF013CF7D041EAAC
:102C6000060195F0000F18BF704703F000465200B0
:102C700043EB030313F4801F08BF013DF7D043EA81
:102C80000603704794EA0C0F0CEA135518BF95EA37
:102C90000C0F0CD050EA410618BF52EA4306D1D1BE
:102CA00081EA030101F000414FF0000070BD50EADD
:102CB000410606BF1046194652EA430619D094EA67
:102CC0000C0F02D150EA013613D195EA0C0F05D151
:102CD00052EA03361CBF104619460AD181EA0301A5
:102CE00001F0004141F0FE4141F470014FF000005D
:102CF00070BD41F0FE4141F4780170BD70B54FF0F8
:102D0000FF0C4CF4E06C1CEA11541DBF1CEA135577
:102D100094EA0C0F95EA0C0F00F0A7F8A4EB050459
:102D200081EA030E52EA03354FEA013100F0888050
:102D30004FEA03334FF0805545EA131343EA126319
:102D40004FEA022245EA111545EA10654FEA0026CE
:102D50000EF000419D4208BF964244F1FD0404F587
:102D6000407402D25B084FEA3202B61A65EB0305E3
:102D70005B084FEA32024FF480104FF4002CB6EBA0
:102D8000020E75EB030E22BFB61A754640EA0C0020
:102D90005B084FEA3202B6EB020E75EB030E22BF60
:102DA000B61A754640EA5C005B084FEA3202B6EBA1
:102DB000020E75EB030E22BFB61A754640EA9C0060
:102DC0005B084FEA3202B6EB020E75EB030E22BF30
:102DD000B61A754640EADC0055EA060E18D04FEAEE
:102DE000051545EA16754FEA06164FEAC30343EA8E
:102DF00052734FEAC2025FEA1C1CC0D111F4801F5B
:102E00000BD141EA00014FF000004FF0004CB6E753
:102E100011F4801F04BF01430020B4F1FD0C88BFF2
:102E2000BCF5E06F3FF6AFAEB5EB030C04BFB6EBFD
:102E3000020C5FEA500C50F1000041EB045170BDF0
:102E40000EF0004E4EEA113114EB5C04C2BFD4EB1D
:102E50000C0541EA045170BD41F480114FF0000EA1
:102E6000013C90E645EA060E8DE60CEA135594EA1D
:102E70000C0F08BF95EA0C0F3FF43BAF94EA0C0F20
:102E80000AD150EA01347FF434AF95EA0C0F7FF495
:102E900025AF104619462CE795EA0C0F06D152EAE9
:102EA00003353FF4FDAE1046194622E750EA4106CD
:102EB00018BF52EA43067FF4C5AE50EA41047FF4DE
:102EC0000DAF52EA43057FF4EBAE12E74FEA410241
:102ED000B2F1E04324BFB3F5001CDCF1FE5C0DD978
:102EE00001F0004C4FEAC0024CEA5070B2F1004FC2
:102EF00040EB830008BF20F00100704711F0804FC5
:102F000021D113F13872BCBF01F00040704741F489
:102F100080114FEA5252C2F11802C2F1200C10FA8D
:102F20000CF320FA02F018BF40F001004FEAC12371
:102F30004FEAD32303FA0CFC40EA0C0023FA02F315
:102F40004FEA4303CCE77FEA625307D150EA0133EB
:102F50001EBF4FF0FE4040F44000704701F00040BB
:102F600040F0FE4040F40000704700BF53B94AB93A
:102F7000002908BF00281CBF4FF0FF314FF0FF3081
:102F800000F072B9ADF1080C6DE904CE00F006F85E
:102F9000DDF804E0DDE9022304B070472DE9F047D5
:102FA000089E04468846002B4BD18A42154667D9B5
:102FB000B2FA82F24AB1C2F1200701FA02F320FA12
:102FC00007F7954047EA030894404FEA154E230C53
:102FD000B8FBFEF71FFA85FC0EFB178843EA08438F
:102FE00007FB0CF1994209D9EB1807F1FF3080F08B
:102FF0001B81994240F21881023F2B445B1AA4B214
:10300000B3FBFEF00EFB103344EA034400FB0CFC60
:10301000A44509D92C1900F1FF3380F00781A4459C
:1030200040F2048102382C4440EA0740A4EB0C042F
:1030300000271EB1D4400023C6E900433946BDE84D
:10304000F0878B4209D9002E00F0EB800027C6E9FB
:10305000000138463946BDE8F087B3FA83F7002F00
:1030600047D18B4202D3824200F2FA80841A61EB8C
:10307000030301209846002EE0D0C6E90048DDE7B2
:1030800002B9FFDEB2FA82F2002A40F08F80491BBB
:103090004FEA154E1FFA85F80127B1FBFEFC230C01
:1030A0000EFB1C1143EA014308FB0CF1994207D9BE
:1030B000EB180CF1FF3002D2994200F2CD80844629
:1030C000591AA3B2B1FBFEF00EFB101443EA0444FC
:1030D00008FB00F8A04507D92C1900F1FF3302D2F4
:1030E000A04500F2B6801846A4EB080440EA0C4064
:1030F0009FE7C7F1200CBB4022FA0CFE4EEA030EFC
:1031000001FA07F420FA0CF521FA0CF34FEA1E48F5
:103110002543B3FBF8F92C0C08FB19331FFA8EFA80
:1031200044EA034309FB0AF49C4202FA07F200FA5C
:1031300007F10BD91EEB030309F1FF3080F0878004
:103140009C4240F28480A9F1020973441B1BADB27A
:10315000B3FBF8F008FB103345EA034400FB0AFA1E
:10316000A24508D91EEB040400F1FF336BD2A2453F
:1031700069D90238744440EA0940A0FB0289A4EBF3
:103180000A044C45C2464B4654D351D0002E69D058
:10319000B1EB0A0564EB030404FA0CFCFD40FC40AF
:1031A0004CEA0505C6E90054002747E7C2F12003B1
:1031B00020FA03F7954001FA02F021FA03F34FEAEF
:1031C000154E3843010CB3FBFEF71FFA85F80EFBD2
:1031D000173341EA034107FB08F38B4204FA02F478
:1031E00007D9691807F1FF3C2FD28B422DD9023F36
:1031F0002944CB1A81B2B3FBFEF00EFB103341EA37
:10320000034100FB08F38B4207D9691800F1FF3C2A
:1032100017D28B4215D902382944C91A40EA074708
:103220003BE73746304609E70746E7E61846FBE640
:103230004145ABD2B8EB020A69EB0E0201381346E6
:10324000A4E76046E9E7184695E76746D1E7814677
:103250007CE702382C4447E7ACF1020C2B442FE703
:10326000384608E73746E9E6704700BF08B5074B20
:10327000044613B10021AFF30080054B1868836A40
:1032800003B198472046FEF75CFC00BF0000000039
:10329000545F000070B5114E3568044625B1AB6926
:1032A00013B9284600F062F80D4B9C4206D16C68B9
:1032B000B4F90C3063B1B4F90E0070BD094B9C42F7
:1032C00001D1AC68F4E7084B9C4208BFEC68EFE71B
:1032D000336809221A604FF0FF30EEE71400002037
:1032E000145F0000345F0000F45E0000002310B59E
:1032F0000446C0E90033836081814366C281C0E92E
:1033000004338361194608225C3000F0DDF8054B78
:103310006362054BA362054BE362054B24622363A2
:1033200010BD00BFC1400000E34000001B41000091
:103330003F410000014900F085B800BFC1500000C6
:1033400070B54A1E682555430E4605F1740100F01C
:10335000C3F8044640B10021C0E900160C30A0605B
:1033600005F1680200F0B0F8204670BD836910B521
:10337000044633BBC0E912330365124B124A1B6883
:103380008262984204BF0123836100F01FF86060ED
:10339000204600F01BF8A060204600F017F800223D
:1033A000E06004216068FFF7A1FF01220921A06805
:1033B000FFF79CFF02221221E068FFF797FF01232D
:1033C000A36110BD545F000035330000F8B51B4BFE
:1033D0001E68B369074613B93046FFF7C7FF483682
:1033E000D6E90134013B03D5336833B13668F7E7DA
:1033F000B4F90C506DB16834F4E704213846FFF796
:103400009FFF30600028F1D10C233B60044620462A
:10341000F8BD0B4B6566C4E90055A560C4E90335EA
:10342000C4E905550822294604F15C0000F04CF877
:10343000C4E90D55C4E91255E9E700BF545F000027
:103440000100FFFF2DE9F8438046894600F148045A
:10345000002614B93046BDE8F883D4E90175013F70
:1034600001D52468F5E7AB89012B07D9B5F90E30F2
:10347000013303D029464046C84706436835EEE786
:1034800070B50D4E0D4CA41BA4100025A54209D10A
:103490000B4E0C4C02F0B8FCA41BA4100025A54256
:1034A00005D170BD56F8253098470135EEE756F83E
:1034B000253098470135F2E7E4010020E4010020BF
:1034C000E4010020E801002002440346934200D1B9
:1034D000704703F8011BF9E770B5CD1C25F0030513
:1034E00008350C2D38BF0C25002D064601DBA942FE
:1034F00003D90C233360002070BD01F0F4FE214A93
:103500001468214691B9204C23681BB9304600F05D
:1035100019FD20602946304600F014FD431C24D1DB
:103520000C233360304601F0DFFEE4E70B685B1BE1
:1035300018D40B2B0FD90B60CD50CC18304601F0AE
:10354000D3FE04F10B00231D20F00700C31AD3D0D3
:103550005A42E250D0E78C424B6816BF636013605A
:103560000C46EBE70C464968CCE7C41C24F0030486
:10357000A04205D0211A304600F0E4FC0130CFD043
:103580002560DBE7580400205C0400202DE9F047AB
:1035900088B0002B149F109EDDE9121A1D4627F0FB
:1035A0002007BBBF03F100431D4600232D23144613
:1035B000B8BF1446462F0B7004D0452F00D10136FA
:1035C000022300E0032307AA049206AACDE902A27F
:1035D000CDE9003622462B4600F02EFF472F8046CD
:1035E00002D1119BDB0726D5462F08EB060911D126
:1035F00098F80030302B0AD10022002320462946BB
:1036000002F092FB18B9C6F10106CAF80060DAF8B8
:1036100000309944002200232046294602F084FB12
:1036200038B93022079B4B4505D2591C07911A70B7
:10363000F8E7CDF81C90079B159AA3EB08034046CA
:10364000136008B0BDE8F087F7B500290446BABF9B
:1036500049422D232B23092904F8022B437020DD36
:103660000DF107031F460A2691FBF6F506FB15111F
:103670003031092D03F8011C03F1FF32294609DC22
:103680003031023B02F8011CBB42224604D3101A1F
:1036900003B0F0BD1346E7E713F8012B04F8012B44
:1036A000F2E7302319448370021DC170EFE7000078
:1036B0002DE9F04F91B00C46DDF8688016461F46A4
:1036C000054601F027FD03680893184600F03BFD0E
:1036D00000230E93D8F800300990073323F0070336
:1036E00003F1080294F818A0D4F800B0C8F800203C
:1036F000D3E90023C4E91223D4E9128929F0004355
:103700000B93CDF828804FF0FF32A94BDDE90A0179
:1037100002F03CFB70BB4FF0FF32A54BDDE90A0124
:1037200002F016FB30BB002200234046494602F05F
:1037300005FB10B12D2384F843309E4A9E4BBAF10D
:10374000470F8CBF90469846032323612BF0040358
:1037500023604FF00009009733460FAA2146284600
:1037600000F0ECF9013040F090804FF0FF3011B0E4
:10377000BDE8F08F42464B464046494602F006FB04
:1037800010B18E4A8E4BDAE76368591C4BF48062A5
:103790000EA90DA840D1062363600DF13303CDE9D6
:1037A00001234FF0000C63682260CDE9030A009307
:1037B00042464B46CDE9051C2846FFF7E7FE0AF0D6
:1037C000DF03472B804609D10D9BD81C02DB6268C2
:1037D000934247DDAAF1020A5FFA8AFABAF1650F4D
:1037E0000D9924D80139524604F150000D91FFF78C
:1037F0002BFF0E9A1318012A8146236102DC2268EE
:10380000D10701D5013323619DF83330002BA2D0BD
:103810002D2384F843309EE7BAF1670F00F07881DA
:10382000BAF1470FB9D1002BB7D10123B4E7BAF1F0
:10383000660F19D1002963680CDD216113B9226874
:10384000D20702D501330B4423610D9BA3654FF0D2
:103850000009D9E713B92268D00701D50233F3E78D
:103860000123F1E74FF0670ADDE90D32934205DBF2
:1038700022682361D107E8D50133E5E7002BD4BFE7
:10388000C3F1020301231344DEE723685A0507D47A
:103890002369424631462846B84701302BD164E7B8
:1038A000BAF1650F40F2DD8000220023D4E9120155
:1038B00002F03AFA002833D00123424A3146284622
:1038C000B84701303FF451AFDDE90D239A4202DBE6
:1038D0002368D8070FD5DDE9082331462846B847C5
:1038E00001303FF442AF4FF0000804F11A090E9B7B
:1038F000013B434509DC23689B0700F10481E06834
:103900000F9B9842B8BF184631E701234A4631461B
:103910002846B84701303FF428AF08F10108E6E730
:103920000D9B002B2BDC0123264A31462846B84745
:1039300001303FF41AAF0D9B23B90E9B13B92368D6
:10394000D907D8D5DDE9082331462846B8470130E4
:103950003FF40BAF4FF0000904F11A0A0D9B5B42D4
:103960004B4501DC0E9B94E7012352463146284625
:10397000B84701303FF4F9AE09F10109EEE70E9ABC
:10398000A36D9A42A8BF1A46002A914607DD134646
:10399000314642462846B84701303FF4E6AE04F1CE
:1039A0001A034FF0000B29EAE9790A9316E000BFE9
:1039B000FFFFEF7F5C5F0000585F0000645F000066
:1039C000605F0000685F000001230A9A31462846C4
:1039D000B84701303FF4C9AE0BF1010BD4F858A041
:1039E000AAEB09035B45EFDCDDE90D239A42D044E5
:1039F00015DB2368DA0712D40E9B0D99A3EB0A029C
:103A0000A3EB010A9245A8BF9246BAF1000F0EDC63
:103A10004FF000082AEAEA7A04F11A0919E0DDE910
:103A2000082331462846B8470130E5D19DE6534684
:103A3000424631462846B8470130E9D195E6012390
:103A40004A4631462846B84701303FF48EAE08F169
:103A50000108DDE90D239B1AA3EB0A034345EEDCC5
:103A600049E70E9A012A01DCDB073AD501234246D9
:103A700031462846B84701303FF477AEDDE90823E8
:103A800031462846B847013008F101083FF46DAED1
:103A90000E9B002203F1FF3AD4E91201002302F049
:103AA00043F9C8B95346424631462846B847013023
:103AB0000ED15AE60123524631462846B847013016
:103AC0003FF453AE08F101080E9B013B4345F1DC86
:103AD0004B4604F15002DDE64FF0000804F11A0AEB
:103AE000F2E70123DFE701234A4631462846B8477B
:103AF00001303FF43AAE08F10108E3680F9A9B1ACF
:103B00004345F0DCFBE64FF0000804F11909F4E747
:103B1000002B3FF48AAE4FF0000CCDE9051C0DF1EF
:103B200033012260CDE9030ACDE901210093424629
:103B30004B462846FFF72AFD804645E62DE9F0472B
:103B400091461F468A680B69DDF820809342B8BF12
:103B50001346C9F8003091F8432006460C4612B1CE
:103B60000133C9F800302368990642BFD9F8003004
:103B70000233C9F80030256815F0060507D104F1B5
:103B8000190AE368D9F800209B1AAB4228DC94F8A4
:103B900043302268003318BF012392062DD404F16C
:103BA000430239463046C047013020D02368E568DB
:103BB000D9F8002003F00603042B08BFAD1AA36850
:103BC00022690CBF25EAE57500259342C4BF9B1A04
:103BD000ED184FF000091A344D451AD1002008E0C5
:103BE0000123524639463046C047013003D14FF0D9
:103BF000FF30BDE8F0870135C3E7E1185A1C3020DB
:103C000081F84300224494F8451082F843100233AF
:103C1000C5E70123224639463046C0470130E6D089
:103C200009F10109D8E700002DE9F04301F1430C47
:103C30000C46097E85B06E291746064698460C9AB2
:103C400000F0B38022D8632936D00AD8002900F0CA
:103C5000B980582900F0838004F1420584F84210AD
:103C600032E0642901D06929F6D12068136805067D
:103C700003F104012AD51B681160002B03DA2D2201
:103C80005B4284F843206F480A2239E0732900F030
:103C90009D8008D86F2920D07029DDD1236843F09A
:103CA0002003236003E0752917D07829D4D1782325
:103CB00084F84530644855E01368191D1B6811608D
:103CC00004F1420584F8423001238CE01B68116046
:103CD00010F0400F18BF1BB2CFE713682568181DFE
:103CE0001060280601D51B6802E06806FBD51B881A
:103CF00054486F2914BF0A220822002184F8431077
:103D00006568A560002DC0F29580216821F004014E
:103D10002160002B3DD1002D40F08E806546082AA1
:103D20000BD12368DB0708D5236962689A42DEBF9E
:103D3000302305F8013C05F1FF35ACEB05032361A9
:103D4000CDF800803B4603AA21463046FFF7F6FE39
:103D500001304DD14FF0FF3005B0BDE8F083394858
:103D600084F84510136821681D1D1B6815600A063C
:103D70000BD5CA0744BF41F0200121601BB922685E
:103D800022F0200222601022B7E74D0648BF9BB206
:103D9000EFE76546B3FBF2F102FB1133C35C05F8B4
:103DA000013D0B460029F5D1B9E713682568616923
:103DB000181D106028061B6801D5196002E06A060C
:103DC000FBD51980002323616546B9E71368191DE7
:103DD00011601D6862680021284601F029FA08B1C7
:103DE000401B606063682361002384F84330A7E7C9
:103DF00023692A4639463046C0470130AAD0236895
:103E00009B0713D4E068039B9842B8BF1846A3E70A
:103E100001234A4639463046C04701309AD0013521
:103E2000E368039A9B1AAB42F2DCEBE7002504F14E
:103E30001909F5E7002BACD1037884F8423004F17E
:103E400042056CE76A5F00007B5F00000FB40A4B1D
:103E500013B51C6824B1A36913B92046FFF786FA8D
:103E600005AB049AA1680193204601F09FFD02B0C2
:103E7000BDE8104004B070471400002070B50E4635
:103E8000054618B183690BB9FFF770FAAB69AC68E6
:103E900013B92846FFF76AFA234B9C4217D16C6886
:103EA000A3891B071DD52369DBB1013EA36816F862
:103EB000011F013BA360E9B9002B2EDA22460A213B
:103EC000284600F049F9013011D00A2011E0174BC3
:103ED0009C4201D1AC68E3E7154B9C4208BFEC68FB
:103EE000DEE72146284600F09BF90028DDD04FF0A0
:103EF000FF3070BD002B04DAA2699A4206DC0A2961
:103F000004D023685A1C22601970CFE72246284645
:103F100000F022F90130C9D1E9E723680A205A1CD0
:103F200022601870E5E700BF145F0000345F0000F6
:103F3000F45E0000024B01461868FFF79FBF00BF08
:103F40001400002038B5064C0023054608462360BF
:103F5000FDF750FE431C02D1236803B12B6038BD2E
:103F6000600400202DE9F7431D46514B1E680446AE
:103F70000F46904626B1B36913B93046FFF7F6F9FC
:103F80004C4B9C4252D17468B8F1020F06D0B8F184
:103F9000010F00F28980002DC0F286802146304654
:103FA00001F08EF8616B41B104F14403994202D0F3
:103FB000304601F083FC002363630023A361636048
:103FC000A3891B0603D52169304601F077FCA3893C
:103FD00023F44A6323F00303B8F1020FA3815DD0F9
:103FE00001AB6A462146304601F0B4F8A389184374
:103FF000A0812DBB009D284601F010F9074600283E
:104000004ED1DDF80090A9453CD14FF0FF30A38997
:1040100043F00203A3810023A36004F1470323605C
:1040200023610123636103B0BDE8F083224B9C420E
:1040300001D1B468A8E7214B9C4208BFF468A3E70C
:10404000002FD8D0B36913B93046FFF78FF9B8F114
:10405000010F08BFA389276004BF43F00103A381B8
:10406000A38913F00800C4E904751BD013F0010004
:1040700018BF6D424FF000031DBFA360A561184635
:10408000A560D0E7484601F0C9F807460028BCD033
:10409000A38943F08003A3814D46D3E70020B6E710
:1040A000A946F5E7A060BEE74FF0FF30BBE700BFD1
:1040B00014000020145F0000345F0000F45E000074
:1040C00010B50C46B1F90E1001F084FD0028ABBF0D
:1040D000636DA3891B1823F48053ACBF6365A38170
:1040E00010BD2DE9F0411F468B89DB0505460C46C6
:1040F000164605D502230022B1F90E1001F018F87A
:10410000A389B4F90E1023F48053A38132463B46B1
:104110002846BDE8F04100F071B810B50C46B1F981
:104120000E1001F005F8431CA38915BF606523F448
:10413000805343F48053A38118BFA38110BDB1F90C
:104140000E1000F0DBB8034613F8012B002AFBD158
:10415000181A013870470000F8B50E461446054697
:1041600018B183690BB9FFF701F9214B9C422AD1A1
:104170006C68A369A360A3891A072ED5236963B36A
:1041800023692068C01A6369F6B28342374604DCAB
:104190002146284600F094FF28BBA368013BA3609A
:1041A00023685A1C22601E7063690130834204D068
:1041B000A389DB0719D50A2E17D12146284600F01E
:1041C0007FFF90B10FE00B4B9C4201D1AC68D0E770
:1041D000094B9C4208BFEC68CBE72146284600F01B
:1041E0001FF80028CCD04FF0FF373846F8BD00BF8D
:1041F000145F0000345F0000F45E000038B5074C27
:10420000054608461146002222601A46FDF730FD99
:10421000431C02D1236803B12B6038BD6004002029
:10422000324B70B51D6806460C4625B1AB6913B913
:104230002846FFF79BF82E4B9C420FD16C68B4F9CF
:104240000C309AB215072CD4D00611D40922326052
:1042500043F04003A3814FF0FF303EE0254B9C42EA
:1042600001D1AC68EBE7244B9C4208BFEC68E6E761
:10427000510712D5616B41B104F14403994202D058
:10428000304601F01BFB00236363A38923F0240362
:10429000A3810023636023692360A38943F008039B
:1042A000A38123694BB9A38903F42073B3F5007F7D
:1042B00003D02146304600F071FFA28912F00103BD
:1042C0000CD00023A36063695B42A361236953B9E7
:1042D000B4F90C3013F08000BAD170BD920758BF0A
:1042E0006369A360F2E70020F7E700BF1400002035
:1042F000145F0000345F0000F45E000038B5064C27
:104300000023054608462360FDF710FC431C02D13C
:10431000236803B12B6038BD600400202DE9F74FFE
:1043200003690C69A3428046C0F28280013C01F11E
:1043300014074FEA840C00F1140657F8245056F87D
:10434000240006EB0C03013507EB0C090193B0FBCD
:10435000F5F595B34FF0000A3846B646D34650F807
:10436000042B93B205FB03A34FEA134A9BB2ABEBBA
:104370000303120CDEF800B005FB02A213FA8BF364
:104380004FEA124A1FFA82FBDEF80020CBEB124202
:1043900002EB23429BB243EA024381454FEA224BA0
:1043A0004EF8043BDBD256F80C3033B9019B043B8A
:1043B0009E421A4630D3C8F81040404601F0AAF990
:1043C000002825DB013530464FF0000C57F8042B50
:1043D000D0F800E093B2ACEB0303120C13FA8EF3A7
:1043E000C2EB1E4202EB23429BB243EA0243B945B1
:1043F0004FEA224C40F8043BE8D256F8242006EB62
:1044000084032AB9043B9E421A460BD3C8F81040D5
:10441000284603B0BDE8F08F1268043B002ACAD1D9
:10442000013CC5E71268043B002AEFD1013CEAE7F2
:104430000020EEE7000000002DE9F04F456A97B03C
:1044400016461F460446DDF88C80CDE902673DB96B
:10445000102000F0E3FE6062C0E901550560C56010
:10446000636A196851B15A684A60012393408B60AE
:10447000204600F06EFF636A00221A603B1EBBBF3D
:1044800023F00043039300230122ACBFC8F800309F
:10449000C8F80020B24BDDF80C8033EA08031BD1CA
:1044A000229A42F20F731360029B23B9C8F31300E0
:1044B000002800F04F85249B53B9AA4B21E0AA4B5A
:1044C00005930833249A1360059817B0BDE8F08F60
:1044D000A44B05930333F5E7DDE9026700220023CF
:1044E0003046394601F020FC824660B1229A012311
:1044F0001360249B002B00F02A859C4B249A1360A8
:10450000013B0593E0E714AB019315AB00933246F2
:104510003B46204601F075F9C8F30A558346002D45
:104520007CD0C7F3130343F07F59B04649F44019D8
:10453000A5F2FF35CDF84CA000228D4B40464946F0
:10454000FEF7FAF880A3D3E90023FEF7ADFA80A3C3
:10455000D3E90023FEF7F2F8064628460F46FEF799
:1045600039FA7DA3D3E90023FEF79EFA02460B46F3
:1045700030463946FEF7E2F806460F4601F01CFCCD
:104580000022824600233046394601F0D7FB48B16D
:104590005046FEF71FFA32463B4601F0C5FB08B90C
:1045A0000AF1FF3ABAF1160F59D8724901EBCA0164
:1045B000DDE90223D1E9000101F0DEFB002850D043
:1045C0000AF1FF3A00231293149B5D1BB5F1010819
:1045D00049BFC5F10103002308934FF0000858BFFD
:1045E0000893BAF1000F3EDB0023D044CDF834A08D
:1045F0000993209B092B00F29080052BC4BF043B3C
:104600002093209BA3F10203CCBF00250125032B9F
:1046100000F28F80DFE803F07D7F3171DDE9145314
:104620001D4405F23240202813DDC0F14000029BFA
:1046300008FA00F805F2124023FA00F048EA0000F8
:10464000FEF7B8F901238046A1F1F879013D1393F3
:1046500072E7029BC0F1200003FA00F0F0E70123AB
:10466000B1E71290B0E7089BA3EB0A030893CAF1E5
:104670000003099300230D93BBE701230C93219BB7
:10468000002B59DD06939946666A00227260042267
:1046900002F114009842716870D9204600F025FE9E
:1046A000636A30601B680593B9F10E0F00F2EB806E
:1046B000002D00F0E8809DED027BBAF1000F8DED3A
:1046C000107B79DD2B4A0AF00F0302EBC30393ED55
:1046D000007B4FEA2A16F0068DED0A7B6AD5264B41
:1046E000DDE91001D3E90823FEF708FBCDE902015B
:1046F00006F00F060325204F51E001230C93219B68
:10470000534403F1010906934B46012BB8BF012323
:10471000BAE70023B2E70023F0E701250023209346
:104720000C954FF0FF3306939946002212232192F5
:10473000AAE701230C93F4E70123069399461A464E
:10474000F5E700BFAFF3008061436F63A787D23FF7
:10475000B3C8608B288AC63FFB799F501344D33F70
:104760000000F07F955F00008C5F0000695F000033
:104770000000F83FC85F0000A05F000001317160D9
:10478000520085E7F10708D5DDE90A01D7E90023E2
:10479000FEF78AF9CDE90A01013576100837002EB7
:1047A000F0D1DDE90A23DDE90201FEF7A7FACDE940
:1047B00002011AE002259EE700F0A080CAF100067F
:1047C0009F4BA04F06F00F0203EBC203D3E9002377
:1047D000DDE91001FEF768F9CDE902013611002389
:1047E0000225002E7FD1002BE1D1129B002B00F07F
:1047F0008780DDE902670022934B3046394601F09D
:104800009DFA00287CD0B9F1000F79D0069B002BCF
:1048100035DD0AF1FF330A93394600228B4B3046CF
:10482000FEF742F9CDE90201069F01352846FEF761
:10483000D1F8DDE90223FEF737F90022844BFDF7BA
:104840007DFF0546A1F15076002F5DD10022814BFE
:10485000DDE90201FDF770FF2A463346CDE902018A
:1048600001F08AFA002840F088822A4606F10043C7
:10487000DDE9020101F062FA002840F07C82DDE906
:104880001023CDE90223159B002BC0F25081BAF111
:104890000E0F00F34C816A4B03EBCA0393ED007BD0
:1048A000219B002B8DED067B80F2D880B9F1000FA3
:1048B00000F3D48040F05E820022664B51EC170B6F
:1048C000FEF7F2F8DDE9022301F04CFA4F464E46BE
:1048D000002840F03482059B059A5D1C312313703B
:1048E0000AF1010A2FE2F20705D5D7E90023FEF706
:1048F000DBF8013501237610083772E7022574E7EB
:10490000CDF828A04F4691E74D4B03EBC70353E981
:1049100002010C9B002B47D002460B4600204E495B
:10492000FEF7ECF92A463346FDF706FFCDE90E0106
:10493000059DDDE9020101F03FFA0646FEF74AF85F
:1049400002460B46DDE90201FDF7F6FE303605F8BA
:10495000016BDDE90E23CDE9020101F0EFF900283A
:1049600063D1DDE9022300203749FDF7E5FEDDE9EB
:104970000E2301F0E3F9002840F0B780059BEB1A05
:104980009F427FF77CAF0022304BDDE90E01FEF73E
:104990008BF80022CDE90E012C4BDDE90201FEF778
:1049A00083F8CDE90201C4E733462A46FEF77CF8D6
:1049B000059BCDE90E01DD191E46DDE9020101F07E
:1049C000FBF90746FEF706F8303702460B46DDE9ED
:1049D0000201FDF7B1FE06F8017BAE42CDE902010E
:1049E0004FF0000226D11C4BDDE90E01FDF7A6FEBB
:1049F00002460B46DDE9020101F0BEF9002874D140
:104A0000DDE90E2300201449FDF796FE02460B4611
:104A1000DDE9020101F092F900283FF430AF15F80A
:104A2000013C302B05F1FF3202D0DDF828A04AE02E
:104A30001546F4E7054BFEF737F8CDE90201BCE770
:104A4000C85F0000A05F00000000F03F00002440AD
:104A500000001C40000014400000E03FDDE9026758
:104A6000059DDDE9062330463946FEF747F901F09A
:104A7000A3F98046FDF7AEFFDDE90623FEF714F843
:104A800002460B463046394608F13006FDF754FE23
:104A900005F8016B059EAE1BB14502460B4639D1A8
:104AA000FDF74CFEDDE9062306460F4601F064F9EA
:104AB000C8B9DDE906233046394601F035F910B1B1
:104AC00018F0010F0FD15946204600F042FC002398
:104AD000229A2B700AF101031360249B002B3FF4F0
:104AE000F3AC1D60F0E4CDF828A015F8012C392AAC
:104AF00005F1FF3308D1059A9A4209D10A9B013387
:104B00000A933023137013461A7801321A708CE717
:104B10001D46EAE700229B4BFDF7C6FF002200235B
:104B200006460F4601F000F900289AD0CBE70C9A10
:104B3000002A00F08B80209A012A6EDC139A002A4A
:104B400067D003F23343DDE90857089A01211A447C
:104B500020460892984400F09CFC0646002D0CDD8F
:104B6000B8F1000F09DD4545089A2B46A8BF43461A
:104B7000D21A0892ED1AA8EB0308099BEBB10C9B23
:104B8000002B67D08FB131463A46204600F020FD19
:104B90005A4601460646204600F084FC59460A90D3
:104BA000204600F0D6FB0A9B9B46099BDA1B04D0EB
:104BB0005946204600F00CFD83460121204600F0B6
:104BC00068FC0D9B0746002B00F0CB811A4601467E
:104BD000204600F0FDFC209B012B074640DC029B99
:104BE000002B39D1039BC3F31303002B36D1039B56
:104BF00023F000431B0D1B052BB1089B01330893C9
:104C000008F10108012309930D9B002B2AD10120F3
:104C100030E0149BC3F1360395E7099B09F1FF3798
:104C2000BB42BFBF099B0997FA1A0D9BBBBF9B18DC
:104C30000D93DF1B0027B9F1000FB5BF089B089D3E
:104C4000A3EB09054B46B8BF00237EE7DDE9085713
:104C50000C9E83E7099AABE70023D4E7029BD2E7D7
:104C6000002309933B6907EB8303186900F0C3FB3A
:104C7000C0F12000404410F01F0047D0C0F12003D5
:104C8000042B3BDD089BC0F11C0003440893054442
:104C90008044089B002B05DD59461A46204600F04B
:104CA000E5FC8346B8F1000F05DD39464246204653
:104CB00000F0DCFC0746129B53B33946584600F01F
:104CC00029FD002824DA002359460A22204600F054
:104CD00057FB0C9B0AF1FF3A8346002B00F04881FA
:104CE000002331460A22204600F04AFB069B002B97
:104CF00006464FDC209B022B4CDD11E0C9D0089A00
:104D00001C331A4408921D449844C2E70346F6E750
:104D1000B9F1000F38DC209B022B35DDCDF818905F
:104D2000069B63B939460522204600F029FB01465F
:104D30000746584600F0EEFC00283FF7CCAD219B1B
:104D4000059D6FEA030A4FF000093946204600F03E
:104D500000FB002E3FF4B7AEB9F1000F05D0B1450E
:104D600003D04946204600F0F4FA3146204600F0D0
:104D7000F0FAA8E600273E46E1E7DDF828A03E4627
:104D8000A9E500BF000024400C9BCDF81890002B33
:104D900000F0F580002D05DD31462A46204600F062
:104DA00065FC0646099B002B4CD07168204600F03C
:104DB0009CFA326902320546920006F10C010C3071
:104DC00000F086FA01222946204600F04FFC059BA0
:104DD0000893029B03F00103B14609930646394646
:104DE0005846FFF79BFA4946054600F130085846F9
:104DF00000F090FC324602903946204600F0A4FCB8
:104E0000C368024603BB01460A90584600F082FC84
:104E10000A9A0346114620460A9300F09AFA0A9B22
:104E2000A3B9209A92B9099A82B9B8F1390F29D059
:104E3000029B002B01DD05F13108089B5D1C83F806
:104E4000008082E73046C2E70123E3E7029A002AA6
:104E500004DB24D1209A12BB099A02BB002BECDDA3
:104E600059460122204600F001FC3946834600F0F5
:104E700051FC002803DCE0D118F0010FDDD0B8F1BF
:104E8000390FD8D1089B089A5D1C3923137015F887
:104E9000013C392B05F1FF324ED0013353E0089A23
:104EA000002B02F1010506DDB8F1390FEAD008F157
:104EB0000108089BC3E7059B069A05F8018CEB1ACD
:104EC000934221D0594600230A22204600F058FA86
:104ED000B14583464FF000034FF00A024946204691
:104EE00005D100F04DFA81460646089577E700F0B7
:104EF00047FA3146814600230A22204600F040FA54
:104F00000646F2E74FF0000959460122204600F01C
:104F1000ADFB3946834600F0FDFB0028B7DC02D12B
:104F200018F0010FB3D115F8013C302B05F1FF3219
:104F30007FF40BAF1546F6E7059B934205D1059A22
:104F40000AF1010A31231370FFE615469FE7174B5C
:104F5000FFF7D7BA249B002B7FF4B1AA144BFFF7BD
:104F6000D0BA209B012B7FF73AAE0D9B09934EE6FA
:104F7000069B002B03DC209B022B3FF7D1AE059D47
:104F800039465846FFF7CAF900F1300805F8018B99
:104F9000059B069AEB1A9A42B4DD594600230A2271
:104FA000204600F0EDF98346EAE700BF685F0000A5
:104FB0008C5F00008A892DE9F041054610070C46F8
:104FC00058D44B68002B05DC0B6C002B02DC002056
:104FD000BDE8F081E66A002EF9D0002312F4805279
:104FE0002F68216A2B6032D0606DA3895A0705D5DE
:104FF0006368C01A636B0BB1236CC01A00230246AE
:10500000E66A216A2846B047431CA38906D129686D
:105010001D2948D8294ACA40D60744D500226260D3
:10502000D9042269226004D5421C01D12B6803B93E
:105030006065616B2F600029C9D004F14403994277
:1050400002D0284600F03AFC00206063C0E701234C
:105050002846B047411CC8D12B68002BC5D01D2B5A
:1050600001D0162B01D12F60B1E7A38943F0400393
:10507000A381ADE70F69002FA9D093070E6808BF81
:105080004B690F6018BF0023A6EB07088B60B8F1CF
:10509000000F9CDD43463A46216AA66A2846B0477F
:1050A000002806DCA38943F04003A3814FF0FF30C2
:1050B0008EE70744A8EB0008E9E700BF01004020A5
:1050C00038B50B6905460C46DBB118B183690BB9DD
:1050D000FEF74CF90C4B9C4209D16C68B4F90C30CA
:1050E0007BB121462846BDE83840FFF763BF074B38
:1050F0009C4201D1AC68F1E7054B9C4208BFEC68CB
:10510000ECE7002038BD00BF145F0000345F0000F2
:10511000F45E0000044B1B68186A044B002808BFAB
:105120001846F030704700BF1400002078000020BF
:1051300038B5074C054608461146002222601A463B
:10514000FCF71FFD431C02D1236803B12B6038BD5F
:105150006004002070B50E46B1F90E10002996B01B
:1051600014461D4607DA00232B60B3891A0610D4B3
:105170004FF480630EE06A4600F03EFD0028F2DB4B
:10518000019A02F47042A2F500535A425A412A6031
:10519000EEE740230020236016B070BD8B8973B505
:1051A0009D0706460C4607D504F14703236023619B
:1051B0000123636102B070BD01AB6A46FFF7CAFF0D
:1051C000009905463046FEF787F948B9B4F90C3026
:1051D0009A05EFD423F0030343F00203A381E3E72E
:1051E0000D4BB362A389206043F08003A381009B31
:1051F0006361019B20615BB1B4F90E10304600F091
:105200000DFD28B1A38923F0030343F00103A3811B
:10521000A3891D43A581CDE735330000024B01462C
:105220001868FEF759B900BF140000200000000004
:1052300001F0FF01102A2BDB10F0070F08D010F847
:10524000013B013A8B422DD010F0070F42B3F6D14B
:10525000F0B441EA012141EA014122F007047FF064
:1052600000070023F0E80256083C85EA010586EABB
:10527000010685FA47F5A3FA87F586FA47F6A5FAF7
:1052800087F68EB9EED1F0BC01F0FF0102F0070203
:1052900032B110F8013B013A83EA010313B1F8D1AE
:1052A0000020704701387047002D06BF354603388F
:1052B000073815F0010F07D1013015F4807F02BFC8
:1052C000013015F4C03F0130F0BC0138704700BF19
:1052D00010B5431E0A44914200D110BD11F8014B94
:1052E00003F8014FF7E77047704770B5456A044609
:1052F0000E463DB91020FFF791FF6062C0E90155ED
:105300000560C560656AEB6883B1636ADB6853F862
:105310002600B8B9012101FA06F56A1D920020465F
:1053200000F0BEFA60B1C0E901650EE0212204215F
:10533000204600F0B5FA636AE860DB68002BE4D130
:10534000002070BD026843F826200023C0E9033323
:10535000F7E770B5446A06460D463CB91020FFF7E2
:105360005DFF7062C0E901440460C4603DB1736ACE
:105370006A68DB6853F82210296043F8225070BD38
:105380002DE9F0410D691F4606460C4601F1140C4B
:105390000023DCF8000081B202FB01710F0C000C4D
:1053A00002FB007089B2013301EB00419D424FEADC
:1053B00010474CF8041BECDCD7B1A368AB4212DCFD
:1053C000616830460131FFF790FF2269023204F133
:1053D0000C01804692000C30FFF77AFF21463046E0
:1053E000FFF7B7FF444604EB850301355F61256194
:1053F0002046BDE8F081020C12040346B2B9030452
:10540000102013F07F4F04BF1B02083013F0704FC1
:1054100004BF1B01043013F0404F04BF9B00023057
:10542000002B06DB5B0003D5013070470020E8E766
:1054300020207047036813F0070201460BD0DA07FB
:1054400023D4980749BF5B089B0801200B605CBF11
:105450000B600220704798B2A8B91B0C102013F003
:10546000FF0F04BF1B0A08301A0704BF1B090430D2
:105470009A0704BF9B080230DA0702D45B0806D003
:1054800001300B6070471046E9E70020704720208C
:10549000704710B50C460121FFF727FF0122446138
:1054A000026110BD2DE9F74F14460A6923699A423B
:1054B000B8BF0B468846BCBFA0461C46D8F8107043
:1054C000D4F81090D8F80830D8F8041007EB090683
:1054D000B342B8BF0131FFF708FF00F1140505EB37
:1054E000860E2B460022734516D304F1140208F1F0
:1054F000140102EB890301EB87070093009B0192E3
:1055000093420CD8002E03DD5EF8043D002B5DD0E5
:10551000066103B0BDE8F08F43F8042BE3E7B2F86F
:1055200000B0BBF1000F23D08946AC464FF0000815
:1055300059F8044BDCF800A0A3B21FFA8AFA0BFB5F
:1055400003A34FEA144ADCF8004043444FEA1448EE
:105550000BFB0A8404EB1344E2469BB243EA044388
:105560004F454FEA14484AF8043B2BD8CCF8048046
:10557000019BB3F802A00432BAF1000F20D02B68CF
:105580008946A8464FF0000BB9F800C0B8F80240B1
:105590000AFB0C445C44C4469BB243EA04434CF807
:1055A000043B59F8043BB8F804B01B0C0AFB03B3E6
:1055B00003EB14434F454FEA134B05D8C8F80430AA
:1055C00004359BE7D446B3E7E046DDE7013E99E7C3
:1055D0002DE9F843154612F0030206460F4607D0A0
:1055E000013A214C002354F82220FFF7C9FE074658
:1055F000AD1035D0746A3CB91020FFF70FFE706211
:10560000C0E901440460C460D6F82480D8F808409A
:105610004CB940F271213046FFF73BFF0023C8F838
:105620000800044603604FF00008EB070AD539462E
:1056300022463046FFF736FF394681463046FFF7AF
:1056400088FE4F466D100BD0206838B9224621469F
:105650003046FFF727FF2060C0F800800446E4E7EB
:105660003846BDE8F88300BF906000002DE9F047A0
:105670000C464FEA621A236949680AEB0309A368DA
:105680000746164609F10105AB4232DB3846FFF703
:105690002CFE0023804600F114011A4653452BDBF3
:1056A00020692AEAEA7A04F1140316F01F0201EBDA
:1056B0008A0103EB800C25D0C2F1200E00201E6869
:1056C0008A46964030434AF8040B53F8040B9C4535
:1056D00020FA0EF014D8486008B109F10205013D26
:1056E0003846C8F810502146FFF733FE4046BDE863
:1056F000F08701315B00C7E741F823200133CDE794
:105700005146DCE7043953F8042B41F8042F9C453B
:10571000F9D8E4E703690A699B1A30B50CD1920005
:10572000143014318418114454F8045D51F8042DD8
:10573000954203D005D30123184630BDA042F3D3D0
:10574000FAE74FF0FF33F7E72DE9F0470D4607463C
:10575000114628461446FFF7DDFF061E08D13146E4
:105760003846FFF7C2FD0123C0E90436BDE8F087E3
:10577000A4BF23462C4638466168A6BF1D460026B6
:105780000126FFF7B2FD2B69C660266905F11409F1
:1057900004F1140202EB860709EB830800F11405FB
:1057A0004FF0000E52F804AB59F8044B1EFA8AF180
:1057B000A3B2C91A230CC3EB1A4303EB214389B2EA
:1057C0004FEA234EC84541EA0343944645F8043B5B
:1057D000E8D8BC4504D355F8043D83B10661C5E75C
:1057E0005CF8041B1EFA81F31A1402EB11429BB2FF
:1057F00043EA02434FEA224E45F8043BE9E7013E03
:10580000E9E72DE9F743012199469046DDE90A656C
:10581000FFF76BFDC9F30A540746C9F3130334BB02
:10582000B8F10002019327D002A840F8082DFFF735
:1058300001FE0099F0B1019AC0F1200302FA03F3CE
:105840000B43C2407B610192019BBB61002B14BFE3
:10585000022101213961C4B1A4F23344044434600B
:10586000C0F135002860384603B0BDE8F08343F44A
:105870008013D5E77961E7E701A8FFF7DBFD019B1E
:105880007B61012139612030E5E707EB8103A0F25C
:10589000324030601869FFF7AEFDC0EB4110E1E720
:1058A00038B502FB01F42146FDF716FE054618B196
:1058B00022460021FDF708FE284638BD38B50546CA
:1058C000002945D051F8043C0C1F002BB8BFE41848
:1058D000FFF709FD1F4A1368104633B9636014606F
:1058E0002846BDE83840FFF7FFBCA3420CD9216829
:1058F0006218934204BF1A685B68636004BF521861
:1059000022600460ECE713465A680AB1A242FAD951
:1059100019685818A0420BD12068014458188242D7
:105920001960DDD1106852685A6001441960D7E7E8
:1059300002D90C232B60D3E7206821188A4204BFC8
:1059400011685268626004BF091821605C60C7E793
:1059500038BD00BF580400209368013B002B10B4F1
:10596000936008DA9469A34201DB0A2903D15DF848
:10597000044BFEF7F1BB1368581C10601970084601
:105980005DF8044B7047F8B506460F461446D51827
:10599000AC4201D1002007E03A4614F8011B304622
:1059A000FFF7DAFF431CF3D1F8BD00002DE9F04FFB
:1059B0009DB00C4617460393064618B183690BB990
:1059C000FDF7D4FC7B4B9C4257D17468A389180720
:1059D0005DD52369002B5AD00023099320238DF82D
:1059E000293030238DF82A304FF0010BB846454658
:1059F00015F8013B0BB1252B54D1B8EB070A0BD09E
:105A000053463A4621463046FFF7BDFF013000F0CD
:105A1000C280099B5344099398F80030002B00F092
:105A2000BA8000234FF0FF32CDE90523049307939A
:105A30008DF853301A93A846052218F8011B5E48CA
:105A4000FFF7F6FB049B78BBD90644BF20228DF8F4
:105A500053201A0744BF2B228DF853202A782A2A74
:105A60002AD0079AA84600200A25414611F8013B92
:105A7000303B092B69D960B324E0504B9C4201D1E3
:105A8000B468A3E74E4B9C4208BFF4689EE72146EA
:105A90003046FEF7C5FB00289ED04FF0FF301DB00A
:105AA000BDE8F08FA846A2E7434A801A0BFA00F03F
:105AB000184304904546BEE7039A111D12680391EE
:105AC000002A01DB079204E0524243F002030792EE
:105AD000049398F800302E2B0ED198F801302A2B21
