:10000000008000207D010000A9010000A90100007E
:10001000A9010000A9010000A9010000A901000038
:10002000A9010000A9010000A9010000A901000028
:10003000A9010000A9010000A9010000A901000018
:10004000A9010000A9010000A9010000A901000008
:10005000A9010000A9010000A9010000A9010000F8
:100060006D100000A9010000A9010000A901000015
:10007000A9010000A9010000A9010000A9010000D8
:10008000A9010000A9010000A9010000A9010000C8
:10009000A9010000A9010000A9010000A9010000B8
:1000A000A9010000A9010000A9010000A9010000A8
:1000B000A901000095140000A9010000A901000099
:1000C000A9010000A901000010B5054C237833B93F
:1000D000044B13B10448AFF300800123237010BD1B
:1000E00098000020000000006033000008B5034BBA
:1000F0001BB103490348AFF3008008BD00000000B6
:100100009C00002060330000154B002B08BF134BF0
:100110009D46A3F5803A00218B460F461348144AAA
:10012000121A02F009F90F4B002B00D098470E4B22
:10013000002B00D098470020002104000D000D483E
:10014000002802D00C48AFF3008002F0D1F8200064
:10015000290001F01DF802F0B7F800BF0000080008
:100160000080002000000000000000009800002037
:1001700054030020000000000000000006488047F3
:100180000649074A074B9A42BEBF51F8040B42F892
:10019000040BF8E7FFF7B8FF350200006C330000EE
:1001A0000000002098000020FEE700BF00487047D4
:1001B00000F049020F4BD3F8943003F00703032BF0
:1001C00014D0042B0FD0022B0AD00B4B1868094B0C
:1001D000D3F80031C3F304230133B0FBF3F07047CD
:1001E000064B1868F3E7064B1868F0E74FF4004039
:1001F000EDE700BF00400E40080000200400002092
:100200000C00002008B5FFF7D5FF054B054AD3F8D1
:100210000831C3F308230133B0FBF3F0106008BDCD
:1002200000400E4000000020014B1868704700BFDE
:100230000400002010B40E4C0E4BD4F888200E4859
:100240000E4942F47002C4F888205A6D5DF8044BE0
:1002500042F400525A651A6C22F003021A640368D1
:1002600023F0010303600B6823F080530B60704799
:1002700000ED00E000300E4074300E4060300E4063
:100280004FF40040704700BF4FF47A70704700BFD2
:10029000014B1868704700BF0C00002010B5FFF735
:1002A00085FF0D4B0D4A196C41F671341C64904268
:1002B0005B680FD90A4B984294BF4FF080730023BC
:1002C000054A506820F040701843506009B100237F
:1002D000136410BD0023F3E700000E4080BA8C01C8
:1002E000005A62020C4A0D4BD2F89010516A21F06C
:1002F000300141F0100110B45162146BC0F3C3110E
:10030000033123400F2928BF0F21034343EA017320
:1003100013635DF8044B704700400E4000F8FF0F78
:10032000C0F30323013B30B4092B0CD8DFE803F002
:100330000D110B0B152D190B2705164CC0F30430AE
:1003400020448000016030BC7047C0F30430124C80
:10035000F6E7C0F30430114CF2E7C0F30430104C60
:10036000EEE7104CC0F3043010250F4BD3F84421B6
:10037000D207E5D4D3F840212A42FBD1E0E7C0F30D
:1003800004300A4C4FF48035EFE7C0F30430084CDA
:100390000125EAE7800AF2100000F2100006F210D0
:1003A0008005F2104007F21000400E408007F21066
:1003B0000007F21000F00F000138072847D8DFE8E7
:1003C00000F0121D3346283E4604264BD3F85C311C
:1003D00003F03003202B40D0302B40D0102B0CBF2B
:1003E0000720012070471F4BD3F8943003F0070318
:1003F000023B022B2FD81C4AD05C7047194BD3F814
:10040000803003F00703013B032B22D8174AD05C4E
:100410007047144BD3F8883003F00703013B032BDC
:1004200017D8134AD05C70470E4BD3F8843003F0D2
:100430000703013B032B0CD80E4AD05C7047094BD5
:100440001B6F13F0010F14BF092007207047002015
:10045000704701207047052070470420704708202E
:10046000704700BF00400E40503200005432000080
:10047000543200005832000008B50146FFF79AFFD9
:100480001E4B994231D01E4B994228D01D4B9942A8
:100490001FD0013803282ED8DFE800F0130F021711
:1004A000FFF7B0FE184BD3F80031C3F300635A1CBA
:1004B00001239340B0FBF3F008BDBDE80840FFF70F
:1004C000E7BEBDE80840FFF7DBBEBDE80840FFF728
:1004D000DBBE0D4BD3F8800000F00700D9E70A4BD4
:1004E000D3F8880000F00700D3E7074BD3F8840067
:1004F00000F00700CDE7002008BD00BF03001C008E
:100500000500200002001A0000400E4000F47810A0
:10051000B0F5602F08B565D00ED9B0F5D01F3CD02E
:100520001BD8B0F5A01F2BD0B0F5B01F68D0B0F528
:10053000901F20D0002008BDB0F5802F55D03CD9A9
:10054000B0F5202F2ED0B0F5402F46D0B0F5002FBB
:10055000F0D1BDE80840FFF72DBEB0F5001F0AD06E
:10056000B0F5381F59D0B0F5E01FE3D13848BDE8E9
:100570000840FFF781BF3748BDE80840FFF77CBF60
:100580003548FFF779FF354BD3F82021012302F0DE
:100590000F029340B0FBF3F008BD2F48BDE80840C0
:1005A000FFF76ABFFFF706FE2C4BD3F81431C3F3F5
:1005B00004230133B0FBF3F008BD0028C9D0B0F527
:1005C000003FB7D1FFF7F6FD244BD3F80831C3F352
:1005D00008230133B0FBF3F008BD2148FFF7EAFE22
:1005E000072827D11F4B186808BDFFF7E3FD1B4BF9
:1005F000D3F80C31C3F308230133B0FBF3F008BD8B
:100600001348FFF739FF154BD3F82821012302F0D7
:1006100003029340B0FBF3F008BD1348FFF7CAFE96
:100620000728DFD0082809D0042883D1BDE8084076
:10063000FFF7FABD09287FF47DAF8AE7FFF7BAFD1F
:10064000064BD3F80031C3F3042303FB000008BDBD
:1006500003001C000500200002001A0000400E40AC
:1006600006000C001000002098002E000F4B5B6A63
:1006700013F0300F06D0202914D0302902D009B150
:100680000B4A01E04FF440020849D1F8903032EAB9
:100690000303FAD1530246BFD1F8A000C0F3802073
:1006A000012070474FF40002EEE700BF00400E400B
:1006B000FF03E107F8B5042815D8DFE800F021159D
:1006C0002D4128000021364C26661C68002CFCD0E9
:1006D0004AB1344C2C44A4002368002BFCD00228DF
:1006E00001D100293AD1F8BD2F4B8024402607259F
:1006F0000029E7D12A4A14661A68002AFCD1F8BDFD
:100700002A4B4FF400744FF480760925F0E7284B0C
:10071000202410260525EBE700293DD0204C636AF4
:1007200013F0300F11D1636ADB0713D5656A214BD3
:1007300025F0300545F00105656204260325C2E772
:10074000012635461C4B0224D2E71A4B042603250A
:100750000021B8E7174B04260325B4E7104A104DD3
:10076000516A11F001011FBF20214FF48063C2F8CC
:10077000A8305166FFF77AFFD5F89C70012200215E
:100780000220FFF797FFC7F30A00FFF7ABFD2E66C5
:100790002368002BFCD0F8BD064B0824AAE700BF55
:1007A00000400E408004F2101812C8432012C843C3
:1007B0001012C8430812C8430012C84300F00F00CB
:1007C000013838B5072843D8DFE800F082435E429D
:1007D0006062426B0120032401221146FFF76AFF89
:1007E000FFF75CFD7A4B7B485C67FFF78FFE7A4B27
:1007F000984240F2E680794B012498428CBF4FF03A
:1008000000734FF080737649714A0C60D2F8000192
:1008100020F080701843C2F80001FFF7F3FC714B21
:10082000714A196C41F671341C6490425B6840F265
:10083000C6806E4B984294BF4FF080730023694A84
:10084000506820F040701843506009B100231364D1
:1008500038BD674C01390929FAD801A353F821F0B2
:10086000490900003B0900002D0900005108000063
:1008700051080000F3080000510800005108000072
:1008800051080000ED0800005A4CE3E75A4CE1E73C
:10089000072900F099800929DAD14D4B01221A6706
:1008A00038BD01390729D3D801A353F821F000BF7F
:1008B000BB0900005108000051080000AD0900000C
:1008C00051080000510800009F0900008B0900003A
:1008D00002390329BCD801A353F821F053090000C1
:1008E000D5070000710900005909000004232360A6
:1008F00038BDFFF787FC384B984227D9374B012585
:1009000098428CBF4FF000734FF080733449304AE7
:100910000D60D2F8000101F5AE5120F0807018434F
:100920000125C2F8000103230D60E0E70122114612
:100930001046FFF7BFFE0123D9E701221146002030
:10094000FFF7B8FE0223D2E70023D0E700231D46BD
:10095000DCE7002004243FE7214B1D4A01241C60F2
:10096000D2F8003143F08073C2F80031032033E73E
:100970001B4B174A01211960D2F80031022043F0C5
:100980008073C2F80031044626E73021104AD2F8BD
:100990005C3123F030030B43C2F85C3138BD0122D7
:1009A00011460420FFF786FE1021EFE701221146D1
:1009B0000220FFF77FFE2021E8E70021E6E7002381
:1009C0003DE700231C461EE7014B00221A6738BD95
:1009D00000400E40000508000048E8010090D003E8
:1009E0004000C84300000E4080BA8C01005A6202E9
:1009F00080400E4084400E4088400E4000B962B6F0
:100A0000704700BFEFF3108072B67047FFF7F6BF74
:100A1000EFF31083DB0732D430B421494511C4B25F
:100A200004F01F02012351F8255003FA02F22A4272
:100A300022D0002825DB084490F800034209EFF398
:100A4000118313B1B2EB531F16D216494868C0F395
:100A5000080090B11038C0B243B2002B18DB03F18C
:100A6000604303F5614393F800034009824234BFB9
:100A70000020012030BC7047012030BC70470120AD
:100A80007047094B04F00F042344187E4209D6E74F
:100A900000F00F03043B0B44187E4009E6E700BF5B
:100AA00000E100E000ED00E0FCEC00E0F0B4440008
:100AB0004AB12718214D3F0101263D448E40A3B382
:100AC00005F1C0652E6025182D0105F18045072927
:100AD00005F5204519D88F006E684FF00F0C0CFA01
:100AE00007FC26EA0C0602FA07F73E436E6052B98D
:100AF0000444124A24010120224400FA01F1C3B93E
:100B000002F180621160F0BC704701F18046083E3E
:100B1000AF68B6004FF00F0C0CFA06FC27EA0C0782
:100B200002FA06F63E43AE60E1E705F180652E600D
:100B3000C9E702F1C062F0BC116070470CA0004030
:100B400038B5044601211148FFF7EAFB63782578A0
:100B5000A0780F4A0F491B0243EA056303430020B4
:100B600013604FF0004510624FF0FF33D0625063C6
:100B70004FF48070D5669366C1F88001E3785B011D
:100B8000DBB281F80833086038BD00BF00450800BB
:100B900000200E4000E100E0F8B5CB7A8E7A0D7BA4
:100BA000234F1B050C4643EA064300EB400607EBC8
:100BB000061643EA45530125497B22F0030285408E
:100BC0002068C6F88000C6F88810C6F88430C6F8D9
:100BD0009820BD66FFF716FFFB6E227A2B43FB665B
:100BE00012B17B6B2B437B63637A1BB1104AD36AD0
:100BF0002B43D3620E4B22791B6822B1D2431202DF
:100C000062F47F42134062790AB143EA0223A27977
:100C10000AB123EA0203E27902B11343044A054907
:100C200013600D60D563BDE8F840FFF7EFBE00BF6D
:100C300000200E4028200E4430B48B784C780A787F
:100C4000CD789B0143EA840313430C794A7989796F
:100C500043EA051343EAC423043043EA02330001A4
:100C6000024A43EA4143135030BC7047002004401D
:100C7000837801780D4A70B44578C47846791B01B1
:100C800043EA85030B430179857943EA441343EA38
:100C90000123C479017A43EA063343EAC53343EAC0
:100CA000044343EA4143136070BC70470020044092
:100CB0000B4A536911699B0003F03C03C1F3811196
:100CC0000B438370136903F03F0343709369D26948
:100CD00003F0F003C2F3031213430370704700BF25
:100CE000D0FF0FE02F4A70B5044600232E4840F68F
:100CF000AA660D46944241F20501E66023606160F8
:100D0000A3606361E364A0646367A367E36746D09D
:100D1000264AA365944208BFE3652A8AA87B236814
:100D2000297D42F00102002843EA02030CBF0022A1
:100D30004FF4806213432360236809B143F00053EA
:100D4000AA7C23601AB1EB7C43F08003A3652B7B64
:100D5000D5E9010643F480536360E0B16B7B013851
:100D60007600B0FBF6F0000260610BB11023E36087
:100D7000AB7DEA7D697D1B07120503F0E04302F4B9
:100D8000E0021343236619B1236843F480332360E0
:100D90002B78E36070BD0648FFF7B8FBDEE72365FC
:100DA000A365BAE700000140F9FF0100000401401B
:100DB000404105002DE9F04F594C85B025789DF84C
:100DC00044A09DF84CE0002D66D0072A14465FD859
:100DD0000E9A002A5CD00F9A002A59D0129AB2F5C6
:100DE000006F55DC012806460F464ED0DFF84491CF
:100DF0004FEA041809EB0802127B002A50D0494A36
:100E000000216501CDE90111039102EB050C002FD2
:100E100048D157519CF802009CF80310CCF804709C
:100E200040F0100041F03001CCE902778CF802006C
:100E30008CF80310BAF1000F65D00093129B515B40
:100E4000013B63F30E11515315440E99EB78A960E1
:100E50006EF383030F996960012EEB703CD0149BF5
:100E6000002B56D009EB08032046149C49F8084093
:100E7000159D5D600024624669465E739C60FFF7C5
:100E80008BFE204605B0BDE8F08F109A002AADD148
:100E9000254805B0BDE8F08F244805B0BDE8F08FC7
:100EA0002348F6E751519CF802B09CF80300CCF8B7
:100EB00004104BF0100B40F00300CCE902118CF849
:100EC00002B08CF80300BAF1000FB6D1C1B241F004
:100ED00030018CF80310B0E71323EB6095E80F00A6
:100EE00005F1100E8EE80F00EA69109B6B616FF040
:100EF000030161F39F02012FEA61B3D10F9BAB6144
:100F0000109B6B60AEE7C9B241F003018CF803108F
:100F100093E7AB78149A62F30413AB70A2E700BFB7
:100F20003402002034010020018000F0028000F033
:100F3000078000F0B400002038B5114B1B7883B156
:100F400088B10546FFF75EFD0E4900220B461C7B6B
:100F5000103354B10132082AF9D1FFF757FD0A487E
:100F600038BD0A4838BD0A4838BD13012A60CA187E
:100F70000125CC501573FFF749FD204638BD00BF51
:100F800034020020B4000020048000F0028000F051
:100F9000018000F010B5174A82B000231268019258
:100FA0008DF80430FFF72EFD134B1C78E4B90122B5
:100FB0001A70FFF72BFD114B04220DEB02001C737E
:100FC0001C7783F82C4083F83C4083F84C4083F82E
:100FD0005C4083F86C4083F87C408DF80720FFF775
:100FE000AFFD204602B010BDFFF710FD044802B06F
:100FF00010BD00BF5C32000034020020B4000020AD
:10100000038000F0F0B589B09DF838500F9C9DF832
:101010004070119E03950494129D01930024009248
:101020000B460246CDE905760795029421462046F7
:10103000FFF7C0FE09B0F0BDF0B589B09DF838509B
:101040000F9C9DF84070119E03950494129D01938E
:10105000002400920B460246CDE9057607950294DE
:1010600020460121FFF7A6FE09B0F0BD2DE9F843A7
:101070001D4E326EF36E12EA030834D41B4CDFF8B7
:1010800070900127002506E00135082D4FEA47073B
:1010900004F1100425D018EA070F2846F4D023687D
:1010A000B766002BF0D0D4E901210131A160984747
:1010B000637B012BE8D109EB451303F108021833D8
:1010C0000028E1D1117960F3410111711A790135DC
:1010D00060F34102082D1A714FEA470704F110042A
:1010E000D9D1BDE8F883FEE700200E40B40000200F
:1010F0003401002030B501219FB00D480D4DFFF7A0
:101100000FF901231A4605210020FFF7CFFC0FCD70
:1011100001AC0FC495E80700032384E8070001A988
:1011200008A88DF81A3000F019FE1FB030BD00BFBE
:10113000002508006032000010B582B002A9114CF1
:10114000002301F8083D0122206800F017FF042267
:1011500020680DEB020100F0EBFE9DF80730042B38
:1011600003D19DF806300F2B04D0074801F0ECF8AE
:1011700002B010BD9DF805300D2BF6D1034801F0EB
:10118000E3F8F5E714000020943200007C32000000
:1011900000B51E4BDC6C83B001A8240EFFF788FD60
:1011A0008E2C27D81A491B4BD1F8B0004FF05012A3
:1011B00040F00404C1F8B0401A601A631A66C3F81C
:1011C0009020C3F8C020C3F8F020C1F8B000104A46
:1011D000D36A23F07F0343F02003D3629DF80530E8
:1011E000012B0DD00C4B00221A60FFF783FFFFF795
:1011F000A3FFFEE78F2CEAD99DF80530012BF1D132
:10120000064A136843F004031360EBE7B081E00F74
:1012100000400E4000A00040B40AC64364310E40B6
:101220002DE9F84F2C4C4FF0000A04F1A0050646BA
:1012300000274FF0010B237F84F81DA073B1D4E980
:1012400000239F4208BF9642104619460BD2921BBC
:1012500063EB070310461946C4E900012834AC4289
:10126000E9D1BDE8F88FE37F33B92377A369002B79
:10127000F4D084F81DB0F1E7D4E90289301A67EBA5
:10128000010142464B4600F09FFE21696069B8EBC0
:10129000020869EB030942464B460029C4E90023D2
:1012A0000CDD0144F3296161E0D918F1010249F133
:1012B0000003F439C4E900236161D7E7411AF32937
:1012C0006161D3D918F1FF3249F1FF33F439C4E930
:1012D00000236161CAE700BF480200201A4BF0B446
:1012E00003F1A0014FF0FF344FF0FF351A7F3AB100
:1012F000D3E90067AF4208BFA6423CBF34463D4633
:1013000028339942F2D1114A002313706B1C08BF95
:10131000B4F1FF3F16D00E490E4B086000276FF066
:101320006406AF424FF0040108BFA642196238BFFD
:101330003446084B20445865012111705A6A42F026
:1013400004025A62F0BC7047480200203C020020B0
:10135000380200200020044070B5114C0546FFF70C
:1013600051FB00232246917F283239B10133042BEF
:10137000F9D10C4CFFF74AFB204670BD5DB103EB81
:10138000830204EBC20201260C4696772B60FFF71E
:101390003DFB204670BD044CFFF738FB204670BD76
:1013A00048020020011000F0041000F01D4B70B541
:1013B0001C78002C33D1012529461B481D701B4E7B
:1013C000FEF7AEFF02211A48FFF7F8F9032329467A
:1013D00018483371FEF7A4FF3046FFF749FC284652
:1013E0001549FFF729FC154A1549536A154823F496
:1013F000FF6323F00703536240F2FF754FF0005381
:1014000015629460C1F88031A0220B60214600F083
:1014100093FF0D490D4A0E4B0C7014701C60002098
:1014200070BD00BF3D02002000050800180000202C
:101430000500200080091200240000200020044044
:1014400000E100E048020020350200203C020020BC
:1014500040020020032810D838B50446FFF7D2FA1E
:10146000094B04EB840403EBC404A37F3BB10025C8
:101470002577FFF7CBFA284638BD04487047FFF7B9
:10148000C5FA034838BD00BF48020020021000F032
:10149000031000F02DE9F84F204DFFF7B3FA6B6A07
:1014A000AA69134023F005025B0781462A6230D502
:1014B0001B4FDFF874A03A68AE68DFF87080012334
:1014C0008AF80030B01A6B6A164C23F004036B6282
:1014D000FFF7A6FE4FF0000B637F58460BF1010BA0
:1014E00013B1A369216A9847BBF1040F04F12804E2
:1014F000F2D13046FFF7F2FEAE683A686B6D98F8AD
:101500000010B01A9B1A09B19842DCD800238AF85F
:1015100000304846BDE8F84FFFF778BA0020044095
:101520003802002048020020350200203C02002042
:101530000123416480F85030704700BF2DE9F84323
:101540000268444CA24205D0434B9A4202D0434821
:10155000BDE8F8830279052A19D9931F042B40F2BC
:10156000B682A2F10B03052B40F2EC82A2F111032B
:10157000062B40F20783A2F11803062B40F20783E3
:101580001F2A14BF4FF0FF0C4FF0050C01E04FF085
:10159000000C4579042D17D96B1F042B40F27F8274
:1015A000A5F10A03052B40F2BC82A5F11003062B1E
:1015B00040F2E682A5F11703072B40F2E6821F2DC9
:1015C00014BFFF27002700E000278479032C19D9D6
:1015D000231F042B40F25D82A4F10903052B40F286
:1015E0009682A4F10F03062B40F2C682A4F11603E3
:1015F000072B40F2D2821E2C04D01F2C14BFFF26D2
:10160000002600E00026C379022B29D9A3F1030E9E
:10161000BEF1040F40F23A82A3F1080EBEF1050FAD
:1016200040F26E82A3F10E0EBEF1060F40F2A182CF
:10163000A3F1150EBEF1070F40F2AC82A3F11D0E0F
:10164000BEF1010F0CD9B3F11F0E18BF4FF0FF3ED2
:1016500008E000BF0000014000040140022000F04B
:101660004FF0000EC0F83CE0002A59D0012A57D0B4
:10167000022A55D0032A53D0042A51D0052A4FD02C
:10168000062A00F01F82072A00F02882082A00F0AC
:101690003282092A00F03D820A2A00F044820B2A95
:1016A00000F04B820C2A00F055820D2A00F05D827A
:1016B0000E2A00F058820F2A00F06082102A00F0F3
:1016C0000182112A00F04F82122A00F05782132A59
:1016D00000F0F881142A00F00182152A00F00B8234
:1016E000162A00F01682172A00F01D82182A00F030
:1016F0006882192A00F063821A2A00F056821B2A97
:1017000000F051821C2A00F04C821D2A00F0478212
:101710001E2A00F012821F2A14BF4FF0FF32072248
:10172000002D00F02181012D00F0AE81022D00F08E
:101730009B81032D00F0BD81042D00F0C181052D9A
:1017400000F0A981062D00F0C781072D00F0CA81A5
:10175000082D00F0CC81092D00F0D5810A2D00F074
:10176000E6810B2D00F0E7810C2D00F0F5810D2DA9
:1017700000F0F7810E2D00F0FA810F2D00F08B8123
:10178000102D00F0EE81112D00F0F181122D00F0EE
:101790008281132D00F0A081142D00F0A381152D5E
:1017A00000F0A581162D00F0AE81172D00F0FF810D
:1017B000182D00F0D980192D00F066811A2D00F047
:1017C00053811B2D00F075811C2D00F079811D2D9A
:1017D00000F0AD811E2D00F0AE811F3D18BF4FF00F
:1017E000FF35002C00F0C480012C00F04A81022C4F
:1017F00000F03781032C00F05981042C00F05B814C
:10180000052C00F04E81062C00F05E81072C00F0C4
:101810006B81082C00F07181092C00F07C810A2C6E
:1018200000F07C810B2C00F08A810C2C00F08F8161
:101830000D2C00F093810E2C00F03D810F2C00F058
:101840008681102C00F08A81112C00F03481122C3A
:1018500000F02781132C00F03781142C00F0448114
:10186000152C00F04A81162C00F0B081172C00F0E6
:10187000AA81182C7CD0192C00F003811A2C00F0BE
:10188000F0801B2C00F012811C2C00F044811D2CD8
:1018900000F044811E2C00F099811F2C14BF4FF0E2
:1018A000FF394FF00109002B66D0012B00F0E780D3
:1018B000022B00F0D480032B00F0F680042B00F004
:1018C000FD80052B00F0E980062B00F00381072B3B
:1018D00000F00681082B00F00C81092B00F0158127
:1018E0000A2B00F022810B2B00F023810C2B00F03F
:1018F0002C810D2B00F0D8800E2B00F01A810F2BBD
:1019000000F02381102B00F0CF80112B00F0D68047
:10191000122B00F0C280132B00F0DC80142B00F09F
:10192000DF80152B00F04581162B00F04681172B28
:1019300000F04181182B1FD0192B00F0A0801A2B2A
:1019400000F08D801B2B00F0D4801C2B00F0DD807C
:101950001D2B00F02E811E2B00F02F811F2B14BF9A
:101960004FF0FF33022308E00125002C7FF43CAF49
:101970004FF00209002B98D10323036488460446E4
:1019800000293DD090F8148011466046B8F1000F50
:101990001DD143460422FFF789F8434629463846BD
:1019A0000222FFF783F8A37D012B4AD9494630462E
:1019B00001230422FFF77AF8E57DF5B994F83C009D
:1019C000216C01230422FFF771F82846C0E50023AB
:1019D0000222FFF76BF82946384600230422FFF75E
:1019E00065F8A37D012B4946304694BF00230123AF
:1019F0000222FFF75BF8E57DC5B30020BDE8F88360
:101A00001146604643460222FFF750F843462946F6
:101A100038460222FFF74AF8A37D012B18D9494620
:101A2000304601230222FFF741F8E57D002DE4D185
:101A300094F83C00216C2B462A46FFF737F82846DD
:101A400086E54346494630460422FFF72FF8B3E7C0
:101A50004346494630460222FFF728F8E5E70523CA
:101A60008BE74FF004091EE70325BAE694F83C0023
:101A7000216C01230222FFF719F8284668E50423A8
:101A80007BE74FF003090EE70225AAE64FF0010EAF
:101A9000E8E50126B7E50B25A3E60D236DE7012751
:101AA00093E54FF00C09FEE60B2366E74FF00509BE
:101AB000F9E6042595E64FF00B09F4E60C235CE704
:101AC00005258EE60B222BE64FF00D09EBE64FF0D5
:101AD000010C5EE50E2350E70C2582E60C221FE682
:101AE0000F234AE70D257CE64FF00E09DBE60E25B5
:101AF00077E6062341E70D2212E64FF00F09D2E602
:101B00004FF0020EAEE50F256BE6072335E7022600
:101B100079E50E2204E64FF00609C4E64FF0070906
:101B2000C1E6022751E50F22FAE5082325E706253D
:101B300057E6092321E7072553E60622F0E54FF093
:101B40000809B0E64FF0020C23E50A2315E74FF031
:101B50000909A8E60722E3E5082542E64FF00A094D
:101B6000A1E609253DE60922DAE50822D8E50A259D
:101B700037E64FF0030E75E5032644E50A22CFE56C
:101B8000032722E54FF0030C03E505271DE54FF081
:101B9000050CFEE44FF0050E64E5052633E505224D
:101BA000BEE50422BCE50322BAE50222B8E5002521
:101BB00017E60023E1E60223DFE60123DDE601224A
:101BC000AEE50022ACE54FF001096CE64FF00009EC
:101BD00069E600BF38B51446FEF714FF227D0023E6
:101BE000012A0546636484F84830A3630AD0E36A97
:101BF0001BB1626B2046002198472846FEF706FF7E
:101C0000012038BD606DFFF725FCF0E7F0B5044614
:101C10000068E568626300264FF4406C082D1746A3
:101C200084F8506087B0C0F80CC00A46E36222D93D
:101C300000F1240300F13C050126DFF844E0A16A2D
:101C4000206ACDF80CE04FF0010CCDE90176CDF81B
:101C500000C00494FFF7F0F9616AE069029600267B
:101C600001972A4604F11003CDE903660096FFF7B9
:101C7000C9F907B0F0BD00F11C0300F13405DCE741
:101C8000D51B00002DE9F043044690460268C06869
:101C9000C4F8348000264FF44065082884F850606A
:101CA00087B0D5608946E36221D902F1240302F1AD
:101CB0003C0501260027104AA16A206A0494039279
:101CC000CDE9018604F130020097FFF7B5F9616AAA
:101CD000E06904970124CDE90267CDF804804B4602
:101CE0002A460094FFF78EF907B0BDE8F08302F1B1
:101CF0001C0302F13405DDE7D51B000038B50546AD
:101D0000FEF780FE95F8483043B903F0FF04012345
:101D100085F84830FEF77AFE204638BDFEF776FE9D
:101D2000004838BD032000F010B504460820FEF737
:101D30006FFE48B194F850302BB9FFF797F994F83B
:101D40005030002BF9D010BD94F85030002BFAD150
:101D500094F85030002BF7D0F5E700BFF0B5664D92
:101D600006460F460FCD87B06C460FC495E80300BA
:101D700084E80300002E00F0A780002F00F08C8084
:101D800058220021304600F0D7FA3B685B4A934264
:101D90003C46354600F08380594A93427CD1594BEA
:101DA000594AF3644FF45023C6E9092327460FCF5D
:101DB0002E460FC697E8070086E80700637D012BD3
:101DC00008BF8DF80E30A37D43B1012B7FD0022BCD
:101DD00000F08580032B5FD14FF44073ADF81030D5
:101DE000237D4A48012B05BF00224FF47A73A36874
:101DF0008DF80D2001210293FEF792FA012144484B
:101E0000FEF78EFA0121E86CFEF78AFA694620682F
:101E1000FEF768FF6369226823F47F0323F47F439E
:101E20001BB9136843F4803313602379A179E07DF3
:101E300066791B020906002839D00B205067906F85
:101E40000B4320F01F21334321F01F010B43936705
:101E500001212846FFF772FBF8B9FEF7D3FD2D4BA1
:101E60001A78002A38D101221A70FEF7CFFDFFF749
:101E70009DFA237D012B37D0FFF78CF8002105F167
:101E80001C00FFF759F828B9014605F12000FFF7BB
:101E900053F810B1204800E0204807B0F0BD204BB7
:101EA000204AF3644FF44023C6E909237EE70F205C
:101EB00050670B43E079916F334343EA004301F0ED
:101EC000E0310B439367C3E7174807B0F0BD4FF409
:101ED0000073ADF8103083E7FEF798FDC9E74FF4C3
:101EE0008073ADF810307BE705F15400FFF734FA4A
:101EF0000028C1D00D48D0E7B032000000000140FA
:101F0000000401400032040001000D0040410500C2
:101F100000250800E8020020092000F0022000F05F
:101F20000022040001000C00012000F0042000F059
:101F300070B5047D012C18D051B14AB1B2F5006FD3
:101F400006DC15460E460446FFF7D8FE10B170BDFC
:101F5000074870BD2A463146064B2046FFF756FE1D
:101F60002046FFF7E1FE606C70BD034870BD00BF06
:101F7000022000F031150000082000F070B5047D4B
:101F8000012C18D051B14AB1B2F5006F06DC1546EC
:101F90000E460446FFF7B2FE10B170BD074870BD93
:101FA0002A463146064B2046FFF76CFE2046FFF7D7
:101FB000BBFE606C70BD034870BD00BF022000F026
:101FC00031150000082000F053B94AB9002908BFB4
:101FD00000281CBF4FF0FF314FF0FF3000F072B906
:101FE000ADF1080C6DE904CE00F006F8DDF804E070
:101FF000DDE9022304B070472DE9F047089E04464E
:102000008846002B4BD18A42154667D9B2FA82F234
:102010004AB1C2F1200701FA02F320FA07F795400E
:1020200047EA030894404FEA154E230CB8FBFEF72D
:102030001FFA85FC0EFB178843EA084307FB0CF1E7
:10204000994209D9EB1807F1FF3080F01B819942C2
:1020500040F21881023F2B445B1AA4B2B3FBFEF09E
:102060000EFB103344EA034400FB0CFCA44509D9E1
:102070002C1900F1FF3380F00781A44540F2048160
:1020800002382C4440EA0740A4EB0C0400271EB1A0
:10209000D4400023C6E900433946BDE8F0878B42AF
:1020A00009D9002E00F0EB800027C6E90001384670
:1020B0003946BDE8F087B3FA83F7002F47D18B424A
:1020C00002D3824200F2FA80841A61EB03030120FA
:1020D0009846002EE0D0C6E90048DDE702B9FFDEF1
:1020E000B2FA82F2002A40F08F80491B4FEA154E67
:1020F0001FFA85F80127B1FBFEFC230C0EFB1C1117
:1021000043EA014308FB0CF1994207D9EB180CF1A3
:10211000FF3002D2994200F2CD808446591AA3B210
:10212000B1FBFEF00EFB101443EA044408FB00F878
:10213000A04507D92C1900F1FF3302D2A04500F2C7
:10214000B6801846A4EB080440EA0C409FE7C7F1AC
:10215000200CBB4022FA0CFE4EEA030E01FA07F4F3
:1021600020FA0CF521FA0CF34FEA1E482543B3FB85
:10217000F8F92C0C08FB19331FFA8EFA44EA0343D2
:1021800009FB0AF49C4202FA07F200FA07F10BD9A4
:102190001EEB030309F1FF3080F087809C4240F280
:1021A0008480A9F1020973441B1BADB2B3FBF8F0A4
:1021B00008FB103345EA034400FB0AFAA24508D99C
:1021C0001EEB040400F1FF336BD2A24569D902383B
:1021D000744440EA0940A0FB0289A4EB0A044C4580
:1021E000C2464B4654D351D0002E69D0B1EB0A05FC
:1021F00064EB030404FA0CFCFD40FC404CEA0505CA
:10220000C6E90054002747E7C2F1200320FA03F78C
:10221000954001FA02F021FA03F34FEA154E3843D4
:10222000010CB3FBFEF71FFA85F80EFB173341EAEA
:10223000034107FB08F38B4204FA02F407D969183B
:1022400007F1FF3C2FD28B422DD9023F2944CB1AF4
:1022500081B2B3FBFEF00EFB103341EA034100FBF9
:1022600008F38B4207D9691800F1FF3C17D28B4263
:1022700015D902382944C91A40EA07473BE73746CF
:10228000304609E70746E7E61846FBE64145ABD28C
:10229000B8EB020A69EB0E0201381346A4E7604668
:1022A000E9E7184695E76746D1E781467CE70238BB
:1022B0002C4447E7ACF1020C2B442FE7384608E7E3
:1022C0003746E9E6704700BF08B5074B044613B12F
:1022D0000021AFF30080054B1868836A03B198476B
:1022E000204600F0A7FF00BF00000000C832000039
:1022F00070B50D4E0D4CA41BA4100025A54209D1AC
:102300000B4E0C4C00F098FFA41BA4100025A54216
:1023100005D170BD56F8253098470135EEE756F8DF
:10232000253098470135F2E790000020900000200A
:10233000900000209400002002440346934200D104
:10234000704703F8011BF9E70FB40A4B13B51C687B
:1023500024B1A36913B9204600F04EF805AB049AE6
:10236000A1680193204600F055F902B0BDE8104085
:1023700004B070472C000020002310B50446C0E9CB
:102380000033836081814366C281C0E90433836185
:10239000194608225C30FFF7CFFF054B6362054BFF
:1023A000A362054BE362054B2462236310BD00BFAB
:1023B0006D2B00008F2B0000C72B0000EB2B0000C3
:1023C000014900F085B800BFC52E000070B54A1E57
:1023D000682555430E4605F1740100F097F8044650
:1023E00040B10021C0E900160C30A06005F1680280
:1023F000FFF7A2FF204670BD836910B5044633BBCA
:10240000C0E912330365124B124A1B68826298427C
:1024100004BF0123836100F01FF86060204600F0D4
:102420001BF8A060204600F017F80022E0600421AD
:102430006068FFF7A1FF01220921A068FFF79CFF58
:1024400002221221E068FFF797FF0123A36110BD6C
:10245000C8320000C1230000F8B51B4B1E68B369E9
:10246000074613B93046FFF7C7FF4836D6E90134AF
:10247000013B03D5336833B13668F7E7B4F90C5044
:102480006DB16834F4E704213846FFF79FFF3060F0
:102490000028F1D10C233B6004462046F8BD0B4BCD
:1024A0006566C4E90055A560C4E90335C4E905556E
:1024B0000822294604F15C00FFF73EFFC4E90D55F0
:1024C000C4E91255E9E700BFC83200000100FFFF70
:1024D0002DE9F8438046894600F14804002614B9E6
:1024E0003046BDE8F883D4E90175013F01D5246881
:1024F000F5E7AB89012B07D9B5F90E30013303D0CD
:1025000029464046C84706436835EEE770B5CD1CFE
:1025100025F0030508350C2D38BF0C25002D064687
:1025200001DBA94203D90C233360002070BD00F009
:10253000BFFD214A1468214691B9204C23681BB97C
:10254000304600F003FB20602946304600F0FEFADA
:10255000431C24D10C233360304600F0AAFDE4E78D
:102560000B685B1B18D40B2B0FD90B60CD50CC180C
:10257000304600F09EFD04F10B00231D20F0070003
:10258000C31AD3D05A42E250D0E78C424B6816BFF0
:10259000636013600C46EBE70C464968CCE7C41C4B
:1025A00024F00304A04205D0211A304600F0CEFAF0
:1025B0000130CFD02560DBE7EC020020F0020020E4
:1025C0009368013B002B10B4936008DA9469A3422E
:1025D00001DB0A2903D15DF8044B00F00BBB136843
:1025E000581C1060197008465DF8044B7047F8B528
:1025F00006460F461446D518AC4201D1002007E02C
:102600003A4614F8011B3046FFF7DAFF431CF3D1BA
:10261000F8BD00002DE9F04F9DB00C46174603931E
:10262000064618B183690BB9FFF7E6FE7B4B9C4267
:1026300057D17468A38918075DD52369002B5AD038
:102640000023099320238DF8293030238DF82A3078
:102650004FF0010BB846454615F8013B0BB1252B51
:1026600054D1B8EB070A0BD053463A4621463046C0
:10267000FFF7BDFF013000F0C280099B534409936E
:1026800098F80030002B00F0BA8000234FF0FF32A2
:10269000CDE90523049307938DF853301A93A84688
:1026A000052218F8011B5E4800F0B2FC049B78BBC1
:1026B000D90644BF20228DF853201A0744BF2B228D
:1026C0008DF853202A782A2A2AD0079AA846002073
:1026D0000A25414611F8013B303B092B69D960B30B
:1026E00024E0504B9C4201D1B468A3E74E4B9C427E
:1026F00008BFF4689EE72146304600F0DFFA002864
:102700009ED04FF0FF301DB0BDE8F08FA846A2E785
:10271000434A801A0BFA00F0184304904546BEE77E
:10272000039A111D12680391002A01DB079204E04D
:10273000524243F002030792049398F800302E2B84
:102740000ED198F801302A2B38D1039B1A1D1B6833
:102750000392002BB8BF4FF0FF3308F10208059336
:10276000324D98F800100322284600F051FC40B189
:102770004023401B03FA00F0049B034308F10108C7
:10278000049398F800102A488DF82810062208F1C2
:10279000010700F03DFC002837D0264B1BBB039BF4
:1027A000073323F0070308330393099B4B44099332
:1027B00050E705FB0232012088468AE7002308F132
:1027C0000108059319460A25404610F8012B303AB6
:1027D000092A03D9002BC3D00591C1E705FB0121CC
:1027E00001238046F0E703AB00932246124B04A975
:1027F0003046AFF30080B0F1FF3F8146D5D1A389C9
:102800005B063FF57EAF09987DE703AB0093224658
:10281000094B04A9304600F087F8ECE7EC320000E1
:102820002C3300000C330000CC32000032330000A7
:102830003633000000000000EF2500002DE9F047CE
:1028400091461F468A680B69DDF820809342B8BF25
:102850001346C9F8003091F8432006460C4612B1E1
:102860000133C9F800302368990642BFD9F8003017
:102870000233C9F80030256815F0060507D104F1C8
:10288000190AE368D9F800209B1AAB4228DC94F8B7
:1028900043302268003318BF012392062DD404F17F
:1028A000430239463046C047013020D02368E568EE
:1028B000D9F8002003F00603042B08BFAD1AA36863
:1028C00022690CBF25EAE57500259342C4BF9B1A17
:1028D000ED184FF000091A344D451AD1002008E0D8
:1028E0000123524639463046C047013003D14FF0EC
:1028F000FF30BDE8F0870135C3E7E1185A1C3020EE
:1029000081F84300224494F8451082F843100233C2
:10291000C5E70123224639463046C0470130E6D09C
:1029200009F10109D8E700002DE9F04301F1430C5A
:102930000C46097E85B06E291746064698460C9AC5
:1029400000F0B38022D8632936D00AD8002900F0DD
:10295000B980582900F0838004F1420584F84210C0
:1029600032E0642901D06929F6D120681368050690
:1029700003F104012AD51B681160002B03DA2D2214
:102980005B4284F843206F480A2239E0732900F043
:102990009D8008D86F2920D07029DDD1236843F0AD
:1029A0002003236003E0752917D07829D4D1782338
:1029B00084F84530644855E01368191D1B681160A0
:1029C00004F1420584F8423001238CE01B68116059
:1029D00010F0400F18BF1BB2CFE713682568181D11
:1029E0001060280601D51B6802E06806FBD51B882D
:1029F00054486F2914BF0A220822002184F843108A
:102A00006568A560002DC0F29580216821F0040161
:102A10002160002B3DD1002D40F08E806546082AB4
:102A20000BD12368DB0708D5236962689A42DEBFB1
:102A3000302305F8013C05F1FF35ACEB05032361BC
:102A4000CDF800803B4603AA21463046FFF7F6FE4C
:102A500001304DD14FF0FF3005B0BDE8F08339486B
:102A600084F84510136821681D1D1B6815600A064F
:102A70000BD5CA0744BF41F0200121601BB9226871
:102A800022F0200222601022B7E74D0648BF9BB219
:102A9000EFE76546B3FBF2F102FB1133C35C05F8C7
:102AA000013D0B460029F5D1B9E713682568616936
:102AB000181D106028061B6801D5196002E06A061F
:102AC000FBD51980002323616546B9E71368191DFA
:102AD00011601D6862680021284600F099FA08B16B
:102AE000401B606063682361002384F84330A7E7DC
:102AF00023692A4639463046C0470130AAD02368A8
:102B00009B0713D4E068039B9842B8BF1846A3E71D
:102B100001234A4639463046C04701309AD0013534
:102B2000E368039A9B1AAB42F2DCEBE7002504F161
:102B30001909F5E7002BACD1037884F8423004F191
:102B400042056CE73D3300004E33000038B5064CBB
:102B5000002305460846236000F056FB431C02D1C3
:102B6000236803B12B6038BD5003002010B50C461C
:102B7000B1F90E1000F0ECFA0028ABBF636DA38929
:102B80001B1823F48053ACBF6365A38110BD2DE9EE
:102B9000F0411F468B89DB0505460C46164605D5D8
:102BA00002230022B1F90E1000F0B6F9A389B4F99E
:102BB0000E1023F48053A38132463B462846BDE8DD
:102BC000F04100F069B810B50C46B1F90E1000F0F4
:102BD000A3F9431CA38915BF606523F4805343F414
:102BE0008053A38118BFA38110BDB1F90E1000F06E
:102BF000D3B80000F8B50E461446054618B18369EF
:102C00000BB9FFF7F9FB214B9C422AD16C68A369F1
:102C1000A360A3891A072ED5236963B323692068AB
:102C2000C01A6369F6B28342374604DC214628465F
:102C300000F048F928BBA368013BA36023685A1C35
:102C400022601E7063690130834204D0A389DB07D0
:102C500019D50A2E17D12146284600F033F990B134
:102C60000FE00B4B9C4201D1AC68D0E7094B9C4272
:102C700008BFEC68CBE72146284600F01FF8002883
:102C8000CCD04FF0FF373846F8BD00BFEC32000023
:102C90000C330000CC32000038B5074C054608461E
:102CA0001146002222601A4600F0BCFA431C02D1F1
:102CB000236803B12B6038BD50030020324B70B540
:102CC0001D6806460C4625B1AB6913B92846FFF7C7
:102CD00093FB2E4B9C420FD16C68B4F90C309AB226
:102CE00015072CD4D00611D40922326043F04003DA
:102CF000A3814FF0FF303EE0254B9C4201D1AC68F0
:102D0000EBE7244B9C4208BFEC68E6E7510712D57D
:102D1000616B41B104F14403994202D0304600F0A6
:102D2000C9F900236363A38923F02403A38100234B
:102D3000636023692360A38943F00803A3812369A7
:102D40004BB9A38903F42073B3F5007F03D0214668
:102D5000304600F017F9A28912F001030CD00023CD
:102D6000A36063695B42A361236953B9B4F90C3072
:102D700013F08000BAD170BD920758BF6369A36099
:102D8000F2E70020F7E700BF2C000020EC32000043
:102D90000C330000CC32000038B5064C0023054649
:102DA0000846236000F008FA431C02D1236803B1EF
:102DB0002B6038BD500300208A892DE9F04105467B
:102DC00010070C4658D44B68002B05DC0B6C002B0D
:102DD00002DC0020BDE8F081E66A002EF9D0002375
:102DE00012F480522F68216A2B6032D0606DA38963
:102DF0005A0705D56368C01A636B0BB1236CC01A00
:102E000000230246E66A216A2846B047431CA3898C
:102E100006D129681D2948D8294ACA40D60744D571
:102E200000226260D9042269226004D5421C01D1CB
:102E30002B6803B96065616B2F600029C9D004F16C
:102E40004403994202D0284600F034F90020606320
:102E5000C0E701232846B047411CC8D12B68002B8E
:102E6000C5D01D2B01D0162B01D12F60B1E7A3894E
:102E700043F04003A381ADE70F69002FA9D093076A
:102E80000E6808BF4B690F6018BF0023A6EB070848
:102E90008B60B8F1000F9CDD43463A46216AA66A72
:102EA0002846B047002806DCA38943F04003A381ED
:102EB0004FF0FF308EE70744A8EB0008E9E700BFBA
:102EC0000100402038B50B6905460C46DBB118B14E
:102ED00083690BB9FFF790FA0C4B9C4209D16C68DF
:102EE000B4F90C307BB121462846BDE83840FFF7E5
:102EF00063BF074B9C4201D1AC68F1E7054B9C4294
:102F000008BFEC68ECE7002038BD00BFEC320000E1
:102F10000C330000CC32000038B5074C054608469B
:102F20001146002222601A4600F05EF9431C02D1CD
:102F3000236803B12B6038BD5003002070B50E46E6
:102F4000B1F90E10002996B014461D4607DA002389
:102F50002B60B3891A0610D44FF480630EE06A46E2
:102F600000F008F90028F2DB019A02F47042A2F5A1
:102F700000535A425A412A60EEE740230020236062
:102F800016B070BD8B8973B59D0706460C4607D5F4
:102F900004F14703236023610123636102B070BD24
:102FA00001AB6A46FFF7CAFF009905463046FFF7B6
:102FB000ADFA48B9B4F90C309A05EFD423F0030305
:102FC00043F00203A381E3E70D4BB362A3892060C2
:102FD00043F08003A381009B6361019B20615BB18F
:102FE000B4F90E10304600F0D7F828B1A38923F0C9
:102FF000030343F00103A381A3891D43A581CDE70A
:10300000C1230000000000000000000000000000DC
:1030100001F0FF01102A2BDB10F0070F08D010F889
:10302000013B013A8B422DD010F0070F42B3F6D18D
:10303000F0B441EA012141EA014122F007047FF0A6
:1030400000070023F0E80256083C85EA010586EAFD
:10305000010685FA47F5A3FA87F586FA47F6A5FA39
:1030600087F68EB9EED1F0BC01F0FF0102F0070245
:1030700032B110F8013B013A83EA010313B1F8D1F0
:103080000020704701387047002D06BF35460338D1
:10309000073815F0010F07D1013015F4807F02BF0A
:1030A000013015F4C03F0130F0BC0138704700BF5B
:1030B0007047704738B50546002945D051F8043CA3
:1030C0000C1F002BB8BFE418FFF7F2FF1F4A13686C
:1030D000104633B9636014602846BDE83840FFF7F6
:1030E000E8BFA3420CD921686218934204BF1A6852
:1030F0005B68636004BF521822600460ECE713460B
:103100005A680AB1A242FAD919685818A0420BD1DC
:1031100020680144581882421960DDD11068526855
:103120005A6001441960D7E702D90C232B60D3E71A
:10313000206821188A4204BF11685268626004BF87
:10314000091821605C60C7E738BD00BFEC020020B1
:1031500038B5074C054608461146002222601A463B
:1031600000F04AF8431C02D1236803B12B6038BD3C
:103170005003002038B5074C002305460846114689
:10318000236000F021F8431C02D1236803B12B60B7
:1031900038BD00BF5003002038B5064C002305465B
:1031A0000846236000F018F8431C02D1236803B1DD
:1031B0002B6038BD50030020024B58221A604FF09C
:1031C000FF30704750030020024B58221A604FF026
:1031D000FF30704750030020024B58221A60002035
:1031E000704700BF50030020024B58221A604FF076
:1031F000FF30704750030020024B58221A604FF0F6
:10320000FF30704750030020044A05491368002B23
:1032100008BF0B461844106018467047F40200209F
:1032200058030020024B58221A604FF0FF307047BD
:1032300050030020FEE700BFF8B500BFF8BC08BC93
:103240009E467047F8B500BFF8BC08BC9E46704764
:10325000040302000302010A0302060A0700000336
:10326000000001400000010140420F000800000082
:10327000000000000001000000000000494420722E
:1032800065676973746572207665726966696564DD
:1032900000000000494420726567697374657220FC
:1032A0006E6F74207665726966696564000000005F
:1032B000050000000000000040420F000501000072
:1032C00000000000000000003000002000000000AE
:1032D00000000000000000000000000000000000EE
:1032E00000000000000000000000000000000000DE
:1032F00000000000000000000000000000000000CE
:1033000000000000000000000000000000000000BD
:1033100000000000000000000000000000000000AD
:10332000000000000000000000000000232D302BF2
:103330002000686C4C0065666745464700303132B6
:10334000333435363738394142434445460030310D
:10335000323334353637383961626364656600006C
:043360000000000069
:08336400A4CDFF7F0100000071
:10336C00C0EA210100F04902C0EA210100800000FE
:10337C00C0EA2101F8020020010000000300000057
:10338C0000000000020000030000000030000020DC
:10339C0000000000EC3200000C330000CC320000C6
:1033AC000000000000000000000000000000000011
:1033BC000000000000000000000000000000000001
:1033CC0000000000000000000000000000000000F1
:1033DC0000000000000000000000000000000000E1
:1033EC0000000000000000000000000000000000D1
:0833FC00ED000000C900000013
:040000030000017D7B
:00000001FF
