S00C000072657472792E733337B2
S214004000007C00204DA0000049A0000049A0000050
S21400401049A0000049A0000049A0000049A00000F7
S21400402049A0000049A0000049A0000049A00000E7
S21400403049A0000049A0000049A0000049A00000D7
S21400404049A00000018A000049A00000BD820000CF
S214004050058A0000098A000071820000118A0000AB
S21400406049A0000049A0000049A0000049A00000A7
S21400407049A0000049A0000049A0000049A0000097
S21400408049A0000049A0000049A0000049A0000087
S21400409049A0000049A0000049A0000049A0000077
S2140040A049A0000049A0000049A0000025820000A9
S2140040B00D8A000049A000001582000049A00000FB
S2140040C0158A000049A0000010B5054C237833B9C6
S2140040D0044B13B10448AFF300800123237010BDD6
S2140040E0A8000020000000005CC1000008B5034BDB
S2140040F01BB103490348AFF3008008BD0000000071
S214004100AC0000205CC10000154B002B08BF134B11
S2140041109D46A3F5803A00218B460F461348144A65
S214004120121A06F04FFD0F4B002B00D098470E4B8F
S214004130002B00D098470020002104000D000D48F9
S214004140002802D00C48AFF3008006F017FD2000D0
S214004150290004F089FC06F0FDFC00BF0000080002
S214004160007C00200000000000000000A8000020E6
S2140041700C1C0020000000000000000047F6FF7343
S214004180994270B54ED0284B13F83020012A1E46AF
S2140041904FEAC0000CD10344D878013800B220B1F1
S2140041A05A6832F910208A42F7DC0130C0B270BD7E
S2140041B003445C68B4F90050A94203DC1B4D8D42F1
S2140041C0B8BF0D46304428234178A5F1C80292FBBB
S2140041D0F3F2524213B29942DCBF01F1FF331BB235
S2140041E04FF47A7604EBC3020133D08892681BB290
S2140041F015FB002020EAE070994200F5FA70B0FB4B
S214004200F6F204DD04EBC30080888242EAD904EBB0
S214004210C30333F8040C904228BF1046002808BF9A
S2140042200120C3E7FF20C2E7D0160020C880FFFFAA
S21400423037B50446684680E8060003C8251D85E8AD
S21400424005002373069B2361BDF81C30A382002360
S2140042502360084B1A6812B91C6004E00A4611680D
S2140042600029FBD114609888013080B2988003B092
S21400427030BD00BF6809002007B503790193054AE1
S2140042800368009306CA02230830FFF7D1FF03B085
S2140042905DF804FB50C100000A4B40F2011210B555
S2140042A01A604FF0FF329A6001225A6008441A469C
S2140042B0814202D1D869C04310BD11F8014B946108
S2140042C0F6E700BF00C00140F8B5431E4F4E504F02
S2140042D0032B0AD8DFE803F002948A8F8022402559
S2140042E006230724002970D104E0002969D14FF481
S2140042F0007208233B4432669B001A68002AFCD1F1
S2140043005EE0736A13F0300F61D1736ADC0705D57F
S214004310726A22F0300242F0100272620324022314
S21400432004253A4A1566DA1992001368002BFCD069
S2140043303C44A4002368002BFCD0022840D100296E
S2140043403ED0324B5A6A12F0010F1A4643D04FF451
S2140043508062C3F8A82020225A665A6A12F0300FEC
S2140043600CBF4FF440024FF40002D3F8901032EA2C
S2140043700101FAD1520201D5D3F8A030234E002114
S2140043800220D6F89C70FFF79FFFD6F89030726A2E
S214004390204B22F0300242F010027262C7F30A0786
S2140043A0316BFA0903320F2A03EA010328BF0F22F2
S2140043B03B4343EA0273336335662368002BFCD025
S2140043C0F8BD092408234FF480750021A9E70324CB
S2140043D002230425F9E7536AD2F8903003F4400329
S2140043E0B3F5400FF8D1D2F8A030C7E70125022276
S2140043F000232C4676E7202210250423052471E7A7
S21400440000297FF47EAF0822022373E700400E40A7
S2140044108004F21000F8FF0F70B540F62804E0B0F4
S2140044202368A3F50062B2F5605F05460E4615D216
S2140044301B6BA3F50062B2F5605F0FD25B6A4FF4A8
S214004440C07269460020984730B923681B6B324615
S214004450DB6A29466846984760B070BD4FF4017025
S214004460FAE7000040F628020B461268A2F5006143
S214004470B1F5605F10B40DD2126BA2F50061B1F514
S214004480605F07D21469064A0146A44600205DF81C
S214004490044B60474FF481705DF8044B704700BFD3
S2140044A0B809002070B540F62805E0B02B68A3F5E3
S2140044B00062B2F5605F04D34FF40174204660B02A
S2140044C070BD1B6B002BF7D05B6A4FF4C072694659
S2140044D00020984704460028F0D140F201262B68B9
S2140044E0A3F50062B2F5605FE6D21B6BA3F500622F
S2140044F0B2F5605FE0D29B6A002168469847B042FA
S214004500EDD040F20323984218BF0446D6E70000D9
S2140045100B4A536911699B0003F03C03C1F38111F8
S2140045200B438370136903F03F0343709369D269AA
S21400453003F0F003C2F3031213430370704700BF87
S214004540D0FF0FE0304B1A6FD96CC90702F0070294
S21400455042D5012A40D9132851D9143813288CBFC4
S214004560102308232849013BCA6C180322F47F4213
S21400457040EA03231343CB64244BCA6C1B88C2F364
S21400458003222833013202EB820003EB5303B3FB12
S214004590F0F3C86C013B072B20F0EE6028BF072322
S2140045A040F4801040EA0363CB64194BB3F9003043
S2140045B0002B10DB2833500800EB420203EB5303BA
S2140045C0B3FBF2F30A6D072B28BF072322F0700215
S2140045D042EA03130B657047DB6CD90706D4012A41
S2140045E004D809280BD90A380928B8E7064BDB6C2B
S2140045F013F00103B6D0012A03D82728AFE7042317
S214004600B0E70023AEE700BF00300E40860900206A
S2140046108A090020054A064B1B68136F23F0070320
S2140046201843044B10671888FFF78CBF00300E4005
S2140046308009C6438409002000B962B670470000AE
S21400464010B50246EFF3108072B6054C2368594049
S214004650114059402160FFF7EFFF03EA020010BD4A
S214004660F00F00200A490B4B88425A680BD90A49BA
S21400467088420AD902F040715A6822F0407242EA33
S21400468001625A6070470021F6E70121F4E700BF97
S21400469040787D0100000E40005A620200F00F00D4
S2140046A00138072848D8DFE800F0040F1947232D03
S2140046B04735244BD3F8943003F00703023B022B14
S2140046C03CD8214AD05C70471E4BD3F8803003F0AC
S2140046D00703013B032B33D81C4AF3E7194BD3F8E7
S2140046E0843003F00703013B032B29D8184AE9E777
S2140046F0144BD3F8883003F00703013B032B1FD875
S214004700144ADFE70F4B1B6F13F0010F14BF09208D
S214004710072070470B4BD3F85C3103F03003202B97
S21400472006D0302B06D0102B0CBF07200120704778
S2140047300420704708207047002070470520704707
S2140047400120704700400E4080AC000083AC0000A3
S21400475087AC000083AC00000C4B984210D90C4B81
S214004760984210D9022201230A490B600A49D1F85F
S214004770003123F0807343EA0263C1F800317047CA
S21400478000221346F0E70122FBE700BF0048E801DD
S2140047900090D0034000C84300400E400A490B4A30
S2140047A04B6813F0070F07D1936E2BB1084B1B6AAB
S2140047B0C3F30C03013B8B61064B80211960136821
S2140047C023F020031360704700000840F00F00201D
S2140047D00010084088400846084BD3F8882012F09E
S2140047E0A00F0AD108229A60054B9B6913F4007F3C
S2140047F014BF044A044A022313607047004008406E
S214004800F00F00200040084600400844EFF31080F8
S21400481072B6094B4FF000621A6080221A600822B6
S2140048201A6010221A604FF080521A6040221A60F6
S21400483020221A60FFF700BF00E100E0EFF31080CF
S21400484072B6224B4FF00062C3F88020BFF34F8F42
S214004850BFF36F8F8022C3F88020BFF34F8FBFF364
S2140048606F8F0222C3F88020BFF34F8FBFF36F8F86
S2140048700822C3F88020BFF34F8FBFF36F8F10223C
S214004880C3F88020BFF34F8FBFF36F8F4FF0805277
S214004890C3F88020BFF34F8FBFF36F8F4022C3F85B
S2140048A08020BFF34F8FBFF36F8F2022C3F8802086
S2140048B0BFF34F8FBFF36F8F4FF08042C3F8802057
S2140048C0BFF34F8FBFF36F8FFFF7B6BE00E100E078
S2140048D010B5046884EA010323EA020200F180634B
S2140048E014401C6040F8042C00F1C0600A400260CE
S2140048F010BD00004DF804BDEFF3108072B6144BE7
S2140049001978E9B9134BD3E900234FF0000C02F4F1
S214004910105B5BEA0C0313D10F4B10221A600D4B91
S214004920D3E900234FF0000C02F4807B5BEA0C0313
S2140049300BD1094B5DF804BB20221A60FFF77CBE42
S214004940064B10221A600029E9D0044BF2E700BF9C
S214004950C4120020C80D0020944008449440084625
S2140049602DE9F041074616468846FFF7C3FF07F0D5
S214004970AA620023134348F2020108BF4FF4004125
S214004980B20748BF41F4005100224B48FFF7A0FF92
S21400499007F400420023134307F480324FF000036D
S2140049A014BF4FF480510021134307F010024FF05C
S2140049B0000318BF41F48071134307F020024FF044
S2140049C0000318BF41F40051134307F040024FF0B4
S2140049D0000318BF41F40071134307F080024FF044
S2140049E0000318BF41F48061134318BF41F400610F
S2140049F000223248FFF76CFF08F00403002213433E
S214004A0007F400624FF0000314BF4FF4802100212A
S214004A10134307F480424FF0000318BF41F480317F
S214004A20134307F002024FF0000318BF41F4801151
S214004A3013434FF0000307F4003218BF41F400118F
S214004A40134318BF41F40021730748BF41F0040127
S214004A5001221B48FFF73CFF1A4B1B491B4816F068
S214004A60010F18BF194607F080420023134318BFF2
S214004A7041F000710022FFF72BFF07F00101002232
S214004A801348FFF725FF07F4802200231343114B3A
S214004A901149124807F004044FF0000518BF1946E4
S214004AA054EA050318BF41F480614FF4A022BDE824
S214004AB0F041FFF70DBF00BF6C0008408C60084057
S214004AC020400840001C7000001870006850084025
S214004AD03C7008400D0A0A09090A0A09EC10084049
S214004AE0044B00221A70044B197811B11A70FFF7A4
S214004AF001BF7047CC160020C4120020024B586835
S214004B00C0F30360704700BF0040084008B5EFF3ED
S214004B10108172B6FFF7F2FF032806D1074A5368E2
S214004B2023F0F00343F0E0035360054B40F201220C
S214004B305A620846BDE80840FFF77EBD7C0F00219C
S214004B4000000840094B1B6830B5C517A3FB0001E1
S214004B5003FB051110F1807341F10004580E40EA82
S214004B60C410803820EAE07030BD00BF80180020F6
S214004B702DE9D84802460C46002800F0A280C80757
S214004B8066D5D08A002800F09E80584B91681B6836
S214004B90C3F17F4303F57F0303F576433C335B1A8B
S214004BA04FF47A7101FB0030FFF7CCFF504B1861D1
S214004BB0508A002800F08A804C4B91681B68C3F12D
S214004BC07F4303F57F0303F576433C335B1A4FF4CC
S214004BD07A7101FB0030FFF7B5FF454B9860908A6D
S214004BE0002876D0414B91681B68C3F17F4303F5DC
S214004BF07F0303F576433C335B1A4FF47A7101FB6F
S214004C0000305368C01A3B4B1B68C717A3FB00BC99
S214004C101BF1807003FB07CC4CF10001430E43EA06
S214004C20C113508B3249803BCB60002854D02F4BA9
S214004C301B68C3F17F4303F57F0303F576433C33DC
S214004C404FF47A7101FB0030FFF77CFF284BD861E8
S214004C50A1071BD5D3894FF47A70584323B1136844
S214004C6003F51C5310331844FFF76CFF204B986174
S214004C70108BA0B39368A3F50353103B4FF47A71DF
S214004C8001FB0030FFF75EFF194B5861630718D52C
S214004C90138A3BB34FF47A705843A0F5035010388C
S214004CA0FFF750FF124C918920604FF47A7048430A
S214004CB021B1136803F51C5310331844FFF742FF65
S214004CC06060BDE8D88847F230506DE747F2305054
S214004CD081E747F2305096E747F23050B4E747F2A4
S214004CE03050CFE747F23050DAE700BF7C1800209C
S214004CF0900F00218018002038B5124D4FF4002286
S214004D002A60114A1060114A1268D2B1104B114C39
S214004D101B6F00F5F42000F59070B0FBF4F4033C34
S214004D20E4B203F00703A34202D02046FFF772FC6A
S214004D30094B1B782BB1094B4FF4702224041A60E0
S214004D402C6038BD94400846180000208009C643F1
S214004D5000300E4040420F0088090020944008446E
S214004D60064B5B6BC3F3C20203F0070002B150436D
S214004D70C3F3821303B15843704700BF00300840A6
S214004D80064A1146536803F07063B3F1C06F02D150
S214004D90D36BDB06F6D540238B6070470040084097
S214004DA00D4BDB6C13F0200F0CBF00200420D9063F
S214004DB048BF02301A0744BF0230C0B2590744BF8A
S214004DC00230C0B29A0744BF0130C0B2DB0744BF0E
S214004DD00130C0B2704700BF00000840044BD3F853
S214004DE09430002BBCBF034BC3F88000704700BF55
S214004DF00040084000000840064B10B51968064BF6
S214004E001C684FF000420023E0FB042301FB003047
S214004E1010BD00BFF4160020F016002070B5064C3A
S214004E200546A069FFF7E8FF0646A069FFF7E4FF1E
S214004E30801BA842F9D370BD00500840F8B5094D54
S214004E40094E0A4FD5F8882004243460D5F88830F7
S214004E505B0300D4F8BD3C600220FFF7DFFF346040
S214004E60F4E700BF004008408840084688400844F1
S214004E7011F0080F14BF1B4A1B4A082311F0010F3C
S214004E8010B58161136014BF164A174A01230C46F9
S214004E901360FFF7D3FF14F0040F14BF134A144A2D
S214004EA04FF400731360134B042214F0020F1A60C1
S214004EB014BF0C4A0C4A0223136014F0100F0E4B5A
S214004EC014BF00221B2214F0800FDA644FF4001384
S214004ED005D00A4A1360FFF719FE002010BD084AE5
S214004EE01360FAE744000846440008441C6008467D
S214004EF01C600844884008440000084018600846C3
S214004F00186008442DE9F74F06460C461546EFF3A1
S214004F10108872B6DFF85891030199444FF48077F1
S214004F204A4B01228740022DC9F800205F6604D153
S214004F304046FFF781FB012010E0D3F818A050464A
S214004F40FFF75AFF012D04BF01342418001BB0F1EF
S214004F50804F06D24046FFF76FFB002003B0BDE847
S214004F60F08F3A4ADFF8FCC0106FD26E06F10903E4
S214004F7020F0E00002EA0C0C1902C0041B0622F026
S214004F80E00243F4803341F00101C00CD2048842B1
S214004F900CBF04200020D20C9C4508BF40F0020045
S214004FA0914208BF40F0010010F0010E18BF284BD8
S214004FB0264918BF1C60274BD1F830C0D3F800B084
S214004FC04FF000420023E4FB0B23CDE90023224AE6
S214004FD0019B126802FB0434644501EB061306F1DC
S214004FE0070628BF644601EB0616C3F88040112367
S214004FF073608B69CA6DA4EB0A04A3EB0A0A5445D6
S21400500096D83A4294D125B90123C9F800304F66A4
S214005010A0E70F66BEF1000F08D0104B104941F60E
S2140050201F7240F201141A600C601A60820706D5DF
S2140050300A4B0B490B4A0C4C1A600C601A6043076B
S21400504042BF0A4B01229A6072E700BF0050084038
S2140050504C010020001C0020041C00206C5008445A
S2140050606C50084600001F1F000001010040084069
S214005070745008441E491F4A30B54C881368B4F56E
S214005080E16F114623F47F538CBF5A22C82223F0C7
S21400509008038CBF50257825824226BF1C0A04F4DC
S2140050A07F5443F6C87423431E280B604FF0010359
S2140050B008D91149A8420B608B6107D80F4B08220C
S2140050C01A6014E00E4A13609361F7E70D494DF637
S2140050D001730B608B610C4B824234BF4FF4574018
S2140050E04FF4504008221860986143F8702C30BD89
S2140050F02A000020E00F002108410846944008449A
S21400510008410844044108440441084608B5FFF72E
S21400511027FE092818D80D4B01281B5C05D10C4B1F
S2140051201B78012B14BF042344231809094900F0F7
S214005130070242EA00128A6003F00F0203F0070338
S21400514043EA02134B6008BDFA23EEE7E1C0000015
S2140051502A000020E00F00210A4B0B494FF4803252
S214005160C3F8E8200A609A6BD1B2C2F307229967A7
S2140051709A6704229A6700229A679A679A679A67DC
S2140051809A67704700100840EC100846EFF310804E
S21400519072B60E4B0E4A01219965C3F8881011604D
S2140051A00C495160072151620B4A11800B490022BD
S2140051B00A804FF4A021C3F8E81003F1C063EC3373
S2140051C01960074B1A60FFF737BA00BF0010084097
S2140051D060100840C80000204A0100204801002056
S2140051E02C060020034B044A18601860034B126814
S2140051F01A60FEE71C00002050010020200000205E
S214005200294938B50868294B29499A6B096800FB73
S2140052100212196B274B1B68C9024CBFD218D21A50
S214005220254B1C6814B92B20FFF7DCFF23482449C4
S214005230B2FBF1F10144234B4D782349EA40B2FB1F
S214005240F1F10844417843F6FF50186002EB54032E
S214005250B3FBF4F3013B43EA053343EA81231B49DE
S2140052600B601B49B2FBF1F301FB132264214A4396
S21400527018498A4298BF03F1FF335A08013A072AB1
S21400528006D801335B08013B072B01D812B90BB9CE
S2140052901020C9E71B0243EA02130F490F4A4FF4D6
S2140052A0EE600860136038BD5009002000300840EA
S2140052B0580900205409002018000020B8B000004B
S2140052C040BE4025A4400844401B5F13A440084647
S2140052D000F04902FFEF49023040084430400846DB
S2140052E0431E012B03D9031F584258417047012023
S2140052F070477047094A13884FF6FF718B4210B506
S21400530009D00748074C046000F100701B040360D6
S2140053101180002010BD0320FCE700BF8C18002081
S2140053203C6008440000FFFF0178054B426D5A6060
S214005330C90101F400614FF40060FFF781B900BFB6
S214005340F00F0020054BA0221A60102243F8882C8C
S214005350034B18680C30FFF7E7BF00BF88400844CF
S214005360500100200F4B5B68C3F30363013B0B2B1C
S2140053700DD8DFE803F014140614140C14080A08F9
S2140053800808032070470420704705207047064B26
S214005390DB6813F0060F14BF0420012070470220BC
S2140053A0704700BF004008400050084003789A0746
S2140053B02DE93048014612D5826A82B16FF3410367
S2140053C0037050690268531C0BD01E49D1F83C315B
S2140053D01B0C1B0494B22343C1F83C310260BDE8A9
S2140053E03088D1E91A23002403F0040554EA0503A3
S2140053F004D10B7843F002030B70F0E7EFF3108054
S21400540072B64B690A6903F480331A430A61FFF7E0
S21400541013F900229BB90023D1E91A4502EA040BCE
S21400542003EA050C5BEA0C03D9D0074804685A4621
S214005430A1F10C0063462146BDE830480847042326
S214005440EAE700BF004008402400002038B1044BC3
S2140054506FF0FF021A6003F1007310401860704787
S2140054601870084470470000094B30B5196C5C6C26
S2140054700022234642EA0104220C82701A0A210AFC
S214005480C2701A0C1B0E047041700271437130BD5D
S214005490B081E00F214BD3F8F82102401CD170B444
S2140054A0D3F8FC51D3F8006203F5FC74641BA41017
S2140054B0022C12D0032C29D0012C1AD0184A52687C
S2140054C02A6005F10C026860C3F8FC21A960336805
S2140054D00C33336070BC70477047114A1C1D52680D
S2140054E02A60686004221960C3F8FC41326070BC10
S2140054F070470B4C1A4664682C6042F8080B08206C
S2140055005960C3F8FC21306070BC7047044C646876
S214005510A960C5E90040C3F8FC31E7E7FC180020A5
S214005520001000E0837DDB0701D5808A7047D0E954
S21400553001239B1A44BF828A9B1898B270470000CA
S214005540044B5A6D22B95865A3F8581001207047CD
S21400555000207047F0080020D0B50C4CE38C0A20E1
S214005560584305F05BF80646A08C0F4605F056F843
S2140055700022074B05F0BCF802460B46304639467B
S21400558005F0E0F905F0C6FA2083D0BDF00800204B
S2140055900000F43F084A10B5146840F2E24358434E
S2140055A003FB0141536800F5807001EB500118447D
S2140055B01160506010BD00BFF008002070B50022DA
S2140055C08AB01346D91003F00704415C2141CC078A
S2140055D041BF0AA98918013201F8283C0133252B5E
S2140055E0F0D10E4D0023D91003F00704415C214191
S2140055F0C90707D5E91881F82A300133252BF2D1DF
S2140056000AB070BD0AAE93FBF2F102FB11313144D1
S214005610EC1811F8286C84F82A60EEE7F0080020F1
S214005620012810B514BF0124022420460CBF042113
S2140056302146FFF755FE70B10120FFF751FE50B12D
S214005640FFF790FE420706D40D4B188B40F0807093
S21400565040EA044098610846FFF742FE78B1012010
S214005660FFF73EFE58B1FFF77DFE830707D4044AD6
S21400567093691B0C1B0443F480730B43936110BDAA
S214005680F00F0020024B986C80B28002704700BF7B
S214005690B081E00F7FB50E4B02466D4603F1100653
S2140056A0186859682C4603C40833B3422546F7D118
S2140056B0531E04A90F3211F8014D13F8010F84424E
S2140056C004D19342F7D1012004B070BD0020FBE75F
S2140056D054AC000070B51A4D286810BB194B1A4C14
S2140056E0E41A1A4B1C4424F4FF6424F00704FFF762
S2140056F0C9FF844214D2666BA6B1FFF7C3FF864289
S21400570010D2FFF7BFFF06F1380383420AD83046AF
S214005710FFF7C0FF30B1F36933F0080302D02C6006
S214005720286870BD04F1C8063046FFF7B3FF20B105
S214005730D4F8E43033F00803F1D104F50064D6E77A
S214005740B403002010000020A4000020A7C9000019
S214005750BFF34F8F0549064BCA6802F4E062134355
S214005760CB60BFF34F8F00BFFDE700BF00ED00E04A
S2140057700400FA0540F628031B68A3F50062B2F59C
S214005780605F07D21B6BA3F50062B2F5605F01D2C3
S214005790DB6B184740F20110704740F6280310B440
S2140057A01B68A3F50064B4F5605F09D21B6BA3F514
S2140057B00064B4F5605F03D29B6B5DF8044B18473A
S2140057C040F201105DF8044B704740F628031B6852
S2140057D0A3F50062B2F5605F01D25B6A184700204D
S2140057E0704740F628031B68A3F50062B2F5605FB9
S2140057F001D21B6A18474FF48170704740F62803A1
S2140058001B68A3F50062B2F5605F01D2DB6918473A
S2140058104FF481707047000028231A68B2F5006FB5
S2140058200BD240F628031B68A3F50061B1F5605F54
S21400583003D21168084A914203D0002303708360A4
S21400584070471968054A9142F7D1012202709A689A
S21400585042609B69F3E700BFAD1007B007B0CD5EAE
S21400586010B50C4630B90448FFF7D6FF034B23604B
S2140058700423A380002010BD080400200C04002090
S21400588010B508B3114B1A68918881421CD39988C9
S214005890814281BF0121126899809A6099889A682E
S2140058A000242AB904B19A604FF6FF71998009E086
S2140058B0884204D00131126889B20124F1E70CB1A4
S2140058C098809A60104610BD0022FBE77009002001
S2140058D037B50D461446FFF7D3FFD8B10369828A61
S2140058E063B14FF6FE718A4208D100200090ADF8F1
S2140058F004006946984738B103B030BD2B6022805B
S214005900286848B92080F7E7009B2B60BDF8043074
S2140059102380F5E70120EFE70020EDE737B50D46D9
S2140059201446FFF7ADFF70B1036973B1818A4FF675
S214005930FE72914209D10095ADF8044069460120F7
S214005940984703B030BD0120FBE70E20F9E70000C2
S2140059500B4BD3F8942002F00702022A04D001D39E
S214005960042A0AD9074800E00748D3F80031C3F3F1
S21400597004230133B0FBF3F070474FF40040F4E724
S21400598000400E40C0EA210100F0490208B5FFF7CA
S214005990DFFF044BD3F81031C3F308230133B0FB09
S2140059A0F3F008BD00400E4010B50446FFF7EEFFCA
S2140059B08C40641142F210714C436423B0FBF3F048
S2140059C0B4FBF0F010BD00003E4B3F4A2DE9F04717
S2140059D0002814BF80464FF00108C3F800803B4BF8
S2140059E09B69C3F38213062B0F46137063D0384BA4
S2140059F01B78022B61D0012B0CBF3225B4255FFA31
S214005A0085FA08215046FFF7CFFF4FF0030904261A
S214005A10082480450ED052D93444E1B25046FFF7F0
S214005A20C3FFB9F101094FEA5606F2D1804538BFE7
S214005A3004F1FF34254B2A04DA66264A40F6FF7145
S214005A40116002F1007221021160D3F86C80D3F865
S214005A5068905FFA88F009F00F01FFF7A5FFC9F319
S214005A6003110646C8F30720FFF79EFFC9F303217C
S214005A700644C8F30740FFF797FFDFF8548030442A
S214005A80A8F80400FFF782FF05FA04F44FF4FA754D
S214005A90114B6C4341F66A05B0FBF5F0B4FBF0F42D
S214005AA00A204443012138461C60FFF761F8B8F825
S214005AB00400BDE8F0870025A1E796259FE738BFDC
S214005AC0A41BAAE7D80D002028000020006008408C
S214005AD02A000020686008447C180020C26A10B5BE
S214005AE062B11368022B09D9536AC3F3072020B1A9
S214005AF0126ADBB25343B3FBF0F010BD1D4B9C693A
S214005B0004F03003202B23D1C4F3024018B1C4F3B1
S214005B10C421B1FBF0F014F4C01F18BF40004108C8
S214005B20032928BF0421FFF731FF124B1A6B93B2EB
S214005B302BB1C2F30742C0085043B0FBF3F3C4F3E3
S214005B400112012A0ED0022A0ED003FB01F0D4E780
S214005B50C4F38213012B01D0042B01D10221E2E70A
S214005B600121E0E75B08F0E7C4F3C4220132B3FB8F
S214005B70F2F3EAE70060084008B5FFF7E9FE044BD9
S214005B80D3F80831C3F308230133B0FBF3F008BDA4
S214005B9000400E40FFF7DCBE404B2DE9F74F93F870
S214005BA000A03F4D80460E4617469946BAF1000FB4
S214005BB03AD1FFF767FD3B4CA0F580502060FFF719
S214005BC061FD394A0123A0F500606060136021681A
S214005BD0019304310820FEF75FFB2268019B1268E0
S214005BE0824208BF2268616808BFD2F804B001F19B
S214005BF004014FF008000CBF9A46D346FEF74CFB54
S214005C0063681B68834205D163685B685B4506D89A
S214005C10002305E0BAF1000FFAD1FF2300E00123CC
S214005C202B70012389F8003095F900305A1C05D1F5
S214005C3000203870306003B0BDE8F08F194ADFF8F6
S214005C406C9052F823500C352C464FF6FF7AC4F36E
S214005C500A030833B3F5006FEAD2A3885345E7D0AA
S214005C60A079211D0430FEF717FB23688342E388E2
S214005C7002D1A28842450BD0DBB2033303F4FE7395
S214005C8008331C4485EA040313EA090FDFD0CFE784
S214005C9008343B7001203460CDE700BFF4180020C4
S214005CA0140000207C0900201416C84300F8FFFFEB
S214005CB037B50379124A03330446019300F14403CF
S214005CC0009306CA02231430FEF7B2FA228A019223
S214005CD0E268237A009204F12C0094E80600FEF7AE
S214005CE0A7FA237AA4F84500054684F844302279BA
S214005CF0216804F1470004F07CFF284603B030BD5D
S214005D0048C1000070B50E4C0E4B04F1100206465A
S214005D100D4692E80300183483E803001846FEF7A1
S214005D20ABFA094B94E8030002221A7283E80300D8
S214005D30DE601D821846BDE87040FFF7B9BF00BFA1
S214005D4054AC00009018002038070020042806D81D
S214005D500138032806D8DFE800F00202020200231A
S214005D601B78FFDE70470000B1F9121047F6FF738C
S214005D70994210B5044609D0054B1878FEF7FEF98F
S214005D80A37883428CBF0020012010BD0120FCE7D1
S214005D902A0000202DE9F041054616468846FFF702
S214005DA0C1FBAB8A181A80B2864228BF0646374621
S214005DB05FB93EB1D5E901329A4202BFAB7D43F0EE
S214005DC00103AB753046BDE8F081AB8A2C68A86845
S214005DD01C44241AA3B2BB428CBF3C46A4B2224643
S214005DE0414604F006FFAB682968AA8A23440A44A1
S214005DF0A0449342A7EB0404AB60A7B228BFA960F7
S214005E00D6E770B5044615461E4611B3FFF78AFB63
S214005E10A38A181A80B2012829D9E37D63B1E36802
S214005E20628A1A70120A07D02068A18A01330144D8
S214005E308B4228BF0346F4E700236382A368E3602F
S214005E40022204F112012046FFF7A4FFE37D01338E
S214005E50E375324629462046FFF79CFF638A0344D3
S214005E606382E37D13B9238A0344238270BD002036
S214005E70FCE700002DE9F0410D4F06460D4614469E
S214005E800CB9BDE8F081EFF3108872B623462A46B7
S214005E9031463846FFF7B5FF03464046FEF7CCFBD3
S214005EA0002BEDD0E41AA4B21D440026E8E700BF9C
S214005EB07411002013B5002301F10804ADF8043076
S214005EC0ADF8060021461A46083151F8100C70B994
S214005ED00BB1ADF8042004220DEB020101200834BA
S214005EE0FFF7C8FF54F8101C39B902B010BD51F8BE
S214005EF00C3C1A4492B20123E6E734F80C2C00203E
S214005F00EDE700007FB500230130CDE90101CDE9C2
S214005F1004336946044B009304200392FFF7CAFF3C
S214005F2007B05DF804FB00BFF60300202DE9F04142
S214005F30164605468846FFF7F5FA864228BF064607
S214005F40B6B237464FB92EB1AB7DDA0744BF23F061
S214005F500103AB753046BDE8F081AB8A2C686968F2
S214005F601C44641AA3B2BB428CBF3C46A4B2224671
S214005F70404604F03EFE6B682968AA8A23440A4419
S214005F80A0449342A7EB04046B60A7B228BF6960E5
S214005F90D8E770B51E46038A04461546EBB9C27D9F
S214005FA0DAB10123013A0B70C27500F1100102222A
S214005FB0FFF7BCFFE37D9BB1228AB24228BF324680
S214005FC029462046FFF7B2FF238A1B1A2382E37D69
S214005FD013B9638A1B1A638270BD00230B70EBE74C
S214005FE0638A2382E8E7000070B50E46B0B9FFF773
S214005FF071FB0446FFF76EFB60B1094D04F1C80360
S21400600004F58074186859682A4603C20833A34208
S2140060101546F7D1034B33600423B380002070BDD0
S214006020B8030020D8030020F8B53B4C2278032A9A
S214006030074602D0C820FFF71DF82578374C032DF9
S21400604003D1FF2727703846F8BD354B354A1B6805
S214006050012D02EA030213D1072F28BF0727012FBD
S214006060314B38BF0127042142EA07621960BFB2EC
S2140060702B4BFFB21A6038462770FEF7FBFFE2E7AD
S21400608042F47F5646F00806002D40D1042F3FD933
S21400609001250423FF1A254BD3F88811C94301F4C0
S2140060A0FE1141F40051B1FA81F1C1F11301C1EBC7
S2140060B04111FFB2CBB2BB4228BF3B4603EB85077C
S2140060C00BB1013BDBB21F21B3FBF1F1C1EB411277
S2140060D09A1AC9B24FF0FF331206013103FA01F1E2
S2140060E002F18072C943324342EA8132002F1049DE
S2140060F0104B18BF4FF07F43C1F858314FF4800360
S21400610045B101F1C06101F584710B60B0E700256F
S2140061102B46BFE70849F8E72A00002015000020B4
S214006120E00F00213F00C0E05841084400400E4008
S214006130004008400400000B0841084408B590F8E9
S214006140DC30032B04D00846FFF76EFF002008BDA6
S2140061500220FCE70C4B032210B51A605860EFF3E0
S214006160108072B6D3F8E020520758BF04224FF0D2
S2140061700004DC60996058BFC3F8E820FEF75CFABC
S21400618009B102229A6210BD00100840000000000B
S2140061902DE9F347724BCDE9000117466EA1D1E910
S2140061A000011E68DDE9002302400B40134300F0A7
S2140061B098806C4BD3F89030DDE90023002302F082
S2140061C08052134309D0684B9B6903F07F43B3F1B9
S2140061D0007F02BF654B02221A60DDE90023002320
S2140061E002F0C052134305D061490868FFF72EF944
S2140061F000230B60DDE90023002302F001021343B5
S2140062004FD0EFF3108072B65A49DFF89481D1E987
S214006210002322F001041D46C1E90045564A5749AD
S214006220012313608B63FEF707FAEFF3108972B64B
S214006230FEF764FC8B689B09C3F3090A02469805BF
S21400624048BF4AEA080AFEF759FC0238C0B20128DD
S2140062500FFA8AFA74D8931EDBB2012B8CBF002388
S21400626001234846FEF7E8F91AF5007F6AD1002BAD
S214006270DBD10120A6F812A000F0F0F8736A4049BE
S21400628013F0800F14BF3F4A3F4A4FF400131360C9
S2140062900868FFF7DBF800230B60337B43F0080346
S2140062A03373DDE90023002203F00403134318D000
S2140062B0DDE9004525F00405EFF3108072B6336A79
S2140062C0F26903F001031A43F261FEF7B5F9002202
S2140062D0002B3CD1002344EA020045EA0301CDE945
S2140062E00001D6E91D23DDE9008908EA020809EA6B
S2140062F0030958EA090318D0244B42461968304669
S2140063004B46884708F00802002313431EBF204B65
S21400631000221A601F4A002308EA020409EA03055D
S21400632054EA050301D0FEF7E5FFFB0711D51A4A2C
S21400633013680020106063B102B0BDE8F04718474C
S21400634000238EE7154A002B08BF924691E70423E8
S214006350C1E702B0BDE8F08701001818040000008D
S2140063605001002000500840F00F00200040084672
S21400637088180020C80D00203C70084400700840B3
S214006380841800201860084618600844240000207E
S214006390280600200000F817F818002000FEFFFF6F
S2140063A000FCFFFF0D4B1B782DE930489BB10C4BD2
S2140063B01C6DC4F30C0474B9FEF792FB094B0A4D2E
S2140063C0D3E900BC224601230BF4805000212B7039
S2140063D0FFF7DEFE2C70BDE8308800BFCC1600202C
S2140063E000100840C80D00208C12002038B5054665
S2140063F0EFF3108472B6FEF7C9FE35B1FEF770FBF8
S2140064002046BDE83840FEF717B9034B1B78002B33
S214006410F6D1FFF7C7FFF3E78C12002038B50C4B18
S214006420D3F8EC5003F18063EC334FF480641C60C7
S214006430084B00201860FFF7D9FF074B4FF40052B7
S2140064401A606A0542BF03F1007398331C6038BDBA
S21400645000100840280600205410084402282DE9A1
S214006460F84F05D0032800F0B3800024A04602E0D1
S21400647000244FF00108EFF3108972B6574AFEF772
S2140064803DFB032804D1136803F00F03032BF6D15A
S214006490B8F1000F28D0514D514A2968FEF72EFB5F
S2140064A001F00F03984208BFC1F30313032B01D07A
S2140064B0092B06D1D2F88C30DB03EED4536F0C2BAD
S2140064C0EBD9FEF7BBFC474B01221A6003F17E4373
S2140064D07C3304221A60FEF711FB00287AD13F4A6B
S2140064E0536823F0F00353603F4DDFF82CB1FEF7FE
S2140064F001FFA0232B603D4BD3F8A42012F0010F20
S2140065000AD03B4901220A604FF400615966CBF875
S21400651000204FF480525A66344E364BF366002302
S2140065203367FEF78BFC344A2D4F136843F0200385
S2140065301360324BFF221A604FF48073BB60042353
S2140065402B60FEF7E3FA2220FEF748FC4FF4802388
S21400655073602023BB604FF0010A4FF48053CBF8E2
S21400656000A07366B8F1000F27D02046FFF73EFF65
S214006570234B5B68234BC3F800A0F4B1224BDA6EC2
S2140065809A663B6AFB61214BD3F88C20C3F88820BF
S214006590A3F54053DA6F9A67A3F50053D3F8EC20BF
S2140065A0C3F8E82003F5C043DA6B9A63184B7366AA
S2140065B0FEF796FA4FF47C432B604846FEF73CF80D
S2140065C014490868FEF742FF00230B60BDE8F88F09
S2140065D001244EE7FEF7D4FB7DE700BF7C0F0021C9
S2140065E0004008400C4008468840084400500840D8
S2140065F0A450084400000101F00F002000400844A9
S214006600B081E00F0C4008440000084000600840DD
S2140066105000F00288180020B45008442DE9F84FC6
S2140066201E46036A012B07460D46904600F0D880AA
S214006630FEF798FE012806D00120FFF70FFFFEF7B1
S21400664091FE0128FBD1FFF7A1F90446FEF788FB6F
S214006650B8F80C30D8F80410ED1A240BD8F8083027
S214006660C4EB8444002808BF0120B4FBF0F0C00946
S214006670834284BFB3FBF0F40134ADB283BFB3FBF7
S214006680F4F41A1B05FB02111C463F2D82BFAA0913
S2140066909B0103FB0211544B1A6888BF05F03F05A7
S2140066A08A42994625D1514B1B68A34218BF012642
S2140066B04F4B504AD3F8383113F0100F4E4B0CBFE7
S2140066C090469846002E77D0FEF74AFB8246FEF7A5
S2140066D047FB80B1494BB3FBF0F399420BD3484BD1
S2140066E0B3FBF0F0814206D8BAF1000F06D10220C3
S2140066F077E00126DCE70E20FEF774FD0AFB01F6C4
S214006700C9F800103F4ADFF818910023F004710B17
S21400671003F0B2FCD9F8301083463A48C1F31301AF
S2140067204FEACA420023A1FB000103F0A5FC364B4A
S214006730344A18602D4BE0041C60A0FB0A01630B72
S2140067400AFB0311002303F097FCBAF1010F14BFF4
S2140067502E4A2F4A102313602E4BC9F82CB0C9F8C6
S2140067603C001A7822B9D9F8502002F03F021A707D
S2140067701F4AD2F89420520619D52749B6FBF1F1E4
S21400678040F24D5601FB01F256434CF20C6202FBFE
S214006790116101F5C91101F5556109B92B20ABE767
S2140067A01A781E4B5343B3FBF1F11D4B1965FEF7E8
S2140067B027FD4046FEF7A0FA3846FEF7F7FDFEF73F
S2140067C09DF90428FBD00A28F9D008B10F2093E7DA
S2140067D0134B9D6303F5805380229A60FEF710FDED
S2140067E00020BDE8F88F00BF58090020500900209F
S2140067F000400840C0CF6A00E067350000371789C0
S214006800007DDAAC00F04902540900203841084601
S21400681038410844081C002000366E018096980017
S2140068200030084008B54FF485700021FEF732FEB0
S214006830054B002203201A61FFF710FEFEF792FDBB
S2140068400128FBD108BD00BF001700202DE9F74F37
S2140068507A4E11464FF486701D461446FEF71AFE11
S2140068603369B14633B94FF4837003B0BDE8F04FD7
S214006870FEF710BE002D08BF082C40F0AA80EFF3EC
S214006880108B72B66E4A6F4C16886F4924686F4D2F
S21400689006F07F0202F0780008447CBB2C88344463
S2140068A0073C04F078040C44A21A521A2D8848BFFC
S2140068B08032954225DC5846FDF7BEFE0024D9F806
S2140068C00430C9F814405B7A89F81830FB1F5F4221
S2140068D05F4199F81930A9F81AA067F3000389F800
S2140068E01930019BC9F81C305949D9F810300220DC
S2140068F0984703B0BDE8F04FFFF790BD24F00104C1
S214006900D2E7A042534829D1C6681FFA86F8016824
S21400691001F00701063101268E404F49D1F880105C
S214006920C1F30C018A42B6B23EDA25882A04C2D4E4
S214006930A778C5F30C05701EA5EB080507F007073A
S21400694030432840052F85B213D9FEF729FA281AB6
S21400695000B200280EDA0420FEF744FCA4F1080575
S2140069608D4238BF04F17805B5F80080C8F30C08EE
S214006970CDE728B21FFA80FA384A013E126808EAC4
S2140069800606931958460193FDF756FE002C96D03E
S214006990002F94D0082F92D0EFF3108072B6304BB1
S2140069A01C60FDF749FE8AE78268701EA2EB080AA3
S2140069B0304300EA0A001FFA80FAFEF79FF8BAF1A1
S2140069C0000F04D103280CBF08270027D4E70827A8
S2140069D0D2E7002D08BFB4F5002F05D10021012015
S2140069E003B0BDE8F04F184704F4C0520023134329
S2140069F009D04FF480714FF48170FEF74BFD336978
S214006A0000210320ECE704F440720023134309D06E
S214006A1001214FF48170FEF73DFDD9F810300021BA
S214006A20FF20DDE704F020720023134319BF012185
S214006A3040F2011021464FF48370ECE70017002067
S214006A40480100202C060020C80000204A01002033
S214006A50181700203010084000100840C40000201E
S214006A6028060020F7B54D4A53691BB3022B16685B
S214006A702CD8EFF3108072B6494A4A4F11884A4D17
S214006A8001F07F0219D1494BB7F800C01B6833B933
S214006A9001EB0C03073B03F078032B4401E023F0E3
S214006AA001039A1A521B398848BF8032914209DC8A
S214006AB0FDF7C2FD204603B0F0BD012BF1D102F078
S214006AC07803EAE7FDF7B8FD002BF3D01F883A04F9
S214006AD0F0D49D78FEF764F9C4B2002CEAD005F035
S214006AE00705063D012D57D8314A324BDB6C156839
S214006AF005F00705AB1D01259D40063F691EBFB288
S214006B00394057686D1AA4B247F00057A542394479
S214006B103FD22A46684604F06CF8621B39460DEBF5
S214006B20050004F066F89DF80100336C9DF900102E
S214006B304000C0B203B19847DDF80200FEF75CF9EA
S214006B40746C4FF47A7304F5FA74B4FBF3F4041B14
S214006B5006F10C00FEF7C2FF174AD36BC3F3011110
S214006B601B0C01FB033342F210718B42A2D8D26990
S214006B7002F01F021344114A03FB02231422B0FB47
S214006B80F2F213440A22B0FBF2F0B3FBF0F3E41A7D
S214006B9090E722466846C4E700248BE700170020EB
S214006BA0480100204A010020C80000202C060020D2
S214006BB0301008400000084000600840A086010031
S214006BC02DE9F843604BDFF8AC915E6804460F464B
S214006BD000F138054FF0010817B13A68531C44D14C
S214006BE0FEF794FA594B5A4A9B691278C3F38213FC
S214006BF09A4204D0574B29461868FEF7E5FE524BDA
S214006C005B68E3622046FEF769FF534B534A1B68F6
S214006C10E76AC3F381231370514B1B68B742C3F373
S214006C20812353701AD04F4E27B13B6813B1BA6810
S214006C30002A58D100210720FDF702FD4A4A00230A
S214006C4073665360002F76D1002319461A46A16357
S214006C50C4E90F2307212846FDF78AFF237843F06F
S214006C60020323700020BDE8F883C2F30260C2F37B
S214006C70074159F8200093B2012943EA00030FD9CF
S214006C808A00D0193946A3EB070E0EEB010C51F81B
S214006C90043FCCF800308842F7D1043217449BE713
S214006CA0120F78680837072A96D8DFE802F00A0439
S214006CB008110C0F1417C04303F1806301E01A6833
S214006CC05040186088E7FEF7A9F885E708FA00F054
S214006CD003F1C063F5E708FA00F0EDE71A6830EA5A
S214006CE00202FBD178E7214B07211960107986F85C
S214006CF0640092F805C09CFAACF3B3FA83F3202B39
S214006D0008BF4FF0FF335FFA83FE2CFA0EFC03F049
S214006D100F0343EA0C1386F86530937986F86630DD
S214006D20D37986F867301368B366114B01309861E3
S214006D300846FDF785FC3B68002B85D03A69002A9B
S214006D4082D00ECA83E700BFEC0F00210060084027
S214006D5028000020D80D0020A0000840D10D0020FB
S214006D60A4000840F00F002054100020040008443F
S214006D70000008403CC100002DE9F04F764E774BEE
S214006D80774A5B68D2F8008089B0894631680391FB
S214006D9081880091002373498DF81F308DF81E30CE
S214006DA0D1F88810019211F4002F18BF3360D0E993
S214006DB009A718BF6C4B35681CBF4FF400221A6039
S214006DC0BD42044603D115B1009B99453FD0BAF1A8
S214006DD0000F00F0B680DAF80830002B00F0B18023
S214006DE0DAF80C200292002A00F0AB809B460122C3
S214006DF00023BBF80E1049452CD8BBF810104945A7
S214006E0028D35946204605938DF81E200492FEF797
S214006E10ABFFDDE90423E0B18DF81F205F46534B3E
S214006E2093F800B09DF81F30DBB1A1782046FFF73D
S214006E3085F9B8F1000F61D0D04532D18DB3BD428F
S214006E402FD1009B994518D1A762A4F8049000257D
S214006E5073E05F460299013399420BF1180BC8D1D3
S214006E60DDE79DF81E30002B6DD0414BB7F91210B0
S214006E701878FDF783F90146D8E72A4600234946E5
S214006E802046FFF7CBFB05460028DDD059462046B6
S214006E90FFF754F90023326800992046FFF7BEFB3F
S214006EA04BE0D8F800304BB3DAF800209A4225D1F0
S214006EB0D8F804102046FFF783FE0546002844D184
S214006EC039682046FFF77CFE054600B3019BC3F8F1
S214006ED00080039B3360B8F1000F04D0D8F8001090
S214006EE02046FFF76DFE59462046FFF727F9336820
S214006EF01BB319682046FFF763FECBE7DAF80010ED
S214006F002046FFF75DFE05460028DFD1D8E7019B47
S214006F10A762C3F800A0A4F8049001233A464946A5
S214006F2020463760FFF77AFB05460028CED1114B86
S214006F3039461B68A4F10C009847284609B0BDE8FE
S214006F40F08F0325F9E70125F7E7019BC3F80080DA
S214006F50039B3360C2E700BF60090020B081E00FEA
S214006F605C090020004008408840084415000020C6
S214006F702A00002030000020334B70B50C46D3F8B2
S214006F80881011F0A00105465BD14FF40060FDF7B4
S214006F9057FB21462846FFF7EFFE044620B1284659
S214006FA0FEF7C2F9204670BD284B294A29484FF4FF
S214006FB04061196013789B020360274B1960537871
S214006FC0264A9B021360FDF739FF254B25494FF4EF
S214006FD080621A60A3F5FC53143B04221A600B6807
S214006FE0DB0542BF204B4FF480721A600B6803F437
S214006FF0C072B2F5C07FD5D11C4E13F4001F3368A3
S21400700003F0070303F106004FF0010303FA00F351
S214007010306A0CBF03220422C0F30C00013B8242FC
S2140070209BB209D27068F5682A441340034403F102
S21400703000531B78CB60B5E72846FEF775F90324A6
S214007040B0E70224AEE700BF00400840A0000844B6
S214007050D10D0020A0000846A4000844A40008465D
S2140070601C600844F00F00208840084600100840C6
S2140070700D4B0E495B680E4B10B5436200238362CE
S2140070804FF6FF74CA18D289944201D9144612B139
S2140070901833F02BF6D1074B002221461A60FFF773
S2140070A06BFE204610BD00BFB081E00F7CAE000036
S2140070B068AE00005C090020F8B5304C25686060BA
S2140070C02B7BDE072FD50668417A436893FAA3F335
S2140070D02B4A1B0A13610123936002F5804216F0C7
S2140070E0010F1664D36B0CBFAA27552723F00F0396
S2140070F0552F0CBF43F0010343F00203D363214A2C
S2140071004423D36241F040011F4B116307221A60EB
S21400711003F1007301221A601C4A4FF48043136087
S21400712053609360D360238CD9050BD5184E037A31
S2140071303178994206D0012B05D0022B17D0636810
S2140071401B7A3370F8BD2B7BDA07F8D5FEF70AF901
S2140071500128F4D105F10C00FFF78AFF2823A5F8D3
S2140071605230022105F14400FDF702FDE7E72B7BD4
S214007170DB07E4D5FEF7F6F8E1E700BF00170020CE
S214007180002008400000084034000844A0000844DE
S214007190640900202DE9F047324C334F2646637AC7
S2140071A0324D0133DBB2272B88BF2523204663727E
S2140071B0FFF782FFB17B2E4896F80C800231FEF76F
S2140071C0C9FF6B682B4A5B7A08F00108404612F844
S2140071D00390FEF725FAD5F80080494608F10C0022
S2140071E0FFF7CAFEB8B9B8F85A1042F210739942BF
S2140071F098BF581AEFF3108A72B6DFF88480D8F872
S214007200A430DB0704D4D8F80C3013F0060905D0F8
S2140072105046FDF711FAFFF705FBC0E7FDF7BEFA8B
S214007220154BC8F86C30154BC8F8709008221A60D9
S214007230134B4FF4006101223A60596640F6014153
S214007240196701460320FDF75DFE18B90B4B802237
S2140072501A60DDE75046FDF7EFF90A4B2B61BDE8F3
S214007260F08700BF54030020A450084400170020F5
S2140072706103002014C1000000000101884008449A
S214007280005008400579000070B590F8DC30032BFC
S21400729005460E4611D0A970816A81B1FEF764FDDD
S2140072A030B9A862A9882846FFF766FD002070BDA1
S2140072B031462846FEF742FFF8E70220F7E7084681
S2140072C0F5E70000134A144C08B5937E43F04003DC
S2140072D09376124B00221A70114B1B784FF0005514
S2140072E06BB1FEF78BFA0F4B2B600123A36023686C
S2140072F023F4E06343F480632360FEF729FA2B60EF
S2140073000123A360236823F4E06343F480632360CF
S214007310FEF71EFAF008002000500E404C09002030
S214007320FD03002002020FF010B5134CA37E5B068F
S21400733021D4FFF777FA2168A38C40F2E24202FBE1
S2140073400312226094F84F10A27A25200A4492FB7A
S214007350F0F100FB1122A2722289013222816268BA
S2140073600A2101FB03236360238B5A1E228313B971
S2140073700820FFF7A7FF10BDF00800202DE9F74F03
S214007380DFF88091DFF880A1514C40F6010021899A
S214007390FEF780F8A37E13F04002254640F0948066
S2140073A043F0010303F0FD0362F38203494AA37628
S2140073B0136823B121899288914200D19847A37A15
S2140073C045481D4495F82A306375FFF775FED4E9E5
S2140073D00087424C424A63685B7A0120D15C019187
S2140073E0FEF71EF92568FDF7BDFF012805F10C061E
S2140073F08346019904D0FFF711F8FFF795FFC3E71E
S2140074003046FFF7B9FC0028F5D1B5F85410EFF375
S214007410108572B6334ED6F8A42012F0010203D0BF
S2140074202846FDF709F9E6E72F4BF3662F48304B61
S21400743032671A70036823F0200303604FF400637A
S214007440C9F800B07F0873662A4BF366A8EB0703FB
S214007450591A0320FDF756FD0028E1D0D6F8A430CF
S214007460DA0703D4244B5B685B04D9D5234B1D4E47
S2140074704FF0010B83F800B0FDF732FB4FF480535A
S214007480CAF800B07366F36E23F0F85323F4F813CB
S21400749043F0506343F4803308F16401F36600223E
S2140074A039440420FDF72EFD38B94FF40063C9F8BF
S2140074B000B073660C4BF366B2E72846FDF7BCF8DF
S2140074C0FEF7ACFF0E4B236103B0BDE8F08F00BFA4
S2140074D0F008002090120020FC0800200017002072
S2140074E014C100000050084000000101F00F002009
S2140074F08F180020010C0100004008408E18002064
S21400750061750000A4500844B450084408B5024B06
S2140075109879FFF7D7FE00BF9012002010B5034CF5
S214007520A01DFEF74BF80023236010BD901200202C
S21400753010B5094CB4F80710A079FEF72BF8A3682D
S214007540064AB4F80D10D184C3F30F239384FEF7D4
S21400755003F80023236010BD90120020F0080020DE
S21400756002282DE9F7430F460BD003D8012800F078
S214007570AC81FEE7032800F0B081FF2800F0AD8163
S214007580F7E748784E68B84D10F001045BD14FF02D
S214007590FF3140F60300FDF77DFF2646AB7EB34C79
S2140075A013F0200F12D0696D6FF34513AB760029E8
S2140075B000F09980237895F85820627043F0030312
S2140075C02370A01C03F015FB00236B65A848FDF78D
S2140075D0A9FFAA7E2378003018BF012060F341027D
S2140075E0C2F30011AA7661F38203C2F3C00262F30B
S2140075F0C30360F304132370218840F60200FDF7EE
S21400760049FF617899480231C9B2FEF7A3FDAB7E07
S2140076107C68D90709D56FF30003AB7600236B604F
S214007620FFF720FA2860FDF797FF4EB1237803F0A6
S2140076300303022B00F031816DD8012B00F02C8162
S21400764003B0BDE8F083318840F60300FDF722FF63
S2140076503378A97E96F80080C3F3001363F38201A3
S214007660A976C8F3C003C1F300118B4206D108F017
S2140076700303022B05D019D8012B31D0002634463F
S21400768015E0A146767896B17A48848AFDF74AFFD7
S214007690201A80B2B9F1000F04D0022886BF023843
S2140076A080B2002086428CBF002401242646AB7E92
S2140076B0C8F38008C3F3C002904507D082F00102E9
S2140076C062F3C303DBB243F02003AB76002C3FF437
S2140076D065AFAB7E81F0010161F30413AB765DE725
S2140076E04FF00009CEE795F828306148A21C0DF14E
S2140076F00701FEF74EFCC0B258B19DF80730002BCC
S2140077000CBF012202222378607062F3010323700B
S2140077105CE70122F7E7A378022B65D011D8002B8F
S2140077204DD0012B38D0544A127822B1162B7FD078
S214007730182B00F08C8051480722027043700221FB
S21400774027E00C2B18D0142B56D0082BEBD14C4B23
S21400775054F8035F198CC8B205EA0002474801F4E2
S2140077607F41044642EA0105092104F8011B002373
S214007770C0F8015063600CE040484FF0FF320370E1
S214007780012343708270037102220023C27043718A
S2140077900621FDF7D5FE53E7617A237A394A43EA94
S2140077A0012393801346384943F8061B54F8031FF9
S2140077B0C2F80610A2889A80A2799A7140E7627B86
S2140077C0237B304943EA02238B800B462F4A43F83B
S2140077D0062B54F8032FC1F8062062685A602289E7
S2140077E01A81A27A9A722BE72A89264B05329A804A
S2140077F0274A1A60E278E0E7B4F80530B4F80320C8
S2140078001E48DB08934228BF13462B85152300210C
S2140078106FF004046FF027020370072381708171F4
S2140078204470C27003714471C27103720921B0E7DB
S2140078302279E3781148134003F00303022B18BFA4
S214007840012317220270437083700321A1E7627937
S214007850A1790C4B42EA01229A800E4A1A60D4F8AB
S2140078600320C3F80620EBE6F0080020001B0020EB
S214007870741100205C1000208D120020A41200203D
S21400788000170020901200201D75000031750000C2
S2140078900D750000ED78000000261248818AFDF77D
S2140078A041FE081AA51C80B2647826B1022886BF5D
S2140078B0023880B20020A3B283423FF6C1AE2A4609
S2140078C031460848FEF79DFABAE6074B9B7E9A07B4
S2140078D03FF5B6AE5B073FF5B3AEFFF725FDFFF706
S2140078E04DFDADE65C100020F0080020034B044A76
S2140078F09979117500221A60704700BF9012002017
S214007900F008002002282DE9F0411FD002D80128F7
S21400791007D0FEE7032800F09880FF2800F0958047
S214007920F7E74B4C237B980707D5FEF77BFFFFF75F
S21400793031FC237B6FF341032373237B990701D428
S214007940DA0764D4BDE8F041FFF724BC4B784C68F6
S214007950DB077AD5227802F00F07032F59D0052FC0
S21400796073D13C498B7B03F00103B3EBD21F04F1C8
S21400797008004CD10622083103F02CF98046002876
S21400798045D1FEF74FFFFFF76DF8334D41460646EB
S2140079905C22284603F016F9AB7E2F8343F02003C3
S2140079A0AB76627E237E43EA0223AB84627F237F2C
S2140079B043EA0223EB8494F82330C3F3040385F8E8
S2140079C04F3094F82330C3F3421385F8503004F157
S2140079D01E001B232B85FDF7F1FDD4F80E30E27C4C
S2140079E0EB60A37C2E6043EA0223227D607D43EA9F
S2140079F002432B61012795F84F30AB722F75E18A51
S214007A003944FDF7C7FDFFF7B9FC144B1F70BDE8FE
S214007A10F08110498B7B03F00103B3EBD21F04F116
S214007A200800F4D10622083103F0D4F80028EED17D
S214007A30074C94F8361004F135000231FEF78AFB45
S214007A40237B43F002032373E1E7FEF7EBFE79E7BF
S214007A505403002000170020F00800204C090020E6
S214007A602DE9F04385B088466946044681E80C0057
S214007A700C9EBDF83470FDF703FF4FF6FE79054601
S214007A800DB1444505D94FF6FF74204605B0BDE854
S214007A90F0832B7A9DF804209A421ED100996868DC
S214007AA003F098F8C8B9002EEFD02B69AA8AA3B1C4
S214007AB04A4509D10290ADF80C0002A9984760B972
S214007AC0029BBDF80C2043B1974206D13A461946B0
S214007AD0304603F07FF80028D7D001342D68A4B2D2
S214007AE0CEE738B50D4611462C68A41A2246014446
S214007AF003F08AF82C6038BD2DE9F047DFF86C817A
S214007B004F4CD8F800304F4EC51A4F483560241AEF
S214007B104E48044424F4FF6424F00704A542C146FA
S214007B206FD313445F19FDF7ADFDA0F58050874273
S214007B3067D2D8F800008418B4F5806F03D9444B98
S214007B4082221A705BE0DFF82081424F404403F047
S214007B5050F8D7F800A0C9F80040BAF1000F1CD1C1
S214007B60D72C4CD93C4A08F1C80308F1D80853F87A
S214007B70041B42F8041B4345F9D13748FDF78AFD3C
S214007B8010B9334B8422DCE71022FF21334803F080
S214007B9019F8334A05F1C803136004F003083148A6
S214007BA02C44A4EB08040440BAF1000F0AD1284084
S214007BB0C0F500612144FDF7DDFD3C6048B1244B73
S214007BC08522BEE7A24504D2A4EB0A010AF50060AE
S214007BD0F1E7D9F8002024493068A2EB0802FDF747
S214007BE0DCFDD9F8002033682049A2EB08020446E1
S214007BF013441D483360FFF774FF002CDFD1BDE847
S214007C00F0871B4B5B68B3F1827F114B12D218785A
S214007C100A4400268A4203D1002EF0D01870EEE700
S214007C2011F8017BFF2FF5D00126A54234BF87202F
S214007C308320EFE7A54234BF8722832281E700BF77
S214007C40A4000020D40D002010000020A7C90000CA
S214007C50BD0D0020F8160020B01200208E13002064
S214007C60C012002000F8FFFFC6120020C816002031
S214007C70140400202DE9F04F01288BB040F03D8120
S214007C808A88002A00F03B819F4D95F800B0BBF132
S214007C90000F00F036819D4B1C7898465CB99C48D6
S214007CA0067882463EB99B4E30681718B7F5806F47
S214007CB005D982241C7020460BB0BDE8F08FDFF893
S214007CC070920968484402F094FFBBF1020F3760D7
S214007CD03AD0032FEFD9904F3846FDF79DFD3B78FD
S214007CE0D9F80020012B8D4B5FD19A425FD1BB683B
S214007CF0DB0365D502232B70FDF780FD40F62803D5
S214007D001B68A3F50062B2F5605F09D21B6BA3F592
S214007D100062B2F5605F03D29B6803A90020984713
S214007D2003987F4B7F4A186020F4FF6323F0070315
S214007D304FF400611360FDF71DFD88BBFDF7CAFC1C
S214007D4040BB2B78022BB6D17749784F08783A6833
S214007D50336810F0F70F894640F0A58070490D682B
S214007D601D4403F0030B15446E4B0193A5EB0B0566
S214007D7025F4FF65186825F00705854223D9291ADA
S214007D8000F50060FDF7F6FC019BD8B1852488F865
S214007D90004090E74FF40061FDF7ECFC0028D0D0DF
S214007DA0852388F800301C4685E79A4208D084234D
S214007DB088F8003098F80030002B3FF47CAFF0E7EE
S214007DC08623F5E71D6031683868A1EB0B01FCF7E8
S214007DD049FB32683B684F49A2EB0B020546134449
S214007DE053483B60FFF77DFE002DCFD199F8003059
S214007DF0002B7FF460AF3B687F2B7FF75CAF02A958
S214007E0003A8FCF709FB10B9039B89F8003099F822
S214007E10003013F0F70F3FF44EAF40F628053B68EE
S214007E202A68A2F50061B1F5605FAFD2126BA2F5C9
S214007E300061B1F5605FA9D20021D2F80C903C4AEF
S214007E400846C8470028A1D13B683360354B394FF8
S214007E501860394B7B602B68A3F50062B2F5605F53
S214007E6094D29B6A35484FF40071984700288DD10C
S214007E702A683368A2F50061B1F5605F3AD2D56A28
S214007E802E482B4A3946A8470546326821492848D5
S214007E90FFF727FE40F203239D421DD040F2012348
S214007EA09D4225D107E71A443A6040F62802126838
S214007EB0A2F50061B1F5605F12D2D56A1D491C4A71
S214007EC01E48A8470546326812491948FFF709FEBA
S214007ED040F203239D4206D101238AF80030EAE6E9
S214007EE040F20225EFE740F201239D423FF47EAFC9
S214007EF080244CE740F20225C7E70024DBE60D2489
S214007F00D9E68124D7E600BFBE0D0020BD0D0020B7
S214007F10BC0D0020B80D002014040020EB17A603AB
S214007F20F0180020F8160020F0030020DC0D0020DA
S214007F30B8090020E00D0020F97A0000F00D0020BE
S214007F4001282DE9F34740F02A818B88012B40F069
S214007F5028810B681B7813BB974A984C1360984A85
S214007F601360984A1360984A1360984A1360984AB8
S214007F701370984A1360984A13602278022A01D137
S214007F80FDF72FFC01232370944B00241C70944BA8
S214007F901C70944B1C70204602B0BDE8F087032B83
S214007FA040F0EA808F4B854E1C789846002C49D1CD
S214007FB03378002B00F0D880854B1B78082B75D1C2
S214007FC07D4A1368904683B940F628052B68A3F5CA
S214007FD00063B3F5605F50D34FF4017041F20803BD
S214007FE0984200F0C38080242CE013F003071ABFE9
S214007FF0C7F10407FFB2274603EB070ABAF5806FFE
S21400800000F2B88078483A461844FF2102F0DAFDBC
S214008010704B6B4AC8F800A015681A68154455449A
S214008020DFF8A8A125F4FF65DAF8000025F00705BB
S214008030854299460BD9291A00F50060FDF79AFB90
S21400804018B1852400233370A5E7CAF80050D8F885
S2140080500010D9F80000FCF705FAD9F80030D8F877
S2140080600020554913440546DF1B5F48C9F80070D9
S214008070FFF737FD002DA7D0E3E7FCF713FA00283B
S214008080ACD12B680190A3F50062B2F5605F09D20F
S2140080901B6BA3F50062B2F5605F03D29B690121FA
S2140080A001A898474E4B01221A70CBE7002B5FD0F1
S2140080B04A4B1B78002B96D0474F3B68002B49D085
S2140080C013F003021CBFC2F10402D2B29D18B5F52C
S2140080D0806F4FD84548FF21184402F073FD444A8C
S2140080E0444B384844493D609B1A444A134402684E
S2140080F00B409342814658D81544FDF7C3FAA0F5C5
S2140081008050854255D23D68DFF8C0802A44D8F8B2
S214008110000002EA0105854208D9291A00F5006028
S214008120FDF728FB00288CD1C8F800503A682F4984
S214008130D9F80000FDF731FBD9F800303A68264937
S214008140054613442948C9F80030FFF7CAFC002D3D
S2140081507FF477AF1C4B2A4918681022FDF71DFBE9
S21400816000283FF46FAF6CE781246BE7862469E74D
S214008170842467E7822465E7042B14D1214C13235B
S2140081800221637020462170FDF7DAF91E4A1F4B64
S214008190128905329A801E4A1A6062789A71002403
S2140081A0F9E60D24F7E60624F5E6872388F800307E
S2140081B0D0E78323FAE700BFB80D0020BE0D0020ED
S2140081C0F0180020D40D0020C0120020F816002061
S2140081D0F0030020DC0D0020C8160020BC0D002097
S2140081E0FD030020BD0D0020B8090020C6120020A7
S2140081F010000020A400002000F8FFFFA7C9000020
S214008200B0120020A4120020F008002090120020D7
S2140082100D750000024B1A6FD96F0A409A677047B7
S214008220003008400F4A136BD16B0B4010B59363B8
S214008230DB0715D50C4BD3E90023002102F0010023
S21400824050EA010302D11220FCF7CCFF074C0123B1
S2140082500022012000212370FDF79AFF00232370DF
S21400826010BD00BF00700840C80D00208C12002012
S2140082700F4B10B55C691A6A1440A2B2DA61E207C5
S21400828006D5FCF73BFC014640F20510FDF702F967
S21400829063070CD5074B084C1A680020012302F030
S2140082A0040200212370FDF773FF0023237010BD26
S2140082B000400840C00D00208C1200202DE9F84F29
S2140082C0864B1E6EDA6E16409E6603F58053D3F814
S2140082D0E010D3F8EC2001EA0208C3F8E88003F5C2
S2140082E0A043D3F88010D3F88C2001EA020BC3F821
S2140082F088B0A3F5005359691A6A01EA02094FEAE1
S21400830019421204DA61764AD2F80CA0D76D916E43
S2140083100F4027F4800121F400615166002E49D0F9
S214008320320430D5D3F8884003F18063883304F4F0
S214008330E0551D60FDF706F83DB3E50428D460055A
S21400834029D54FF40014B1074FF0000509D5654B49
S2140083506549D3F8883003F460420A60F2B944F401
S214008360801416F4005618BF0226604B08EA030372
S214008370002B5DD018F4206F1FD00020FEF736F8D3
S2140083800620FCF72FFF0024DDE74FF40024DAE791
S2140083904FF00074D7E74FF40004D4E71A0402D570
S2140083A044F08064DDE798044CBF44F4800444F055
S2140083B08074D6E700240025D7E718F0090008D017
S2140083C0484B20229A60A3F5405301229A62082067
S2140083D0D7E718F010630DD0424B20229A60444A2B
S2140083E00123C2F8B830FDF7B1FC0423C2F8B83058
S2140083F00920C6E718F4202F04D01846FDF7F6FF2C
S2140084000720BEE718F4803F12D03A4B4FF4803274
S2140084101A60374BC3F8E420D3F88020C2F30C026E
S214008420782A05D8D3F8E030D90301D5FCF794FEB6
S21400843018F0040F09D0304B1A684FF40053002A86
S21400844047D02E4A44F48024136018F4806F18BF77
S21400845044F0040418F4802862D0DFF8B4C0284A38
S214008460BCF80030128827491A44073A08339BB2F2
S21400847002F07802ACF800308818DFF898C0CCF824
S214008480243090F802C01CF007030ED1C37813F016
S214008490810F03BF9B08DFF880E01EF8033004233B
S2140084A011444CEA030C81F802C0042B03D10D4999
S2140084B04A681203FCD4144A013B1060062B0BD802
S2140084C0DFE813F02C001C012C001F0122012501FF
S2140084D025010E4A1360B8E7032052E70000084063
S2140084E0005008400040084088400844090A0B092C
S2140084F000100840EC100844B4040243241008445A
S21400850048010020C80000202C0600202410084641
S2140085104A01002060100840C0C0000044F4005427
S214008520BBF1000F1DD01BF4805F18BF44F400445D
S2140085301BF4807F18BF44F480341BF4005F18BF20
S21400854044F010041BF4007F18BF44F020041BF412
S214008550806F18BF44F040041BF4006F18BF44F04F
S2140085608004B9F1000F2CD019F0007F18BF46F038
S214008570080619F0806F18BF46F0100619F0006F55
S21400858018BF46F0200619F4802F18BF45F00405E2
S21400859019F4803F18BF44F4006419F4801F18BF14
S2140085A044F4804419F4001F18BF44F0020419F480
S2140085B0002F06D0A64B1B68580640F1AB8044F44B
S2140085C00034002F00F0CA8039050DD5A14BA24912
S2140085D001221A60A14B4FF4006241F61F705A66E2
S2140085E008605A6600221A67BA0104D52B20FCF7E9
S2140085F0F5FB44F0804417F4E00F06D1FB0440F18D
S214008600A2801AF0060F00F04981EFF3108172B6CF
S21400861017F4C00F51D0924A90688009C0F309033E
S214008620800590484068D2F818C048BF6FEA835368
S2140086305FFA8CF248BF6FEA93531CF0800F18BFA6
S21400864062F0FF02DFF814C212F1460FDCF85CC0DD
S21400865033DB13F5007F30D0B3EB820F2DDC00F058
S2140086607063B3F1806F02D010F0506F25D11CF408
S214008670801F22D12220FCF7B1FB784B4FF48022DA
S2140086805A60DA6DD00218D4764A01209060764A95
S214008690DA664FF4E0025A66BA0207D55A6D12F04F
S2140086A0706F1EBF5A6D02F17F425A6527F4C007ED
S2140086B02C2047F48017FCF791FB0846FBF7BCFF1D
S2140086C0B80204D52920FCF789FB44F0005479024F
S2140086D02BD5664BDFF884A101221A604FF4805335
S2140086E0CAF864302720FCF779FBFCF72BFE4FF422
S2140086F08003CAF8643044F0805424E044F4806474
S2140087000EE744F400740BE744F4807408E744F082
S214008710080405E7FCF7F2F9831EDBB2012B7FF6AF
S2140087204EAF07287FF44DAF49E7FA0276D54F4B98
S21400873001221A60494B4FF480525A662820FCF7F3
S2140087404DFB44F000647F0508D5494B01221A60B2
S214008750424B4FF480625A6646F00106454B464F40
S214008760D3E900AB454B1A680AEA040001233240FD
S2140087700BEA05013B70FDF70BFD00233B70B8F1DB
S214008780000F1ED03E4C2368CBB1D80715D4EFF3AC
S214008790108572B63B4E3C4A308800F07F0101F0EF
S2140087A0780E022B9644944640F0F0802368002B07
S2140087B040F0A8802846FBF73FFF00232360FDF724
S2140087C0F1FDB9F1000F27D019F0007F12D0254B2C
S2140087D0D3F83821D20600F1EF80D3F8002122F436
S2140087E07F11520802F4FE120A43C3F800214FF02C
S2140087F00072DA6119F0006F0ED01A4BD3F83831D8
S21400880013F0100F0CBF214A214A4FF400131360D7
S214008810204B4FF000621A60BDE8F88FFB0492D53B
S214008820124B0E4A012119604FF4805353662220E2
S214008830FCF7D4FA4FF480235360D36D13F4A00FE3
S21400884081D12A20FCF7CAFA134B996253E700BF7E
S214008850F00F0020A45008446C5008440050084014
S214008860007008400040084000000101B450084471
S21400887094500844C80D00208C120020C00D002023
S2140088802C06002048010020C800002000410844B3
S2140088901841084420400844001008404C4B012270
S2140088A01A604C4B4FF4805159664B490A604FF49E
S2140088B000625A66494ADA66EFF3108A72B6484B87
S2140088C01B780BB1FCF722F9464B1A6DFCF716F92C
S2140088D0032802D0C2F30C0323B1434B1A78434B50
S2140088E01A7001235046FBF7A7FE4BB9404A137097
S2140088F0FCF700F84FF48052002314431D4322E790
S2140089000022F9E723F00103276827F001079F42BA
S21400891040D1002222601A886FEA42426FEA524231
S2140089209E451A8029D13349DFF8D0C00A88ACF1B9
S214008930800A02EB0008083A92B203F10800A8EB9E
S2140089400207604528BF5046082ABFB22DD80A80C5
S21400895099781B88234801F00701FFB2C3F30C0384
S2140089600429C3633780C766C0F8842005D1224B2C
S2140089701B6803B19847FCF703FA1A4BD3F8E030AC
S214008980D9037FF517AFFCF7E7FB13E7012B08BF0A
S2140089907346B9E75A1A17490988B2EB0C0248BF62
S2140089A0803208399142B6DC04E7B0F900E0BEF147
S2140089B0000FCCDA0346BEE7D3F8182122F47F1165
S2140089C0520802F4FE120A43C3F818210FE700BF4C
S2140089D0B450084400500840A45008440000010168
S2140089E08E180020001008408F180020CC1600209B
S2140089F0C41200204A010020FC1600204801002076
S214008A00FFF75CBCFFF75ABCFFF758BCFFF756BC35
S214008A10FFF754BC7047FEE70E4B0F4A9A60D3F838
S214008A20882042F47002C3F888200C4B5A6D42F43A
S214008A3000525A651A6C22F003021A64084A136838
S214008A4023F00103136052F8143C23F0805342F8DD
S214008A50143C704700ED00E00040000000300E407F
S214008A6074300E40000000002DE98048924B5B6891
S214008A70A5B013F4806F1CAD32D14FF00053002226
S214008A801A602846FCF7C8FEFCF724FE064678BBAC
S214008A908A4B8B4C01225A64E66C2846360EFBF74E
S214008AA037FD8E2E60D88749D1F8B00040F0040319
S214008AB0C1F8B030844B4FF050121A601A631A6631
S214008AC0C3F89020C3F8C020C3F8F020C1F8B00067
S214008AD07C4AD36A23F07F0343F02003D36245E049
S214008AE04FF000531A68022AC7D100221A60CFE757
S214008AF09DF87030012B31D1446BFCF77FFE1E9B36
S214008B00580714D5FCF7E6FDFCF75FFE0446FCF7B5
S214008B1068FE002CBCD0FCF7DDFD0446FCF7DAFD51
S214008B206A4B986023689D4663689847B0E784B1AF
S214008B30FCF7A8FD84420CD2FCF7A4FD04F1380330
S214008B40834206D8636923B12046FCF7A3FD0028BC
S214008B50D8D106F1C800FCF79DFDD7E7C830FCF772
S214008B6099FD002894D0D6E78F2EB1D99DF87130A4
S214008B70574E012B01BF574A136843F00403136096
S214008B8000233360544B02229A639B6B03F00F035F
S214008B90934240F01B81D4F86C3101331DD04F4B0B
S214008BA01A68043B1B681A604D4B1A68043B1B6826
S214008BB01A604C4B1A68043B1B681A604A4B1A68CA
S214008BC0043B1B681A60494B1A68043B1B681A6012
S214008BD0474B1A68043B1B681A603F4FFB6C23F038
S214008BE0405323F0010343F00103FB64FB6E43F0A4
S214008BF08073FB663F4B186800B10420FBF70AFD44
S214008C003B6E23F0C0433B66FB6C43F006032846EE
S214008C10FB64FBF77DFC9DF87100012812D19DF8DE
S214008C207030022B0ED834490B785BB9334A136880
S214008C3043F0010313603B6E314A1A40314B134335
S214008C403B660870304BC8221A80304BA0221A8030
S214008C502F4B0F201880FBF775FC1F4B2D4A9A658B
S214008C60D4F86811DB6CC3F3017C4FEA0C2340F2A6
S214008C7001129342C1F3072EC9B200F0F882B3F591
S214008C80817F0AD2012B47D0C0F0FA82B3F5807FED
S214008C9000F0F9820020034643E040F201229342AE
S214008CA000F0EB82B3F5407F00F0F082B3F5007F72
S214008CB0F0D1D4F8703131E000500E4000000E4084
S214008CC0B081E00F00400E4000A0004000ED00E044
S214008CD0B40AC64364310E4000300E403C80E00FBC
S214008CE04480E00F4C80E00F5480E00F5C80E00F83
S214008CF06480E00F8009C643D00D002044300E404B
S214008D00000F0EF0B4C0400B860900208A09002030
S214008D108409002077402057D4F87431C3F3072025
S214008D20DBB24FF41678AEEB010708FB07F7B7FB8C
S214008D30F8F28F18BE45A0EB030108FB01F1B1FB6A
S214008D40F8F1194442D3814240D8B94BDA6D22F487
S214008D50FE4222F0020242EA0722DA65236DDBB207
S214008D60032B00F29682D4F87C31DBB21B0313F49B
S214008D70702F2BD1AE4AD06E20F470400343D366DA
S214008D80506E0B46E72920F4FF7128BFE72321F039
S214008D90010141EA4301A74B516601211960936F17
S214008DA0D907FCD4136C13F003030ED001233360F1
S214008DB09F4B19469A6FD207FCD41A6C22F0030216
S214008DC01A648B6F13F00103FBD133609A4F9B4EEE
S214008DD01120FBF763FC00210220FBF775FA7B6A83
S214008DE0974823F001037B62964B4FF00008C3F8C8
S214008DF00080BA6A944B22F0070242F00602BA627A
S214008E00FB623A6B914B02F07F6213433B63904BDD
S214008E107B63FBF7A1FC01210220FBF755FA41F624
S214008E207133D6F840908B483364FBF71BFC3B4607
S214008E30B9F1000F01D0C6F8408002225A67FCF74D
S214008E40A9FEFBF789FCFCF797FE376C41F67133F9
S214008E503364FBF707FC0FB100233364DFF8DC81D3
S214008E60754E7C48776AD8F8409041F67133C8F85A
S214008E70403047F04057FBF7F5FBB9F1000F02D042
S214008E800023C8F840307348FBF766FC0121022037
S214008E90FBF71AFA7762D6F8C83043F00103C6F833
S214008EA0C8306D4EA36AB36506AA08A93520FCF73C
S214008EB073FE334630B19DF81820042A06BF089A80
S214008EC010680020C70340F1F8819A6D8DF82820BD
S214008ED09A6D8DF829209A6D8DF82A209A6D8DF856
S214008EE02B209A6D8DF82C209B6D43F060038DF837
S214008EF02D309DF82E3043F001038DF82E30574B61
S214008F000AAA5A60564B574A9A604FF000084FF428
S214008F108071C3E900225961A3F81080524A534B6E
S214008F20534E9A60C3E900225961202241462846E2
S214008F30A3F8108001F046FEFC228DF873204D4AFF
S214008F401D92082301228DF871308DF878208DF857
S214008F50813040F20172F823ADF87A208DF8833024
S214008F60454A464B1F9221932F460FCF0FC697E8D0
S214008F700F0086E80F00424B424959604249434A77
S214008F800B6043491A600A60DA6B4249C3F82480D2
S214008F90424508BF0A4640490A604FF6FF724FF046
S214008FA0641183F80D80C3E91D88C3F83880A3F8E0
S214008FB0D020C3F85080C3E91511D9659A82374B83
S214008FC011201A80FBF76AFB042841F032801A4B06
S214008FD040F2FD12C3F8C8202846FBF799FA304B3A
S214008FE0304AC3F8442148F2E672C3F838214FF4F9
S214008FF00862C3F834212C4AC3F8A0209DF87130CB
S214009000012B2A4B05D19DF87020012A9CBF2822EF
S2140090101A654AF63F429A60254B2149254F264E4F
S2140090204FF0C0729A620023C1F8FC3046E000BFE1
S21400903000300E409407C64300400E4000000E402D
S2140090400148E801A004C8432000050007AD0AD087
S21400905047A0020000F0490200500840000400202B
S214009060741100208C110020741000205C10002069
S214009070D01600209CAC00008CAC0000E0AC0000D9
S2140090803017002024170020500100204D680000F3
S21400909024000020F3520000300000208C1800202E
S2140090A000400840C0E653517A27000F00300840C1
S2140090B000700840944008460C400846914BC1F8A2
S2140090C09C30914B7F221A6003F1007323221A60B2
S2140090D003F54153343303221A604FF40023C1F8DA
S2140090E094304FF001084023C7F80080874A3B6061
S2140090F04FF460733360FF23136002F10072136055
S214009100FBF79CFBC6F800800E460397FBF7F6FCC1
S21400911007460028FAD101234FF00450F06740F6C6
S2140091204C72C6F880307A4901F063FD794B33669D
S214009130794E96E8070085E8070084223946774886
S21400914001F040FD764B1B781BB195E8070086E8DA
S2140091500700744D74484FF004534FF6CE269A8895
S214009160B24211D1B3F90220002A0DDA12F16C0FC7
S2140091700ADB198821F4E061B1F5404F04D12A4496
S214009180110C99805A80043302338342E7D9674B27
S2140091900022C3F88820C3F88C20C3F89020626DA4
S2140091A02368D2B2FF2A43F3074301D05E1C01D1E5
S2140091B09022192359495E4E022093FBF0F342FA9F
S2140091C083F3CB7423234B745A4B88744FF6037285
S2140091D01A6003F10073039A00251D604FF0804368
S2140091E01360554B554A1A60554B4FF007021A80CC
S2140091F0544B554A1D80554B1D605A604FF4005223
S2140092005A62534BF0221A6003F10073A0221A60D0
S214009210504B0122C3F8B820FBF7B8FF4E4B012293
S2140092201A604E4B3360FCF7B1FB4FF4FA630290C2
S2140092304FF47A78B0FBF8F749484A4A7B434FEA3E
S214009240032A4FEA136B10EB0A004FF000014FF0B1
S214009250000341EB0B0100F00FFFA0F58073814681
S214009260B362002840F082802B20FBF7BBFFD4F8C7
S2140092707431180EC3F3074353E5D4F878314DE53F
S214009280D4F86C314AE5D4F86C31F2E7D4F8703192
S214009290EFE7BCF1020FD4F8803109D0BCF1030F20
S2140092A009D0BCF1010F7FF460ADC3F307235DE581
S2140092B0C3F307435AE51B0E58E50DF1170208A93C
S2140092C02C20FCF769FC00283FF41CAE0AAE9DF883
S2140092D017200899304601F08CFC0DF1170208A9FA
S2140092E03C20FCF759FC9DF82E3040B1089A1278C5
S2140092F062F300038DF82E301B4B5E6002E660F3CF
S2140093000003F7E7806D6303243008444860084490
S214009310C4B00000B80F0021E00F00217C0F002130
S214009320C51200205C100020470F002100400840B6
S214009330005008407C000844FC160020D947000076
S2140093404A01002048010020B31700209010084072
S21400935040000844001008400C400844001101007A
S21400936020A1070040420F000004002008FB00F286
S2140093704FEA520C15EB0C004FEA072B2B464BF12D
S214009380000100F079FEBC4B1960BC4B82461860A9
S2140093904FEA09604FEA1929002F3FF465AFA0FB9A
S2140093A0082308FB0933104619464FF4FA62029B5D
S2140093B0B3FBF2FC10EB0C003A4641F100012B46E1
S2140093C000F05AFEAE4BAF4F1960AF4B18600AF173
S2140093D0FF333363AD4BDFF830A34FF08052C3F852
S2140093E080211A60012373600723C7F88430FCF7D6
S2140093F0CDFAC3084FEAC3584FEA10394FF0000BB6
S2140094001AEB0800A24A4BEB0901002300F034FED9
S214009410A04B18604EF66020FBF794FB9E4B404234
S21400942018629E4B0721A3F13F00FBF7A1FB9C4B64
S2140094307367039A9B49A3F52003C6F884304FF45C
S21400944000230D701360984A536E5360974BD3F801
S214009450C82042F0CC00824240F08D81FA68D507E1
S21400946000F18981D3F81031C3F30823002B40F0B4
S2140094708281EFF3108C72B68D4B8E4D9F698E4EA7
S214009480A3F5C0434FF06052D3F884E02A604FF053
S214009490006232602422C3F88420884A04201060C8
S2140094A04FF480429A664FF480525A621A6E500405
S2140094B0FCD51A68D205F9D54FF48040DFF84C8207
S2140094C098664FF00409D3F88820C8F80090C3F8CF
S2140094D084E04FF0605E07EA0E07C5F800E03760EC
S2140094E09866604692B2FBF7A7F84FF604004FF670
S2140094F00503824208BF1A46714B724F9A650123D4
S2140095007B620B70704B1868FBF7F6FB4822002155
S2140095106E4801F057FB60237B646D4B06221A6091
S2140095200023C7F884306B4B4FF080521A606A4BAA
S2140095305A6A12F0800F4FF4001200F01E8132605B
S2140095404FF400122A604FF060522A60564A634871
S21400955040F6FF755562556502F1C062A2F6BC7210
S214009560602111605E4A40211160596AFBF780FC59
S214009570FBF764F95B4BD3E9000140F0C05641F0BD
S2140095800407C3E90067584B39461A683046FBF7AC
S214009590E7F9FBF73BF9554B554A1A60554B032143
S2140095A019604D495A605D622FA3D3E90023524EDD
S2140095B0C1E91D2301F10C053160FBF73FF9494B6A
S2140095C0D3E900010FF2A809D9E9008900F0010AE1
S2140095D04FF0000B4AEA08004BEA0901C3E9000114
S2140095E0414B1A68FBF7BCF9FBF710F92846FBF766
S2140095F0DDFE3068414D02210C30FBF739FC306847
S2140096009423A0F85C30962264230027A0F8582004
S214009610A0F85A300765A0F8543007214430FBF70D
S214009620A7FA636A13F0010F18BF2F70376800217E
S21400963007F10C00FDF728FE1C4940F2FD13C1F8A7
S214009640C8302F4B0022C3E900229A602A78D1F84E
S2140096508831022A07F144082A4F40F0908013F41C
S214009660001F55E0AFF30080081B880200000000D2
S214009670081B881A04000000041C0020001C0020A0
S214009680F416002000400840F016002000E100E03C
S21400969065CD1D0080180020900F0021B317002014
S2140096A00300C000880900200010084000400E405B
S2140096B000600840186008441860084600400846E5
S2140096C00050084000000840180000200C10002041
S2140096D07000084494400844301700203C170020CF
S2140096E088400844C80D0020C00D0020C40000209B
S2140096F054010020301008400017002036000020DB
S214009700E00F00212A000020B2E60E0000400844C8
S2140097104CD12B683B60AB88BB800020FCF784FCF8
S2140097204146A888FCF750F91C4B3A781B68022A79
S21400973023F0804323F0170340F01282184A4FF4B8
S214009740EE41116002F100724FF48A41116043F05D
S2140097508043012143F0200342F8041C0F4A0020F6
S2140097601360FCF761FC0F4B03221A60FBF7CEFC7C
S2140097700D4B01221EE0142077E52A60E0E6012A60
S21400978002D113F4400FC3E782B9626AD24302F0F3
S214009790010203F480031343BAE700BFE00F002181
S2140097A02441084458410844C512002003233B7056
S2140097B0BC4BFF221A703468DFF89C9304F10C004F
S2140097C0FDF756FC2823A4F8523004F14400022189
S2140097D0FBF7CEF9B44B37684FF000621A60237B74
S2140097E0B24A43F0010323735368B14C23F00F03CE
S2140097F043F003035360B4F900102878FAF7BEFC70
S214009800014607F10C00FDF73FFD6468002C40F0B0
S214009810D5814846FBF728FEB37B64F30003B37399
S214009820A44AA54CA54FA64D20233384002182F8D8
S214009830013304F10A0082F8033382F8053382F814
S214009840063382F8043382F8073382F81C33562234
S21400985001F0B8F99B489C4BC4E9000325236372CA
S2140098600123237200233B600DF116021B2307A978
S21400987036202B80FCF790F90DF1150208A9392047
S214009880FCF78AF90DF1700A002800F0A0819DF817
S21400989015200899202A28BF202250468DF815202A
S2140098A001F0A7F905AA08A93A20FCF775F90028DF
S2140098B000F0D0819DF814200899202A28BF202285
S2140098C014A88DF8142001F094F9DFF890827F48F0
